{
	"vesting_tokens_sushmita.sol": {
		"VestingContract": {
			"abi": [
				{
					"inputs": [
						{
							"internalType": "contract ERC20",
							"name": "_token",
							"type": "address"
						}
					],
					"stateMutability": "nonpayable",
					"type": "constructor"
				},
				{
					"anonymous": false,
					"inputs": [
						{
							"indexed": true,
							"internalType": "address",
							"name": "beneficiary",
							"type": "address"
						},
						{
							"indexed": false,
							"internalType": "uint256",
							"name": "amount",
							"type": "uint256"
						}
					],
					"name": "TokensReleased",
					"type": "event"
				},
				{
					"anonymous": false,
					"inputs": [
						{
							"indexed": true,
							"internalType": "address",
							"name": "beneficiary",
							"type": "address"
						}
					],
					"name": "VestingRevoked",
					"type": "event"
				},
				{
					"anonymous": false,
					"inputs": [
						{
							"indexed": true,
							"internalType": "address",
							"name": "beneficiary",
							"type": "address"
						},
						{
							"indexed": false,
							"internalType": "uint256",
							"name": "startTime",
							"type": "uint256"
						},
						{
							"indexed": false,
							"internalType": "uint256",
							"name": "cliffDuration",
							"type": "uint256"
						},
						{
							"indexed": false,
							"internalType": "uint256",
							"name": "vestingDuration",
							"type": "uint256"
						},
						{
							"indexed": false,
							"internalType": "uint256",
							"name": "slicePeriod",
							"type": "uint256"
						},
						{
							"indexed": false,
							"internalType": "uint256",
							"name": "totalAmount",
							"type": "uint256"
						},
						{
							"indexed": false,
							"internalType": "bool",
							"name": "revocable",
							"type": "bool"
						}
					],
					"name": "VestingScheduleCreated",
					"type": "event"
				},
				{
					"inputs": [
						{
							"internalType": "address",
							"name": "beneficiary",
							"type": "address"
						}
					],
					"name": "calculateReleasableTokens",
					"outputs": [
						{
							"internalType": "uint256",
							"name": "",
							"type": "uint256"
						}
					],
					"stateMutability": "view",
					"type": "function"
				},
				{
					"inputs": [
						{
							"internalType": "address",
							"name": "beneficiary",
							"type": "address"
						},
						{
							"internalType": "uint256",
							"name": "startTime",
							"type": "uint256"
						},
						{
							"internalType": "uint256",
							"name": "cliffDuration",
							"type": "uint256"
						},
						{
							"internalType": "uint256",
							"name": "vestingDuration",
							"type": "uint256"
						},
						{
							"internalType": "uint256",
							"name": "slicePeriod",
							"type": "uint256"
						},
						{
							"internalType": "uint256",
							"name": "totalAmount",
							"type": "uint256"
						},
						{
							"internalType": "bool",
							"name": "revocable",
							"type": "bool"
						}
					],
					"name": "createVestingSchedule",
					"outputs": [],
					"stateMutability": "nonpayable",
					"type": "function"
				},
				{
					"inputs": [
						{
							"internalType": "address",
							"name": "beneficiary",
							"type": "address"
						}
					],
					"name": "getBalance",
					"outputs": [
						{
							"internalType": "uint256",
							"name": "",
							"type": "uint256"
						}
					],
					"stateMutability": "view",
					"type": "function"
				},
				{
					"inputs": [],
					"name": "getTime",
					"outputs": [
						{
							"internalType": "uint256",
							"name": "",
							"type": "uint256"
						}
					],
					"stateMutability": "view",
					"type": "function"
				},
				{
					"inputs": [],
					"name": "owner",
					"outputs": [
						{
							"internalType": "address",
							"name": "",
							"type": "address"
						}
					],
					"stateMutability": "view",
					"type": "function"
				},
				{
					"inputs": [],
					"name": "releaseTokens",
					"outputs": [],
					"stateMutability": "nonpayable",
					"type": "function"
				},
				{
					"inputs": [
						{
							"internalType": "address",
							"name": "beneficiary",
							"type": "address"
						}
					],
					"name": "revokeVestingSchedule",
					"outputs": [],
					"stateMutability": "nonpayable",
					"type": "function"
				},
				{
					"inputs": [],
					"name": "token",
					"outputs": [
						{
							"internalType": "contract ERC20",
							"name": "",
							"type": "address"
						}
					],
					"stateMutability": "view",
					"type": "function"
				},
				{
					"inputs": [
						{
							"internalType": "address",
							"name": "",
							"type": "address"
						}
					],
					"name": "vestingSchedules",
					"outputs": [
						{
							"internalType": "uint256",
							"name": "startTime",
							"type": "uint256"
						},
						{
							"internalType": "uint256",
							"name": "cliffDuration",
							"type": "uint256"
						},
						{
							"internalType": "uint256",
							"name": "vestingDuration",
							"type": "uint256"
						},
						{
							"internalType": "uint256",
							"name": "slicePeriod",
							"type": "uint256"
						},
						{
							"internalType": "uint256",
							"name": "totalAmount",
							"type": "uint256"
						},
						{
							"internalType": "bool",
							"name": "revocable",
							"type": "bool"
						},
						{
							"internalType": "uint256",
							"name": "vestedTokens",
							"type": "uint256"
						},
						{
							"internalType": "bool",
							"name": "revoked",
							"type": "bool"
						}
					],
					"stateMutability": "view",
					"type": "function"
				}
			],
			"devdoc": {
				"kind": "dev",
				"methods": {},
				"version": 1
			},
			"evm": {
				"assembly": "    /* \"vesting_tokens_sushmita.sol\":179:5097  contract VestingContract {... */\n  mstore(0x40, 0x80)\n    /* \"vesting_tokens_sushmita.sol\":1340:1428  constructor(ERC20 _token) {... */\n  callvalue\n  dup1\n  iszero\n  tag_1\n  jumpi\n  0x00\n  dup1\n  revert\ntag_1:\n  pop\n  mload(0x40)\n  sub(codesize, bytecodeSize)\n  dup1\n  bytecodeSize\n  dup4\n  codecopy\n  dup2\n  dup2\n  add\n  0x40\n  mstore\n  dup2\n  add\n  swap1\n  tag_2\n  swap2\n  swap1\n  tag_3\n  jump\t// in\ntag_2:\n    /* \"vesting_tokens_sushmita.sol\":1385:1395  msg.sender */\n  caller\n    /* \"vesting_tokens_sushmita.sol\":1377:1382  owner */\n  0x00\n  dup1\n    /* \"vesting_tokens_sushmita.sol\":1377:1395  owner = msg.sender */\n  0x0100\n  exp\n  dup2\n  sload\n  dup2\n  0xffffffffffffffffffffffffffffffffffffffff\n  mul\n  not\n  and\n  swap1\n  dup4\n  0xffffffffffffffffffffffffffffffffffffffff\n  and\n  mul\n  or\n  swap1\n  sstore\n  pop\n    /* \"vesting_tokens_sushmita.sol\":1414:1420  _token */\n  dup1\n    /* \"vesting_tokens_sushmita.sol\":1406:1411  token */\n  0x01\n  0x00\n    /* \"vesting_tokens_sushmita.sol\":1406:1420  token = _token */\n  0x0100\n  exp\n  dup2\n  sload\n  dup2\n  0xffffffffffffffffffffffffffffffffffffffff\n  mul\n  not\n  and\n  swap1\n  dup4\n  0xffffffffffffffffffffffffffffffffffffffff\n  and\n  mul\n  or\n  swap1\n  sstore\n  pop\n    /* \"vesting_tokens_sushmita.sol\":1340:1428  constructor(ERC20 _token) {... */\n  pop\n    /* \"vesting_tokens_sushmita.sol\":179:5097  contract VestingContract {... */\n  jump(tag_6)\n    /* \"#utility.yul\":88:205   */\ntag_8:\n    /* \"#utility.yul\":197:198   */\n  0x00\n    /* \"#utility.yul\":194:195   */\n  dup1\n    /* \"#utility.yul\":187:199   */\n  revert\n    /* \"#utility.yul\":334:460   */\ntag_10:\n    /* \"#utility.yul\":371:378   */\n  0x00\n    /* \"#utility.yul\":411:453   */\n  0xffffffffffffffffffffffffffffffffffffffff\n    /* \"#utility.yul\":404:409   */\n  dup3\n    /* \"#utility.yul\":400:454   */\n  and\n    /* \"#utility.yul\":389:454   */\n  swap1\n  pop\n    /* \"#utility.yul\":334:460   */\n  swap2\n  swap1\n  pop\n  jump\t// out\n    /* \"#utility.yul\":466:562   */\ntag_11:\n    /* \"#utility.yul\":503:510   */\n  0x00\n    /* \"#utility.yul\":532:556   */\n  tag_21\n    /* \"#utility.yul\":550:555   */\n  dup3\n    /* \"#utility.yul\":532:556   */\n  tag_10\n  jump\t// in\ntag_21:\n    /* \"#utility.yul\":521:556   */\n  swap1\n  pop\n    /* \"#utility.yul\":466:562   */\n  swap2\n  swap1\n  pop\n  jump\t// out\n    /* \"#utility.yul\":568:677   */\ntag_12:\n    /* \"#utility.yul\":618:625   */\n  0x00\n    /* \"#utility.yul\":647:671   */\n  tag_23\n    /* \"#utility.yul\":665:670   */\n  dup3\n    /* \"#utility.yul\":647:671   */\n  tag_11\n  jump\t// in\ntag_23:\n    /* \"#utility.yul\":636:671   */\n  swap1\n  pop\n    /* \"#utility.yul\":568:677   */\n  swap2\n  swap1\n  pop\n  jump\t// out\n    /* \"#utility.yul\":683:831   */\ntag_13:\n    /* \"#utility.yul\":769:806   */\n  tag_25\n    /* \"#utility.yul\":800:805   */\n  dup2\n    /* \"#utility.yul\":769:806   */\n  tag_12\n  jump\t// in\ntag_25:\n    /* \"#utility.yul\":762:767   */\n  dup2\n    /* \"#utility.yul\":759:807   */\n  eq\n    /* \"#utility.yul\":749:825   */\n  tag_26\n  jumpi\n    /* \"#utility.yul\":821:822   */\n  0x00\n    /* \"#utility.yul\":818:819   */\n  dup1\n    /* \"#utility.yul\":811:823   */\n  revert\n    /* \"#utility.yul\":749:825   */\ntag_26:\n    /* \"#utility.yul\":683:831   */\n  pop\n  jump\t// out\n    /* \"#utility.yul\":837:1006   */\ntag_14:\n    /* \"#utility.yul\":907:912   */\n  0x00\n    /* \"#utility.yul\":938:944   */\n  dup2\n    /* \"#utility.yul\":932:945   */\n  mload\n    /* \"#utility.yul\":923:945   */\n  swap1\n  pop\n    /* \"#utility.yul\":954:1000   */\n  tag_28\n    /* \"#utility.yul\":994:999   */\n  dup2\n    /* \"#utility.yul\":954:1000   */\n  tag_13\n  jump\t// in\ntag_28:\n    /* \"#utility.yul\":837:1006   */\n  swap3\n  swap2\n  pop\n  pop\n  jump\t// out\n    /* \"#utility.yul\":1012:1389   */\ntag_3:\n    /* \"#utility.yul\":1095:1101   */\n  0x00\n    /* \"#utility.yul\":1144:1146   */\n  0x20\n    /* \"#utility.yul\":1132:1141   */\n  dup3\n    /* \"#utility.yul\":1123:1130   */\n  dup5\n    /* \"#utility.yul\":1119:1142   */\n  sub\n    /* \"#utility.yul\":1115:1147   */\n  slt\n    /* \"#utility.yul\":1112:1231   */\n  iszero\n  tag_30\n  jumpi\n    /* \"#utility.yul\":1150:1229   */\n  tag_31\n  tag_8\n  jump\t// in\ntag_31:\n    /* \"#utility.yul\":1112:1231   */\ntag_30:\n    /* \"#utility.yul\":1270:1271   */\n  0x00\n    /* \"#utility.yul\":1295:1372   */\n  tag_32\n    /* \"#utility.yul\":1364:1371   */\n  dup5\n    /* \"#utility.yul\":1355:1361   */\n  dup3\n    /* \"#utility.yul\":1344:1353   */\n  dup6\n    /* \"#utility.yul\":1340:1362   */\n  add\n    /* \"#utility.yul\":1295:1372   */\n  tag_14\n  jump\t// in\ntag_32:\n    /* \"#utility.yul\":1285:1372   */\n  swap2\n  pop\n    /* \"#utility.yul\":1241:1382   */\n  pop\n    /* \"#utility.yul\":1012:1389   */\n  swap3\n  swap2\n  pop\n  pop\n  jump\t// out\n    /* \"vesting_tokens_sushmita.sol\":179:5097  contract VestingContract {... */\ntag_6:\n  dataSize(sub_0)\n  dup1\n  dataOffset(sub_0)\n  0x00\n  codecopy\n  0x00\n  return\nstop\n\nsub_0: assembly {\n        /* \"vesting_tokens_sushmita.sol\":179:5097  contract VestingContract {... */\n      mstore(0x40, 0x80)\n      callvalue\n      dup1\n      iszero\n      tag_1\n      jumpi\n      0x00\n      dup1\n      revert\n    tag_1:\n      pop\n      jumpi(tag_2, lt(calldatasize, 0x04))\n      shr(0xe0, calldataload(0x00))\n      dup1\n      0xa96f8668\n      gt\n      tag_12\n      jumpi\n      dup1\n      0xa96f8668\n      eq\n      tag_7\n      jumpi\n      dup1\n      0xf035a272\n      eq\n      tag_8\n      jumpi\n      dup1\n      0xf8b2cb4f\n      eq\n      tag_9\n      jumpi\n      dup1\n      0xfc0c546a\n      eq\n      tag_10\n      jumpi\n      dup1\n      0xfdb20ccb\n      eq\n      tag_11\n      jumpi\n      jump(tag_2)\n    tag_12:\n      dup1\n      0x4495e827\n      eq\n      tag_3\n      jumpi\n      dup1\n      0x557ed1ba\n      eq\n      tag_4\n      jumpi\n      dup1\n      0x7dc8a8aa\n      eq\n      tag_5\n      jumpi\n      dup1\n      0x8da5cb5b\n      eq\n      tag_6\n      jumpi\n    tag_2:\n      0x00\n      dup1\n      revert\n        /* \"vesting_tokens_sushmita.sol\":1436:2615  function createVestingSchedule(... */\n    tag_3:\n      tag_13\n      0x04\n      dup1\n      calldatasize\n      sub\n      dup2\n      add\n      swap1\n      tag_14\n      swap2\n      swap1\n      tag_15\n      jump\t// in\n    tag_14:\n      tag_16\n      jump\t// in\n    tag_13:\n      stop\n        /* \"vesting_tokens_sushmita.sol\":4871:4961  function getTime() view external returns(uint256){... */\n    tag_4:\n      tag_17\n      tag_18\n      jump\t// in\n    tag_17:\n      mload(0x40)\n      tag_19\n      swap2\n      swap1\n      tag_20\n      jump\t// in\n    tag_19:\n      mload(0x40)\n      dup1\n      swap2\n      sub\n      swap1\n      return\n        /* \"vesting_tokens_sushmita.sol\":2623:3534  function calculateReleasableTokens(address beneficiary)... */\n    tag_5:\n      tag_21\n      0x04\n      dup1\n      calldatasize\n      sub\n      dup2\n      add\n      swap1\n      tag_22\n      swap2\n      swap1\n      tag_23\n      jump\t// in\n    tag_22:\n      tag_24\n      jump\t// in\n    tag_21:\n      mload(0x40)\n      tag_25\n      swap2\n      swap1\n      tag_20\n      jump\t// in\n    tag_25:\n      mload(0x40)\n      dup1\n      swap2\n      sub\n      swap1\n      return\n        /* \"vesting_tokens_sushmita.sol\":246:266  address public owner */\n    tag_6:\n      tag_26\n      tag_27\n      jump\t// in\n    tag_26:\n      mload(0x40)\n      tag_28\n      swap2\n      swap1\n      tag_29\n      jump\t// in\n    tag_28:\n      mload(0x40)\n      dup1\n      swap2\n      sub\n      swap1\n      return\n        /* \"vesting_tokens_sushmita.sol\":3542:4207  function releaseTokens() external {... */\n    tag_7:\n      tag_30\n      tag_31\n      jump\t// in\n    tag_30:\n      stop\n        /* \"vesting_tokens_sushmita.sol\":4215:4863  function revokeVestingSchedule(address beneficiary) external onlyOwner {... */\n    tag_8:\n      tag_32\n      0x04\n      dup1\n      calldatasize\n      sub\n      dup2\n      add\n      swap1\n      tag_33\n      swap2\n      swap1\n      tag_23\n      jump\t// in\n    tag_33:\n      tag_34\n      jump\t// in\n    tag_32:\n      stop\n        /* \"vesting_tokens_sushmita.sol\":4969:5094  function getBalance(address beneficiary) view external returns(uint256){... */\n    tag_9:\n      tag_35\n      0x04\n      dup1\n      calldatasize\n      sub\n      dup2\n      add\n      swap1\n      tag_36\n      swap2\n      swap1\n      tag_23\n      jump\t// in\n    tag_36:\n      tag_37\n      jump\t// in\n    tag_35:\n      mload(0x40)\n      tag_38\n      swap2\n      swap1\n      tag_20\n      jump\t// in\n    tag_38:\n      mload(0x40)\n      dup1\n      swap2\n      sub\n      swap1\n      return\n        /* \"vesting_tokens_sushmita.sol\":273:291  ERC20 public token */\n    tag_10:\n      tag_39\n      tag_40\n      jump\t// in\n    tag_39:\n      mload(0x40)\n      tag_41\n      swap2\n      swap1\n      tag_42\n      jump\t// in\n    tag_41:\n      mload(0x40)\n      dup1\n      swap2\n      sub\n      swap1\n      return\n        /* \"vesting_tokens_sushmita.sol\":572:631  mapping(address => VestingSchedule) public vestingSchedules */\n    tag_11:\n      tag_43\n      0x04\n      dup1\n      calldatasize\n      sub\n      dup2\n      add\n      swap1\n      tag_44\n      swap2\n      swap1\n      tag_23\n      jump\t// in\n    tag_44:\n      tag_45\n      jump\t// in\n    tag_43:\n      mload(0x40)\n      tag_46\n      swap9\n      swap8\n      swap7\n      swap6\n      swap5\n      swap4\n      swap3\n      swap2\n      swap1\n      tag_47\n      jump\t// in\n    tag_46:\n      mload(0x40)\n      dup1\n      swap2\n      sub\n      swap1\n      return\n        /* \"vesting_tokens_sushmita.sol\":1436:2615  function createVestingSchedule(... */\n    tag_16:\n        /* \"vesting_tokens_sushmita.sol\":1087:1092  owner */\n      0x00\n      dup1\n      sload\n      swap1\n      0x0100\n      exp\n      swap1\n      div\n      0xffffffffffffffffffffffffffffffffffffffff\n      and\n        /* \"vesting_tokens_sushmita.sol\":1073:1092  msg.sender == owner */\n      0xffffffffffffffffffffffffffffffffffffffff\n      and\n        /* \"vesting_tokens_sushmita.sol\":1073:1083  msg.sender */\n      caller\n        /* \"vesting_tokens_sushmita.sol\":1073:1092  msg.sender == owner */\n      0xffffffffffffffffffffffffffffffffffffffff\n      and\n      eq\n        /* \"vesting_tokens_sushmita.sol\":1065:1110  require(msg.sender == owner, \"Not the owner\") */\n      tag_49\n      jumpi\n      mload(0x40)\n      0x08c379a000000000000000000000000000000000000000000000000000000000\n      dup2\n      mstore\n      0x04\n      add\n      tag_50\n      swap1\n      tag_51\n      jump\t// in\n    tag_50:\n      mload(0x40)\n      dup1\n      swap2\n      sub\n      swap1\n      revert\n    tag_49:\n        /* \"vesting_tokens_sushmita.sol\":1778:1779  0 */\n      0x00\n        /* \"vesting_tokens_sushmita.sol\":1735:1751  vestingSchedules */\n      0x02\n        /* \"vesting_tokens_sushmita.sol\":1735:1764  vestingSchedules[beneficiary] */\n      0x00\n        /* \"vesting_tokens_sushmita.sol\":1752:1763  beneficiary */\n      dup10\n        /* \"vesting_tokens_sushmita.sol\":1735:1764  vestingSchedules[beneficiary] */\n      0xffffffffffffffffffffffffffffffffffffffff\n      and\n      0xffffffffffffffffffffffffffffffffffffffff\n      and\n      dup2\n      mstore\n      0x20\n      add\n      swap1\n      dup2\n      mstore\n      0x20\n      add\n      0x00\n      keccak256\n        /* \"vesting_tokens_sushmita.sol\":1735:1774  vestingSchedules[beneficiary].startTime */\n      0x00\n      add\n      sload\n        /* \"vesting_tokens_sushmita.sol\":1735:1779  vestingSchedules[beneficiary].startTime == 0 */\n      eq\n        /* \"vesting_tokens_sushmita.sol\":1713:1867  require(... */\n      tag_53\n      jumpi\n      mload(0x40)\n      0x08c379a000000000000000000000000000000000000000000000000000000000\n      dup2\n      mstore\n      0x04\n      add\n      tag_54\n      swap1\n      tag_55\n      jump\t// in\n    tag_54:\n      mload(0x40)\n      dup1\n      swap2\n      sub\n      swap1\n      revert\n    tag_53:\n        /* \"vesting_tokens_sushmita.sol\":1914:1915  0 */\n      0x00\n        /* \"vesting_tokens_sushmita.sol\":1900:1911  totalAmount */\n      dup3\n        /* \"vesting_tokens_sushmita.sol\":1900:1915  totalAmount > 0 */\n      gt\n        /* \"vesting_tokens_sushmita.sol\":1900:1938  totalAmount > 0 && vestingDuration > 0 */\n      dup1\n      iszero\n      tag_56\n      jumpi\n      pop\n        /* \"vesting_tokens_sushmita.sol\":1937:1938  0 */\n      0x00\n        /* \"vesting_tokens_sushmita.sol\":1919:1934  vestingDuration */\n      dup5\n        /* \"vesting_tokens_sushmita.sol\":1919:1938  vestingDuration > 0 */\n      gt\n        /* \"vesting_tokens_sushmita.sol\":1900:1938  totalAmount > 0 && vestingDuration > 0 */\n    tag_56:\n        /* \"vesting_tokens_sushmita.sol\":1878:2021  require(... */\n      tag_57\n      jumpi\n      mload(0x40)\n      0x08c379a000000000000000000000000000000000000000000000000000000000\n      dup2\n      mstore\n      0x04\n      add\n      tag_58\n      swap1\n      tag_59\n      jump\t// in\n    tag_58:\n      mload(0x40)\n      dup1\n      swap2\n      sub\n      swap1\n      revert\n    tag_57:\n        /* \"vesting_tokens_sushmita.sol\":2034:2066  VestingSchedule storage schedule */\n      0x00\n        /* \"vesting_tokens_sushmita.sol\":2069:2085  vestingSchedules */\n      0x02\n        /* \"vesting_tokens_sushmita.sol\":2069:2098  vestingSchedules[beneficiary] */\n      0x00\n        /* \"vesting_tokens_sushmita.sol\":2086:2097  beneficiary */\n      dup10\n        /* \"vesting_tokens_sushmita.sol\":2069:2098  vestingSchedules[beneficiary] */\n      0xffffffffffffffffffffffffffffffffffffffff\n      and\n      0xffffffffffffffffffffffffffffffffffffffff\n      and\n      dup2\n      mstore\n      0x20\n      add\n      swap1\n      dup2\n      mstore\n      0x20\n      add\n      0x00\n      keccak256\n        /* \"vesting_tokens_sushmita.sol\":2034:2098  VestingSchedule storage schedule = vestingSchedules[beneficiary] */\n      swap1\n      pop\n        /* \"vesting_tokens_sushmita.sol\":2130:2139  startTime */\n      dup7\n        /* \"vesting_tokens_sushmita.sol\":2109:2117  schedule */\n      dup2\n        /* \"vesting_tokens_sushmita.sol\":2109:2127  schedule.startTime */\n      0x00\n      add\n        /* \"vesting_tokens_sushmita.sol\":2109:2139  schedule.startTime = startTime */\n      dup2\n      swap1\n      sstore\n      pop\n        /* \"vesting_tokens_sushmita.sol\":2175:2188  cliffDuration */\n      dup6\n        /* \"vesting_tokens_sushmita.sol\":2150:2158  schedule */\n      dup2\n        /* \"vesting_tokens_sushmita.sol\":2150:2172  schedule.cliffDuration */\n      0x01\n      add\n        /* \"vesting_tokens_sushmita.sol\":2150:2188  schedule.cliffDuration = cliffDuration */\n      dup2\n      swap1\n      sstore\n      pop\n        /* \"vesting_tokens_sushmita.sol\":2226:2241  vestingDuration */\n      dup5\n        /* \"vesting_tokens_sushmita.sol\":2199:2207  schedule */\n      dup2\n        /* \"vesting_tokens_sushmita.sol\":2199:2223  schedule.vestingDuration */\n      0x02\n      add\n        /* \"vesting_tokens_sushmita.sol\":2199:2241  schedule.vestingDuration = vestingDuration */\n      dup2\n      swap1\n      sstore\n      pop\n        /* \"vesting_tokens_sushmita.sol\":2275:2286  slicePeriod */\n      dup4\n        /* \"vesting_tokens_sushmita.sol\":2252:2260  schedule */\n      dup2\n        /* \"vesting_tokens_sushmita.sol\":2252:2272  schedule.slicePeriod */\n      0x03\n      add\n        /* \"vesting_tokens_sushmita.sol\":2252:2286  schedule.slicePeriod = slicePeriod */\n      dup2\n      swap1\n      sstore\n      pop\n        /* \"vesting_tokens_sushmita.sol\":2320:2331  totalAmount */\n      dup3\n        /* \"vesting_tokens_sushmita.sol\":2297:2305  schedule */\n      dup2\n        /* \"vesting_tokens_sushmita.sol\":2297:2317  schedule.totalAmount */\n      0x04\n      add\n        /* \"vesting_tokens_sushmita.sol\":2297:2331  schedule.totalAmount = totalAmount */\n      dup2\n      swap1\n      sstore\n      pop\n        /* \"vesting_tokens_sushmita.sol\":2363:2372  revocable */\n      dup2\n        /* \"vesting_tokens_sushmita.sol\":2342:2350  schedule */\n      dup2\n        /* \"vesting_tokens_sushmita.sol\":2342:2360  schedule.revocable */\n      0x05\n      add\n      0x00\n        /* \"vesting_tokens_sushmita.sol\":2342:2372  schedule.revocable = revocable */\n      0x0100\n      exp\n      dup2\n      sload\n      dup2\n      0xff\n      mul\n      not\n      and\n      swap1\n      dup4\n      iszero\n      iszero\n      mul\n      or\n      swap1\n      sstore\n      pop\n        /* \"vesting_tokens_sushmita.sol\":2427:2438  beneficiary */\n      dup8\n        /* \"vesting_tokens_sushmita.sol\":2390:2607  VestingScheduleCreated(... */\n      0xffffffffffffffffffffffffffffffffffffffff\n      and\n      0xbea02a5045606a667ff06eb235c005b4f95b55a10c174b5aae63ba6be2ae9808\n        /* \"vesting_tokens_sushmita.sol\":2453:2462  startTime */\n      dup9\n        /* \"vesting_tokens_sushmita.sol\":2477:2490  cliffDuration */\n      dup9\n        /* \"vesting_tokens_sushmita.sol\":2505:2520  vestingDuration */\n      dup9\n        /* \"vesting_tokens_sushmita.sol\":2535:2546  slicePeriod */\n      dup9\n        /* \"vesting_tokens_sushmita.sol\":2561:2572  totalAmount */\n      dup9\n        /* \"vesting_tokens_sushmita.sol\":2587:2596  revocable */\n      dup9\n        /* \"vesting_tokens_sushmita.sol\":2390:2607  VestingScheduleCreated(... */\n      mload(0x40)\n      tag_60\n      swap7\n      swap6\n      swap5\n      swap4\n      swap3\n      swap2\n      swap1\n      tag_61\n      jump\t// in\n    tag_60:\n      mload(0x40)\n      dup1\n      swap2\n      sub\n      swap1\n      log2\n        /* \"vesting_tokens_sushmita.sol\":1702:2615  {... */\n      pop\n        /* \"vesting_tokens_sushmita.sol\":1436:2615  function createVestingSchedule(... */\n      pop\n      pop\n      pop\n      pop\n      pop\n      pop\n      pop\n      jump\t// out\n        /* \"vesting_tokens_sushmita.sol\":4871:4961  function getTime() view external returns(uint256){... */\n    tag_18:\n        /* \"vesting_tokens_sushmita.sol\":4912:4919  uint256 */\n      0x00\n        /* \"vesting_tokens_sushmita.sol\":4938:4953  block.timestamp */\n      timestamp\n        /* \"vesting_tokens_sushmita.sol\":4931:4953  return block.timestamp */\n      swap1\n      pop\n        /* \"vesting_tokens_sushmita.sol\":4871:4961  function getTime() view external returns(uint256){... */\n      swap1\n      jump\t// out\n        /* \"vesting_tokens_sushmita.sol\":2623:3534  function calculateReleasableTokens(address beneficiary)... */\n    tag_24:\n        /* \"vesting_tokens_sushmita.sol\":2727:2734  uint256 */\n      0x00\n        /* \"vesting_tokens_sushmita.sol\":2752:2783  VestingSchedule memory schedule */\n      dup1\n        /* \"vesting_tokens_sushmita.sol\":2786:2802  vestingSchedules */\n      0x02\n        /* \"vesting_tokens_sushmita.sol\":2786:2815  vestingSchedules[beneficiary] */\n      0x00\n        /* \"vesting_tokens_sushmita.sol\":2803:2814  beneficiary */\n      dup5\n        /* \"vesting_tokens_sushmita.sol\":2786:2815  vestingSchedules[beneficiary] */\n      0xffffffffffffffffffffffffffffffffffffffff\n      and\n      0xffffffffffffffffffffffffffffffffffffffff\n      and\n      dup2\n      mstore\n      0x20\n      add\n      swap1\n      dup2\n      mstore\n      0x20\n      add\n      0x00\n      keccak256\n        /* \"vesting_tokens_sushmita.sol\":2752:2815  VestingSchedule memory schedule = vestingSchedules[beneficiary] */\n      mload(0x40)\n      dup1\n      0x0100\n      add\n      0x40\n      mstore\n      swap1\n      dup2\n      0x00\n      dup3\n      add\n      sload\n      dup2\n      mstore\n      0x20\n      add\n      0x01\n      dup3\n      add\n      sload\n      dup2\n      mstore\n      0x20\n      add\n      0x02\n      dup3\n      add\n      sload\n      dup2\n      mstore\n      0x20\n      add\n      0x03\n      dup3\n      add\n      sload\n      dup2\n      mstore\n      0x20\n      add\n      0x04\n      dup3\n      add\n      sload\n      dup2\n      mstore\n      0x20\n      add\n      0x05\n      dup3\n      add\n      0x00\n      swap1\n      sload\n      swap1\n      0x0100\n      exp\n      swap1\n      div\n      0xff\n      and\n      iszero\n      iszero\n      iszero\n      iszero\n      dup2\n      mstore\n      0x20\n      add\n      0x06\n      dup3\n      add\n      sload\n      dup2\n      mstore\n      0x20\n      add\n      0x07\n      dup3\n      add\n      0x00\n      swap1\n      sload\n      swap1\n      0x0100\n      exp\n      swap1\n      div\n      0xff\n      and\n      iszero\n      iszero\n      iszero\n      iszero\n      dup2\n      mstore\n      pop\n      pop\n      swap1\n      pop\n        /* \"vesting_tokens_sushmita.sol\":2850:2896  schedule.startTime.add(schedule.cliffDuration) */\n      tag_64\n        /* \"vesting_tokens_sushmita.sol\":2873:2881  schedule */\n      dup2\n        /* \"vesting_tokens_sushmita.sol\":2873:2895  schedule.cliffDuration */\n      0x20\n      add\n      mload\n        /* \"vesting_tokens_sushmita.sol\":2850:2858  schedule */\n      dup3\n        /* \"vesting_tokens_sushmita.sol\":2850:2868  schedule.startTime */\n      0x00\n      add\n      mload\n        /* \"vesting_tokens_sushmita.sol\":2850:2872  schedule.startTime.add */\n      tag_65\n      swap1\n        /* \"vesting_tokens_sushmita.sol\":2850:2896  schedule.startTime.add(schedule.cliffDuration) */\n      swap2\n      swap1\n      0xffffffff\n      and\n      jump\t// in\n    tag_64:\n        /* \"vesting_tokens_sushmita.sol\":2832:2847  block.timestamp */\n      timestamp\n        /* \"vesting_tokens_sushmita.sol\":2832:2896  block.timestamp < schedule.startTime.add(schedule.cliffDuration) */\n      lt\n        /* \"vesting_tokens_sushmita.sol\":2828:2962  if (block.timestamp < schedule.startTime.add(schedule.cliffDuration)) {... */\n      iszero\n      tag_66\n      jumpi\n        /* \"vesting_tokens_sushmita.sol\":2920:2921  0 */\n      0x00\n        /* \"vesting_tokens_sushmita.sol\":2913:2921  return 0 */\n      swap2\n      pop\n      pop\n      jump(tag_63)\n        /* \"vesting_tokens_sushmita.sol\":2828:2962  if (block.timestamp < schedule.startTime.add(schedule.cliffDuration)) {... */\n    tag_66:\n        /* \"vesting_tokens_sushmita.sol\":2974:2999  uint256 elapsedSinceCliff */\n      0x00\n        /* \"vesting_tokens_sushmita.sol\":3002:3093  block.timestamp.sub(schedule.startTime).sub(... */\n      tag_67\n        /* \"vesting_tokens_sushmita.sol\":3060:3068  schedule */\n      dup3\n        /* \"vesting_tokens_sushmita.sol\":3060:3082  schedule.cliffDuration */\n      0x20\n      add\n      mload\n        /* \"vesting_tokens_sushmita.sol\":3002:3041  block.timestamp.sub(schedule.startTime) */\n      tag_68\n        /* \"vesting_tokens_sushmita.sol\":3022:3030  schedule */\n      dup5\n        /* \"vesting_tokens_sushmita.sol\":3022:3040  schedule.startTime */\n      0x00\n      add\n      mload\n        /* \"vesting_tokens_sushmita.sol\":3002:3017  block.timestamp */\n      timestamp\n        /* \"vesting_tokens_sushmita.sol\":3002:3021  block.timestamp.sub */\n      tag_69\n      swap1\n        /* \"vesting_tokens_sushmita.sol\":3002:3041  block.timestamp.sub(schedule.startTime) */\n      swap2\n      swap1\n      0xffffffff\n      and\n      jump\t// in\n    tag_68:\n        /* \"vesting_tokens_sushmita.sol\":3002:3045  block.timestamp.sub(schedule.startTime).sub */\n      tag_69\n      swap1\n        /* \"vesting_tokens_sushmita.sol\":3002:3093  block.timestamp.sub(schedule.startTime).sub(... */\n      swap2\n      swap1\n      0xffffffff\n      and\n      jump\t// in\n    tag_67:\n        /* \"vesting_tokens_sushmita.sol\":2974:3093  uint256 elapsedSinceCliff = block.timestamp.sub(schedule.startTime).sub(... */\n      swap1\n      pop\n        /* \"vesting_tokens_sushmita.sol\":3106:3133  uint256 totalVestingPeriods */\n      0x00\n        /* \"vesting_tokens_sushmita.sol\":3136:3210  schedule.vestingDuration.div(... */\n      tag_70\n        /* \"vesting_tokens_sushmita.sol\":3179:3187  schedule */\n      dup4\n        /* \"vesting_tokens_sushmita.sol\":3179:3199  schedule.slicePeriod */\n      0x60\n      add\n      mload\n        /* \"vesting_tokens_sushmita.sol\":3136:3144  schedule */\n      dup5\n        /* \"vesting_tokens_sushmita.sol\":3136:3160  schedule.vestingDuration */\n      0x40\n      add\n      mload\n        /* \"vesting_tokens_sushmita.sol\":3136:3164  schedule.vestingDuration.div */\n      tag_71\n      swap1\n        /* \"vesting_tokens_sushmita.sol\":3136:3210  schedule.vestingDuration.div(... */\n      swap2\n      swap1\n      0xffffffff\n      and\n      jump\t// in\n    tag_70:\n        /* \"vesting_tokens_sushmita.sol\":3106:3210  uint256 totalVestingPeriods = schedule.vestingDuration.div(... */\n      swap1\n      pop\n        /* \"vesting_tokens_sushmita.sol\":3221:3242  uint256 vestedPeriods */\n      0x00\n        /* \"vesting_tokens_sushmita.sol\":3245:3288  elapsedSinceCliff.div(schedule.slicePeriod) */\n      tag_72\n        /* \"vesting_tokens_sushmita.sol\":3267:3275  schedule */\n      dup5\n        /* \"vesting_tokens_sushmita.sol\":3267:3287  schedule.slicePeriod */\n      0x60\n      add\n      mload\n        /* \"vesting_tokens_sushmita.sol\":3245:3262  elapsedSinceCliff */\n      dup5\n        /* \"vesting_tokens_sushmita.sol\":3245:3266  elapsedSinceCliff.div */\n      tag_71\n      swap1\n        /* \"vesting_tokens_sushmita.sol\":3245:3288  elapsedSinceCliff.div(schedule.slicePeriod) */\n      swap2\n      swap1\n      0xffffffff\n      and\n      jump\t// in\n    tag_72:\n        /* \"vesting_tokens_sushmita.sol\":3221:3288  uint256 vestedPeriods = elapsedSinceCliff.div(schedule.slicePeriod) */\n      swap1\n      pop\n        /* \"vesting_tokens_sushmita.sol\":3322:3341  totalVestingPeriods */\n      dup2\n        /* \"vesting_tokens_sushmita.sol\":3305:3318  vestedPeriods */\n      dup2\n        /* \"vesting_tokens_sushmita.sol\":3305:3341  vestedPeriods >= totalVestingPeriods */\n      lt\n        /* \"vesting_tokens_sushmita.sol\":3301:3397  if (vestedPeriods >= totalVestingPeriods) {... */\n      tag_73\n      jumpi\n        /* \"vesting_tokens_sushmita.sol\":3365:3373  schedule */\n      dup4\n        /* \"vesting_tokens_sushmita.sol\":3365:3385  schedule.totalAmount */\n      0x80\n      add\n      mload\n        /* \"vesting_tokens_sushmita.sol\":3358:3385  return schedule.totalAmount */\n      swap5\n      pop\n      pop\n      pop\n      pop\n      pop\n      jump(tag_63)\n        /* \"vesting_tokens_sushmita.sol\":3301:3397  if (vestedPeriods >= totalVestingPeriods) {... */\n    tag_73:\n        /* \"vesting_tokens_sushmita.sol\":3409:3429  uint256 vestingSlice */\n      0x00\n        /* \"vesting_tokens_sushmita.sol\":3432:3477  schedule.totalAmount.div(totalVestingPeriods) */\n      tag_74\n        /* \"vesting_tokens_sushmita.sol\":3457:3476  totalVestingPeriods */\n      dup4\n        /* \"vesting_tokens_sushmita.sol\":3432:3440  schedule */\n      dup7\n        /* \"vesting_tokens_sushmita.sol\":3432:3452  schedule.totalAmount */\n      0x80\n      add\n      mload\n        /* \"vesting_tokens_sushmita.sol\":3432:3456  schedule.totalAmount.div */\n      tag_71\n      swap1\n        /* \"vesting_tokens_sushmita.sol\":3432:3477  schedule.totalAmount.div(totalVestingPeriods) */\n      swap2\n      swap1\n      0xffffffff\n      and\n      jump\t// in\n    tag_74:\n        /* \"vesting_tokens_sushmita.sol\":3409:3477  uint256 vestingSlice = schedule.totalAmount.div(totalVestingPeriods) */\n      swap1\n      pop\n        /* \"vesting_tokens_sushmita.sol\":3495:3526  vestingSlice.mul(vestedPeriods) */\n      tag_75\n        /* \"vesting_tokens_sushmita.sol\":3512:3525  vestedPeriods */\n      dup3\n        /* \"vesting_tokens_sushmita.sol\":3495:3507  vestingSlice */\n      dup3\n        /* \"vesting_tokens_sushmita.sol\":3495:3511  vestingSlice.mul */\n      tag_76\n      swap1\n        /* \"vesting_tokens_sushmita.sol\":3495:3526  vestingSlice.mul(vestedPeriods) */\n      swap2\n      swap1\n      0xffffffff\n      and\n      jump\t// in\n    tag_75:\n        /* \"vesting_tokens_sushmita.sol\":3488:3526  return vestingSlice.mul(vestedPeriods) */\n      swap6\n      pop\n      pop\n      pop\n      pop\n      pop\n      pop\n        /* \"vesting_tokens_sushmita.sol\":2623:3534  function calculateReleasableTokens(address beneficiary)... */\n    tag_63:\n      swap2\n      swap1\n      pop\n      jump\t// out\n        /* \"vesting_tokens_sushmita.sol\":246:266  address public owner */\n    tag_27:\n      0x00\n      dup1\n      sload\n      swap1\n      0x0100\n      exp\n      swap1\n      div\n      0xffffffffffffffffffffffffffffffffffffffff\n      and\n      dup2\n      jump\t// out\n        /* \"vesting_tokens_sushmita.sol\":3542:4207  function releaseTokens() external {... */\n    tag_31:\n        /* \"vesting_tokens_sushmita.sol\":3587:3619  VestingSchedule storage schedule */\n      0x00\n        /* \"vesting_tokens_sushmita.sol\":3622:3638  vestingSchedules */\n      0x02\n        /* \"vesting_tokens_sushmita.sol\":3622:3650  vestingSchedules[msg.sender] */\n      0x00\n        /* \"vesting_tokens_sushmita.sol\":3639:3649  msg.sender */\n      caller\n        /* \"vesting_tokens_sushmita.sol\":3622:3650  vestingSchedules[msg.sender] */\n      0xffffffffffffffffffffffffffffffffffffffff\n      and\n      0xffffffffffffffffffffffffffffffffffffffff\n      and\n      dup2\n      mstore\n      0x20\n      add\n      swap1\n      dup2\n      mstore\n      0x20\n      add\n      0x00\n      keccak256\n        /* \"vesting_tokens_sushmita.sol\":3587:3650  VestingSchedule storage schedule = vestingSchedules[msg.sender] */\n      swap1\n      pop\n        /* \"vesting_tokens_sushmita.sol\":3690:3691  0 */\n      0x00\n        /* \"vesting_tokens_sushmita.sol\":3669:3677  schedule */\n      dup2\n        /* \"vesting_tokens_sushmita.sol\":3669:3687  schedule.startTime */\n      0x00\n      add\n      sload\n        /* \"vesting_tokens_sushmita.sol\":3669:3691  schedule.startTime > 0 */\n      gt\n        /* \"vesting_tokens_sushmita.sol\":3661:3742  require(schedule.startTime > 0, \"No vesting schedule found [in releaseTokens()]\") */\n      tag_78\n      jumpi\n      mload(0x40)\n      0x08c379a000000000000000000000000000000000000000000000000000000000\n      dup2\n      mstore\n      0x04\n      add\n      tag_79\n      swap1\n      tag_80\n      jump\t// in\n    tag_79:\n      mload(0x40)\n      dup1\n      swap2\n      sub\n      swap1\n      revert\n    tag_78:\n        /* \"vesting_tokens_sushmita.sol\":3762:3770  schedule */\n      dup1\n        /* \"vesting_tokens_sushmita.sol\":3762:3778  schedule.revoked */\n      0x07\n      add\n      0x00\n      swap1\n      sload\n      swap1\n      0x0100\n      exp\n      swap1\n      div\n      0xff\n      and\n        /* \"vesting_tokens_sushmita.sol\":3761:3778  !schedule.revoked */\n      iszero\n        /* \"vesting_tokens_sushmita.sol\":3753:3828  require(!schedule.revoked, \"Vesting schedule revoked [in releaseTokens()]\") */\n      tag_81\n      jumpi\n      mload(0x40)\n      0x08c379a000000000000000000000000000000000000000000000000000000000\n      dup2\n      mstore\n      0x04\n      add\n      tag_82\n      swap1\n      tag_83\n      jump\t// in\n    tag_82:\n      mload(0x40)\n      dup1\n      swap2\n      sub\n      swap1\n      revert\n    tag_81:\n        /* \"vesting_tokens_sushmita.sol\":3841:3865  uint256 releasableAmount */\n      0x00\n        /* \"vesting_tokens_sushmita.sol\":3868:3905  calculateReleasableTokens(msg.sender) */\n      tag_84\n        /* \"vesting_tokens_sushmita.sol\":3894:3904  msg.sender */\n      caller\n        /* \"vesting_tokens_sushmita.sol\":3868:3893  calculateReleasableTokens */\n      tag_24\n        /* \"vesting_tokens_sushmita.sol\":3868:3905  calculateReleasableTokens(msg.sender) */\n      jump\t// in\n    tag_84:\n        /* \"vesting_tokens_sushmita.sol\":3841:3905  uint256 releasableAmount = calculateReleasableTokens(msg.sender) */\n      swap1\n      pop\n        /* \"vesting_tokens_sushmita.sol\":3943:3944  0 */\n      0x00\n        /* \"vesting_tokens_sushmita.sol\":3924:3940  releasableAmount */\n      dup2\n        /* \"vesting_tokens_sushmita.sol\":3924:3944  releasableAmount > 0 */\n      gt\n        /* \"vesting_tokens_sushmita.sol\":3916:4000  require(releasableAmount > 0, \"No tokens are currently vested [in releaseTokens()]\") */\n      tag_85\n      jumpi\n      mload(0x40)\n      0x08c379a000000000000000000000000000000000000000000000000000000000\n      dup2\n      mstore\n      0x04\n      add\n      tag_86\n      swap1\n      tag_87\n      jump\t// in\n    tag_86:\n      mload(0x40)\n      dup1\n      swap2\n      sub\n      swap1\n      revert\n    tag_85:\n        /* \"vesting_tokens_sushmita.sol\":4037:4080  schedule.vestedTokens.add(releasableAmount) */\n      tag_88\n        /* \"vesting_tokens_sushmita.sol\":4063:4079  releasableAmount */\n      dup2\n        /* \"vesting_tokens_sushmita.sol\":4037:4045  schedule */\n      dup4\n        /* \"vesting_tokens_sushmita.sol\":4037:4058  schedule.vestedTokens */\n      0x06\n      add\n      sload\n        /* \"vesting_tokens_sushmita.sol\":4037:4062  schedule.vestedTokens.add */\n      tag_65\n      swap1\n        /* \"vesting_tokens_sushmita.sol\":4037:4080  schedule.vestedTokens.add(releasableAmount) */\n      swap2\n      swap1\n      0xffffffff\n      and\n      jump\t// in\n    tag_88:\n        /* \"vesting_tokens_sushmita.sol\":4013:4021  schedule */\n      dup3\n        /* \"vesting_tokens_sushmita.sol\":4013:4034  schedule.vestedTokens */\n      0x06\n      add\n        /* \"vesting_tokens_sushmita.sol\":4013:4080  schedule.vestedTokens = schedule.vestedTokens.add(releasableAmount) */\n      dup2\n      swap1\n      sstore\n      pop\n        /* \"vesting_tokens_sushmita.sol\":4093:4098  token */\n      0x01\n      0x00\n      swap1\n      sload\n      swap1\n      0x0100\n      exp\n      swap1\n      div\n      0xffffffffffffffffffffffffffffffffffffffff\n      and\n        /* \"vesting_tokens_sushmita.sol\":4093:4107  token.transfer */\n      0xffffffffffffffffffffffffffffffffffffffff\n      and\n      0xa9059cbb\n        /* \"vesting_tokens_sushmita.sol\":4108:4118  msg.sender */\n      caller\n        /* \"vesting_tokens_sushmita.sol\":4120:4136  releasableAmount */\n      dup4\n        /* \"vesting_tokens_sushmita.sol\":4093:4137  token.transfer(msg.sender, releasableAmount) */\n      mload(0x40)\n      dup4\n      0xffffffff\n      and\n      0xe0\n      shl\n      dup2\n      mstore\n      0x04\n      add\n      tag_89\n      swap3\n      swap2\n      swap1\n      tag_90\n      jump\t// in\n    tag_89:\n      0x20\n      mload(0x40)\n      dup1\n      dup4\n      sub\n      dup2\n      0x00\n      dup8\n      gas\n      call\n      iszero\n      dup1\n      iszero\n      tag_92\n      jumpi\n      returndatasize\n      0x00\n      dup1\n      returndatacopy\n      revert(0x00, returndatasize)\n    tag_92:\n      pop\n      pop\n      pop\n      pop\n      mload(0x40)\n      returndatasize\n      not(0x1f)\n      0x1f\n      dup3\n      add\n      and\n      dup3\n      add\n      dup1\n      0x40\n      mstore\n      pop\n      dup2\n      add\n      swap1\n      tag_93\n      swap2\n      swap1\n      tag_94\n      jump\t// in\n    tag_93:\n      pop\n        /* \"vesting_tokens_sushmita.sol\":4170:4180  msg.sender */\n      caller\n        /* \"vesting_tokens_sushmita.sol\":4155:4199  TokensReleased(msg.sender, releasableAmount) */\n      0xffffffffffffffffffffffffffffffffffffffff\n      and\n      0xc7798891864187665ac6dd119286e44ec13f014527aeeb2b8eb3fd413df93179\n        /* \"vesting_tokens_sushmita.sol\":4182:4198  releasableAmount */\n      dup3\n        /* \"vesting_tokens_sushmita.sol\":4155:4199  TokensReleased(msg.sender, releasableAmount) */\n      mload(0x40)\n      tag_95\n      swap2\n      swap1\n      tag_20\n      jump\t// in\n    tag_95:\n      mload(0x40)\n      dup1\n      swap2\n      sub\n      swap1\n      log2\n        /* \"vesting_tokens_sushmita.sol\":3576:4207  {... */\n      pop\n      pop\n        /* \"vesting_tokens_sushmita.sol\":3542:4207  function releaseTokens() external {... */\n      jump\t// out\n        /* \"vesting_tokens_sushmita.sol\":4215:4863  function revokeVestingSchedule(address beneficiary) external onlyOwner {... */\n    tag_34:\n        /* \"vesting_tokens_sushmita.sol\":1087:1092  owner */\n      0x00\n      dup1\n      sload\n      swap1\n      0x0100\n      exp\n      swap1\n      div\n      0xffffffffffffffffffffffffffffffffffffffff\n      and\n        /* \"vesting_tokens_sushmita.sol\":1073:1092  msg.sender == owner */\n      0xffffffffffffffffffffffffffffffffffffffff\n      and\n        /* \"vesting_tokens_sushmita.sol\":1073:1083  msg.sender */\n      caller\n        /* \"vesting_tokens_sushmita.sol\":1073:1092  msg.sender == owner */\n      0xffffffffffffffffffffffffffffffffffffffff\n      and\n      eq\n        /* \"vesting_tokens_sushmita.sol\":1065:1110  require(msg.sender == owner, \"Not the owner\") */\n      tag_97\n      jumpi\n      mload(0x40)\n      0x08c379a000000000000000000000000000000000000000000000000000000000\n      dup2\n      mstore\n      0x04\n      add\n      tag_98\n      swap1\n      tag_51\n      jump\t// in\n    tag_98:\n      mload(0x40)\n      dup1\n      swap2\n      sub\n      swap1\n      revert\n    tag_97:\n        /* \"vesting_tokens_sushmita.sol\":4297:4329  VestingSchedule storage schedule */\n      0x00\n        /* \"vesting_tokens_sushmita.sol\":4332:4348  vestingSchedules */\n      0x02\n        /* \"vesting_tokens_sushmita.sol\":4332:4361  vestingSchedules[beneficiary] */\n      0x00\n        /* \"vesting_tokens_sushmita.sol\":4349:4360  beneficiary */\n      dup4\n        /* \"vesting_tokens_sushmita.sol\":4332:4361  vestingSchedules[beneficiary] */\n      0xffffffffffffffffffffffffffffffffffffffff\n      and\n      0xffffffffffffffffffffffffffffffffffffffff\n      and\n      dup2\n      mstore\n      0x20\n      add\n      swap1\n      dup2\n      mstore\n      0x20\n      add\n      0x00\n      keccak256\n        /* \"vesting_tokens_sushmita.sol\":4297:4361  VestingSchedule storage schedule = vestingSchedules[beneficiary] */\n      swap1\n      pop\n        /* \"vesting_tokens_sushmita.sol\":4380:4388  schedule */\n      dup1\n        /* \"vesting_tokens_sushmita.sol\":4380:4398  schedule.revocable */\n      0x05\n      add\n      0x00\n      swap1\n      sload\n      swap1\n      0x0100\n      exp\n      swap1\n      div\n      0xff\n      and\n        /* \"vesting_tokens_sushmita.sol\":4372:4462  require(schedule.revocable, \"Vesting schedule not revocable [in revokeVestingSchedule()]\") */\n      tag_100\n      jumpi\n      mload(0x40)\n      0x08c379a000000000000000000000000000000000000000000000000000000000\n      dup2\n      mstore\n      0x04\n      add\n      tag_101\n      swap1\n      tag_102\n      jump\t// in\n    tag_101:\n      mload(0x40)\n      dup1\n      swap2\n      sub\n      swap1\n      revert\n    tag_100:\n        /* \"vesting_tokens_sushmita.sol\":4482:4490  schedule */\n      dup1\n        /* \"vesting_tokens_sushmita.sol\":4482:4498  schedule.revoked */\n      0x07\n      add\n      0x00\n      swap1\n      sload\n      swap1\n      0x0100\n      exp\n      swap1\n      div\n      0xff\n      and\n        /* \"vesting_tokens_sushmita.sol\":4481:4498  !schedule.revoked */\n      iszero\n        /* \"vesting_tokens_sushmita.sol\":4473:4564  require(!schedule.revoked, \"Vesting schedule already revoked [in revokeVestingSchedule()]\") */\n      tag_103\n      jumpi\n      mload(0x40)\n      0x08c379a000000000000000000000000000000000000000000000000000000000\n      dup2\n      mstore\n      0x04\n      add\n      tag_104\n      swap1\n      tag_105\n      jump\t// in\n    tag_104:\n      mload(0x40)\n      dup1\n      swap2\n      sub\n      swap1\n      revert\n    tag_103:\n        /* \"vesting_tokens_sushmita.sol\":4596:4600  true */\n      0x01\n        /* \"vesting_tokens_sushmita.sol\":4577:4585  schedule */\n      dup2\n        /* \"vesting_tokens_sushmita.sol\":4577:4593  schedule.revoked */\n      0x07\n      add\n      0x00\n        /* \"vesting_tokens_sushmita.sol\":4577:4600  schedule.revoked = true */\n      0x0100\n      exp\n      dup2\n      sload\n      dup2\n      0xff\n      mul\n      not\n      and\n      swap1\n      dup4\n      iszero\n      iszero\n      mul\n      or\n      swap1\n      sstore\n      pop\n        /* \"vesting_tokens_sushmita.sol\":4613:4636  uint256 remainingTokens */\n      0x00\n        /* \"vesting_tokens_sushmita.sol\":4639:4710  schedule.totalAmount.sub(... */\n      tag_106\n        /* \"vesting_tokens_sushmita.sol\":4678:4686  schedule */\n      dup3\n        /* \"vesting_tokens_sushmita.sol\":4678:4699  schedule.vestedTokens */\n      0x06\n      add\n      sload\n        /* \"vesting_tokens_sushmita.sol\":4639:4647  schedule */\n      dup4\n        /* \"vesting_tokens_sushmita.sol\":4639:4659  schedule.totalAmount */\n      0x04\n      add\n      sload\n        /* \"vesting_tokens_sushmita.sol\":4639:4663  schedule.totalAmount.sub */\n      tag_69\n      swap1\n        /* \"vesting_tokens_sushmita.sol\":4639:4710  schedule.totalAmount.sub(... */\n      swap2\n      swap1\n      0xffffffff\n      and\n      jump\t// in\n    tag_106:\n        /* \"vesting_tokens_sushmita.sol\":4613:4710  uint256 remainingTokens = schedule.totalAmount.sub(... */\n      swap1\n      pop\n        /* \"vesting_tokens_sushmita.sol\":4743:4744  0 */\n      0x00\n        /* \"vesting_tokens_sushmita.sol\":4725:4740  remainingTokens */\n      dup2\n        /* \"vesting_tokens_sushmita.sol\":4725:4744  remainingTokens > 0 */\n      gt\n        /* \"vesting_tokens_sushmita.sol\":4721:4811  if (remainingTokens > 0) {... */\n      iszero\n      tag_107\n      jumpi\n        /* \"vesting_tokens_sushmita.sol\":4761:4766  token */\n      0x01\n      0x00\n      swap1\n      sload\n      swap1\n      0x0100\n      exp\n      swap1\n      div\n      0xffffffffffffffffffffffffffffffffffffffff\n      and\n        /* \"vesting_tokens_sushmita.sol\":4761:4775  token.transfer */\n      0xffffffffffffffffffffffffffffffffffffffff\n      and\n      0xa9059cbb\n        /* \"vesting_tokens_sushmita.sol\":4776:4781  owner */\n      0x00\n      dup1\n      sload\n      swap1\n      0x0100\n      exp\n      swap1\n      div\n      0xffffffffffffffffffffffffffffffffffffffff\n      and\n        /* \"vesting_tokens_sushmita.sol\":4783:4798  remainingTokens */\n      dup4\n        /* \"vesting_tokens_sushmita.sol\":4761:4799  token.transfer(owner, remainingTokens) */\n      mload(0x40)\n      dup4\n      0xffffffff\n      and\n      0xe0\n      shl\n      dup2\n      mstore\n      0x04\n      add\n      tag_108\n      swap3\n      swap2\n      swap1\n      tag_90\n      jump\t// in\n    tag_108:\n      0x20\n      mload(0x40)\n      dup1\n      dup4\n      sub\n      dup2\n      0x00\n      dup8\n      gas\n      call\n      iszero\n      dup1\n      iszero\n      tag_110\n      jumpi\n      returndatasize\n      0x00\n      dup1\n      returndatacopy\n      revert(0x00, returndatasize)\n    tag_110:\n      pop\n      pop\n      pop\n      pop\n      mload(0x40)\n      returndatasize\n      not(0x1f)\n      0x1f\n      dup3\n      add\n      and\n      dup3\n      add\n      dup1\n      0x40\n      mstore\n      pop\n      dup2\n      add\n      swap1\n      tag_111\n      swap2\n      swap1\n      tag_94\n      jump\t// in\n    tag_111:\n      pop\n        /* \"vesting_tokens_sushmita.sol\":4721:4811  if (remainingTokens > 0) {... */\n    tag_107:\n        /* \"vesting_tokens_sushmita.sol\":4843:4854  beneficiary */\n      dup3\n        /* \"vesting_tokens_sushmita.sol\":4828:4855  VestingRevoked(beneficiary) */\n      0xffffffffffffffffffffffffffffffffffffffff\n      and\n      0x68d870ac0aff3819234e8a1fc8f357b40d75212f2dc8594b97690fa205b3bab2\n      mload(0x40)\n      mload(0x40)\n      dup1\n      swap2\n      sub\n      swap1\n      log2\n        /* \"vesting_tokens_sushmita.sol\":4286:4863  {... */\n      pop\n      pop\n        /* \"vesting_tokens_sushmita.sol\":4215:4863  function revokeVestingSchedule(address beneficiary) external onlyOwner {... */\n      pop\n      jump\t// out\n        /* \"vesting_tokens_sushmita.sol\":4969:5094  function getBalance(address beneficiary) view external returns(uint256){... */\n    tag_37:\n        /* \"vesting_tokens_sushmita.sol\":5032:5039  uint256 */\n      0x00\n        /* \"vesting_tokens_sushmita.sol\":5058:5063  token */\n      0x01\n      0x00\n      swap1\n      sload\n      swap1\n      0x0100\n      exp\n      swap1\n      div\n      0xffffffffffffffffffffffffffffffffffffffff\n      and\n        /* \"vesting_tokens_sushmita.sol\":5058:5073  token.balanceOf */\n      0xffffffffffffffffffffffffffffffffffffffff\n      and\n      0x70a08231\n        /* \"vesting_tokens_sushmita.sol\":5074:5085  beneficiary */\n      dup4\n        /* \"vesting_tokens_sushmita.sol\":5058:5086  token.balanceOf(beneficiary) */\n      mload(0x40)\n      dup3\n      0xffffffff\n      and\n      0xe0\n      shl\n      dup2\n      mstore\n      0x04\n      add\n      tag_113\n      swap2\n      swap1\n      tag_29\n      jump\t// in\n    tag_113:\n      0x20\n      mload(0x40)\n      dup1\n      dup4\n      sub\n      dup2\n      dup7\n      gas\n      staticcall\n      iszero\n      dup1\n      iszero\n      tag_115\n      jumpi\n      returndatasize\n      0x00\n      dup1\n      returndatacopy\n      revert(0x00, returndatasize)\n    tag_115:\n      pop\n      pop\n      pop\n      pop\n      mload(0x40)\n      returndatasize\n      not(0x1f)\n      0x1f\n      dup3\n      add\n      and\n      dup3\n      add\n      dup1\n      0x40\n      mstore\n      pop\n      dup2\n      add\n      swap1\n      tag_116\n      swap2\n      swap1\n      tag_117\n      jump\t// in\n    tag_116:\n        /* \"vesting_tokens_sushmita.sol\":5051:5086  return token.balanceOf(beneficiary) */\n      swap1\n      pop\n        /* \"vesting_tokens_sushmita.sol\":4969:5094  function getBalance(address beneficiary) view external returns(uint256){... */\n      swap2\n      swap1\n      pop\n      jump\t// out\n        /* \"vesting_tokens_sushmita.sol\":273:291  ERC20 public token */\n    tag_40:\n      0x01\n      0x00\n      swap1\n      sload\n      swap1\n      0x0100\n      exp\n      swap1\n      div\n      0xffffffffffffffffffffffffffffffffffffffff\n      and\n      dup2\n      jump\t// out\n        /* \"vesting_tokens_sushmita.sol\":572:631  mapping(address => VestingSchedule) public vestingSchedules */\n    tag_45:\n      mstore(0x20, 0x02)\n      dup1\n      0x00\n      mstore\n      keccak256(0x00, 0x40)\n      0x00\n      swap2\n      pop\n      swap1\n      pop\n      dup1\n      0x00\n      add\n      sload\n      swap1\n      dup1\n      0x01\n      add\n      sload\n      swap1\n      dup1\n      0x02\n      add\n      sload\n      swap1\n      dup1\n      0x03\n      add\n      sload\n      swap1\n      dup1\n      0x04\n      add\n      sload\n      swap1\n      dup1\n      0x05\n      add\n      0x00\n      swap1\n      sload\n      swap1\n      0x0100\n      exp\n      swap1\n      div\n      0xff\n      and\n      swap1\n      dup1\n      0x06\n      add\n      sload\n      swap1\n      dup1\n      0x07\n      add\n      0x00\n      swap1\n      sload\n      swap1\n      0x0100\n      exp\n      swap1\n      div\n      0xff\n      and\n      swap1\n      pop\n      dup9\n      jump\t// out\n        /* \"@openzeppelin/contracts/utils/math/SafeMath.sol\":2755:2851  function add(uint256 a, uint256 b) internal pure returns (uint256) {... */\n    tag_65:\n        /* \"@openzeppelin/contracts/utils/math/SafeMath.sol\":2813:2820  uint256 */\n      0x00\n        /* \"@openzeppelin/contracts/utils/math/SafeMath.sol\":2843:2844  b */\n      dup2\n        /* \"@openzeppelin/contracts/utils/math/SafeMath.sol\":2839:2840  a */\n      dup4\n        /* \"@openzeppelin/contracts/utils/math/SafeMath.sol\":2839:2844  a + b */\n      tag_119\n      swap2\n      swap1\n      tag_120\n      jump\t// in\n    tag_119:\n        /* \"@openzeppelin/contracts/utils/math/SafeMath.sol\":2832:2844  return a + b */\n      swap1\n      pop\n        /* \"@openzeppelin/contracts/utils/math/SafeMath.sol\":2755:2851  function add(uint256 a, uint256 b) internal pure returns (uint256) {... */\n      swap3\n      swap2\n      pop\n      pop\n      jump\t// out\n        /* \"@openzeppelin/contracts/utils/math/SafeMath.sol\":3122:3218  function sub(uint256 a, uint256 b) internal pure returns (uint256) {... */\n    tag_69:\n        /* \"@openzeppelin/contracts/utils/math/SafeMath.sol\":3180:3187  uint256 */\n      0x00\n        /* \"@openzeppelin/contracts/utils/math/SafeMath.sol\":3210:3211  b */\n      dup2\n        /* \"@openzeppelin/contracts/utils/math/SafeMath.sol\":3206:3207  a */\n      dup4\n        /* \"@openzeppelin/contracts/utils/math/SafeMath.sol\":3206:3211  a - b */\n      tag_122\n      swap2\n      swap1\n      tag_123\n      jump\t// in\n    tag_122:\n        /* \"@openzeppelin/contracts/utils/math/SafeMath.sol\":3199:3211  return a - b */\n      swap1\n      pop\n        /* \"@openzeppelin/contracts/utils/math/SafeMath.sol\":3122:3218  function sub(uint256 a, uint256 b) internal pure returns (uint256) {... */\n      swap3\n      swap2\n      pop\n      pop\n      jump\t// out\n        /* \"@openzeppelin/contracts/utils/math/SafeMath.sol\":3850:3946  function div(uint256 a, uint256 b) internal pure returns (uint256) {... */\n    tag_71:\n        /* \"@openzeppelin/contracts/utils/math/SafeMath.sol\":3908:3915  uint256 */\n      0x00\n        /* \"@openzeppelin/contracts/utils/math/SafeMath.sol\":3938:3939  b */\n      dup2\n        /* \"@openzeppelin/contracts/utils/math/SafeMath.sol\":3934:3935  a */\n      dup4\n        /* \"@openzeppelin/contracts/utils/math/SafeMath.sol\":3934:3939  a / b */\n      tag_125\n      swap2\n      swap1\n      tag_126\n      jump\t// in\n    tag_125:\n        /* \"@openzeppelin/contracts/utils/math/SafeMath.sol\":3927:3939  return a / b */\n      swap1\n      pop\n        /* \"@openzeppelin/contracts/utils/math/SafeMath.sol\":3850:3946  function div(uint256 a, uint256 b) internal pure returns (uint256) {... */\n      swap3\n      swap2\n      pop\n      pop\n      jump\t// out\n        /* \"@openzeppelin/contracts/utils/math/SafeMath.sol\":3465:3561  function mul(uint256 a, uint256 b) internal pure returns (uint256) {... */\n    tag_76:\n        /* \"@openzeppelin/contracts/utils/math/SafeMath.sol\":3523:3530  uint256 */\n      0x00\n        /* \"@openzeppelin/contracts/utils/math/SafeMath.sol\":3553:3554  b */\n      dup2\n        /* \"@openzeppelin/contracts/utils/math/SafeMath.sol\":3549:3550  a */\n      dup4\n        /* \"@openzeppelin/contracts/utils/math/SafeMath.sol\":3549:3554  a * b */\n      tag_128\n      swap2\n      swap1\n      tag_129\n      jump\t// in\n    tag_128:\n        /* \"@openzeppelin/contracts/utils/math/SafeMath.sol\":3542:3554  return a * b */\n      swap1\n      pop\n        /* \"@openzeppelin/contracts/utils/math/SafeMath.sol\":3465:3561  function mul(uint256 a, uint256 b) internal pure returns (uint256) {... */\n      swap3\n      swap2\n      pop\n      pop\n      jump\t// out\n        /* \"#utility.yul\":88:205   */\n    tag_131:\n        /* \"#utility.yul\":197:198   */\n      0x00\n        /* \"#utility.yul\":194:195   */\n      dup1\n        /* \"#utility.yul\":187:199   */\n      revert\n        /* \"#utility.yul\":334:460   */\n    tag_133:\n        /* \"#utility.yul\":371:378   */\n      0x00\n        /* \"#utility.yul\":411:453   */\n      0xffffffffffffffffffffffffffffffffffffffff\n        /* \"#utility.yul\":404:409   */\n      dup3\n        /* \"#utility.yul\":400:454   */\n      and\n        /* \"#utility.yul\":389:454   */\n      swap1\n      pop\n        /* \"#utility.yul\":334:460   */\n      swap2\n      swap1\n      pop\n      jump\t// out\n        /* \"#utility.yul\":466:562   */\n    tag_134:\n        /* \"#utility.yul\":503:510   */\n      0x00\n        /* \"#utility.yul\":532:556   */\n      tag_178\n        /* \"#utility.yul\":550:555   */\n      dup3\n        /* \"#utility.yul\":532:556   */\n      tag_133\n      jump\t// in\n    tag_178:\n        /* \"#utility.yul\":521:556   */\n      swap1\n      pop\n        /* \"#utility.yul\":466:562   */\n      swap2\n      swap1\n      pop\n      jump\t// out\n        /* \"#utility.yul\":568:690   */\n    tag_135:\n        /* \"#utility.yul\":641:665   */\n      tag_180\n        /* \"#utility.yul\":659:664   */\n      dup2\n        /* \"#utility.yul\":641:665   */\n      tag_134\n      jump\t// in\n    tag_180:\n        /* \"#utility.yul\":634:639   */\n      dup2\n        /* \"#utility.yul\":631:666   */\n      eq\n        /* \"#utility.yul\":621:684   */\n      tag_181\n      jumpi\n        /* \"#utility.yul\":680:681   */\n      0x00\n        /* \"#utility.yul\":677:678   */\n      dup1\n        /* \"#utility.yul\":670:682   */\n      revert\n        /* \"#utility.yul\":621:684   */\n    tag_181:\n        /* \"#utility.yul\":568:690   */\n      pop\n      jump\t// out\n        /* \"#utility.yul\":696:835   */\n    tag_136:\n        /* \"#utility.yul\":742:747   */\n      0x00\n        /* \"#utility.yul\":780:786   */\n      dup2\n        /* \"#utility.yul\":767:787   */\n      calldataload\n        /* \"#utility.yul\":758:787   */\n      swap1\n      pop\n        /* \"#utility.yul\":796:829   */\n      tag_183\n        /* \"#utility.yul\":823:828   */\n      dup2\n        /* \"#utility.yul\":796:829   */\n      tag_135\n      jump\t// in\n    tag_183:\n        /* \"#utility.yul\":696:835   */\n      swap3\n      swap2\n      pop\n      pop\n      jump\t// out\n        /* \"#utility.yul\":841:918   */\n    tag_137:\n        /* \"#utility.yul\":878:885   */\n      0x00\n        /* \"#utility.yul\":907:912   */\n      dup2\n        /* \"#utility.yul\":896:912   */\n      swap1\n      pop\n        /* \"#utility.yul\":841:918   */\n      swap2\n      swap1\n      pop\n      jump\t// out\n        /* \"#utility.yul\":924:1046   */\n    tag_138:\n        /* \"#utility.yul\":997:1021   */\n      tag_186\n        /* \"#utility.yul\":1015:1020   */\n      dup2\n        /* \"#utility.yul\":997:1021   */\n      tag_137\n      jump\t// in\n    tag_186:\n        /* \"#utility.yul\":990:995   */\n      dup2\n        /* \"#utility.yul\":987:1022   */\n      eq\n        /* \"#utility.yul\":977:1040   */\n      tag_187\n      jumpi\n        /* \"#utility.yul\":1036:1037   */\n      0x00\n        /* \"#utility.yul\":1033:1034   */\n      dup1\n        /* \"#utility.yul\":1026:1038   */\n      revert\n        /* \"#utility.yul\":977:1040   */\n    tag_187:\n        /* \"#utility.yul\":924:1046   */\n      pop\n      jump\t// out\n        /* \"#utility.yul\":1052:1191   */\n    tag_139:\n        /* \"#utility.yul\":1098:1103   */\n      0x00\n        /* \"#utility.yul\":1136:1142   */\n      dup2\n        /* \"#utility.yul\":1123:1143   */\n      calldataload\n        /* \"#utility.yul\":1114:1143   */\n      swap1\n      pop\n        /* \"#utility.yul\":1152:1185   */\n      tag_189\n        /* \"#utility.yul\":1179:1184   */\n      dup2\n        /* \"#utility.yul\":1152:1185   */\n      tag_138\n      jump\t// in\n    tag_189:\n        /* \"#utility.yul\":1052:1191   */\n      swap3\n      swap2\n      pop\n      pop\n      jump\t// out\n        /* \"#utility.yul\":1197:1287   */\n    tag_140:\n        /* \"#utility.yul\":1231:1238   */\n      0x00\n        /* \"#utility.yul\":1274:1279   */\n      dup2\n        /* \"#utility.yul\":1267:1280   */\n      iszero\n        /* \"#utility.yul\":1260:1281   */\n      iszero\n        /* \"#utility.yul\":1249:1281   */\n      swap1\n      pop\n        /* \"#utility.yul\":1197:1287   */\n      swap2\n      swap1\n      pop\n      jump\t// out\n        /* \"#utility.yul\":1293:1409   */\n    tag_141:\n        /* \"#utility.yul\":1363:1384   */\n      tag_192\n        /* \"#utility.yul\":1378:1383   */\n      dup2\n        /* \"#utility.yul\":1363:1384   */\n      tag_140\n      jump\t// in\n    tag_192:\n        /* \"#utility.yul\":1356:1361   */\n      dup2\n        /* \"#utility.yul\":1353:1385   */\n      eq\n        /* \"#utility.yul\":1343:1403   */\n      tag_193\n      jumpi\n        /* \"#utility.yul\":1399:1400   */\n      0x00\n        /* \"#utility.yul\":1396:1397   */\n      dup1\n        /* \"#utility.yul\":1389:1401   */\n      revert\n        /* \"#utility.yul\":1343:1403   */\n    tag_193:\n        /* \"#utility.yul\":1293:1409   */\n      pop\n      jump\t// out\n        /* \"#utility.yul\":1415:1548   */\n    tag_142:\n        /* \"#utility.yul\":1458:1463   */\n      0x00\n        /* \"#utility.yul\":1496:1502   */\n      dup2\n        /* \"#utility.yul\":1483:1503   */\n      calldataload\n        /* \"#utility.yul\":1474:1503   */\n      swap1\n      pop\n        /* \"#utility.yul\":1512:1542   */\n      tag_195\n        /* \"#utility.yul\":1536:1541   */\n      dup2\n        /* \"#utility.yul\":1512:1542   */\n      tag_141\n      jump\t// in\n    tag_195:\n        /* \"#utility.yul\":1415:1548   */\n      swap3\n      swap2\n      pop\n      pop\n      jump\t// out\n        /* \"#utility.yul\":1554:2751   */\n    tag_15:\n        /* \"#utility.yul\":1664:1670   */\n      0x00\n        /* \"#utility.yul\":1672:1678   */\n      dup1\n        /* \"#utility.yul\":1680:1686   */\n      0x00\n        /* \"#utility.yul\":1688:1694   */\n      dup1\n        /* \"#utility.yul\":1696:1702   */\n      0x00\n        /* \"#utility.yul\":1704:1710   */\n      dup1\n        /* \"#utility.yul\":1712:1718   */\n      0x00\n        /* \"#utility.yul\":1761:1764   */\n      0xe0\n        /* \"#utility.yul\":1749:1758   */\n      dup9\n        /* \"#utility.yul\":1740:1747   */\n      dup11\n        /* \"#utility.yul\":1736:1759   */\n      sub\n        /* \"#utility.yul\":1732:1765   */\n      slt\n        /* \"#utility.yul\":1729:1849   */\n      iszero\n      tag_197\n      jumpi\n        /* \"#utility.yul\":1768:1847   */\n      tag_198\n      tag_131\n      jump\t// in\n    tag_198:\n        /* \"#utility.yul\":1729:1849   */\n    tag_197:\n        /* \"#utility.yul\":1888:1889   */\n      0x00\n        /* \"#utility.yul\":1913:1966   */\n      tag_199\n        /* \"#utility.yul\":1958:1965   */\n      dup11\n        /* \"#utility.yul\":1949:1955   */\n      dup3\n        /* \"#utility.yul\":1938:1947   */\n      dup12\n        /* \"#utility.yul\":1934:1956   */\n      add\n        /* \"#utility.yul\":1913:1966   */\n      tag_136\n      jump\t// in\n    tag_199:\n        /* \"#utility.yul\":1903:1966   */\n      swap8\n      pop\n        /* \"#utility.yul\":1859:1976   */\n      pop\n        /* \"#utility.yul\":2015:2017   */\n      0x20\n        /* \"#utility.yul\":2041:2094   */\n      tag_200\n        /* \"#utility.yul\":2086:2093   */\n      dup11\n        /* \"#utility.yul\":2077:2083   */\n      dup3\n        /* \"#utility.yul\":2066:2075   */\n      dup12\n        /* \"#utility.yul\":2062:2084   */\n      add\n        /* \"#utility.yul\":2041:2094   */\n      tag_139\n      jump\t// in\n    tag_200:\n        /* \"#utility.yul\":2031:2094   */\n      swap7\n      pop\n        /* \"#utility.yul\":1986:2104   */\n      pop\n        /* \"#utility.yul\":2143:2145   */\n      0x40\n        /* \"#utility.yul\":2169:2222   */\n      tag_201\n        /* \"#utility.yul\":2214:2221   */\n      dup11\n        /* \"#utility.yul\":2205:2211   */\n      dup3\n        /* \"#utility.yul\":2194:2203   */\n      dup12\n        /* \"#utility.yul\":2190:2212   */\n      add\n        /* \"#utility.yul\":2169:2222   */\n      tag_139\n      jump\t// in\n    tag_201:\n        /* \"#utility.yul\":2159:2222   */\n      swap6\n      pop\n        /* \"#utility.yul\":2114:2232   */\n      pop\n        /* \"#utility.yul\":2271:2273   */\n      0x60\n        /* \"#utility.yul\":2297:2350   */\n      tag_202\n        /* \"#utility.yul\":2342:2349   */\n      dup11\n        /* \"#utility.yul\":2333:2339   */\n      dup3\n        /* \"#utility.yul\":2322:2331   */\n      dup12\n        /* \"#utility.yul\":2318:2340   */\n      add\n        /* \"#utility.yul\":2297:2350   */\n      tag_139\n      jump\t// in\n    tag_202:\n        /* \"#utility.yul\":2287:2350   */\n      swap5\n      pop\n        /* \"#utility.yul\":2242:2360   */\n      pop\n        /* \"#utility.yul\":2399:2402   */\n      0x80\n        /* \"#utility.yul\":2426:2479   */\n      tag_203\n        /* \"#utility.yul\":2471:2478   */\n      dup11\n        /* \"#utility.yul\":2462:2468   */\n      dup3\n        /* \"#utility.yul\":2451:2460   */\n      dup12\n        /* \"#utility.yul\":2447:2469   */\n      add\n        /* \"#utility.yul\":2426:2479   */\n      tag_139\n      jump\t// in\n    tag_203:\n        /* \"#utility.yul\":2416:2479   */\n      swap4\n      pop\n        /* \"#utility.yul\":2370:2489   */\n      pop\n        /* \"#utility.yul\":2528:2531   */\n      0xa0\n        /* \"#utility.yul\":2555:2608   */\n      tag_204\n        /* \"#utility.yul\":2600:2607   */\n      dup11\n        /* \"#utility.yul\":2591:2597   */\n      dup3\n        /* \"#utility.yul\":2580:2589   */\n      dup12\n        /* \"#utility.yul\":2576:2598   */\n      add\n        /* \"#utility.yul\":2555:2608   */\n      tag_139\n      jump\t// in\n    tag_204:\n        /* \"#utility.yul\":2545:2608   */\n      swap3\n      pop\n        /* \"#utility.yul\":2499:2618   */\n      pop\n        /* \"#utility.yul\":2657:2660   */\n      0xc0\n        /* \"#utility.yul\":2684:2734   */\n      tag_205\n        /* \"#utility.yul\":2726:2733   */\n      dup11\n        /* \"#utility.yul\":2717:2723   */\n      dup3\n        /* \"#utility.yul\":2706:2715   */\n      dup12\n        /* \"#utility.yul\":2702:2724   */\n      add\n        /* \"#utility.yul\":2684:2734   */\n      tag_142\n      jump\t// in\n    tag_205:\n        /* \"#utility.yul\":2674:2734   */\n      swap2\n      pop\n        /* \"#utility.yul\":2628:2744   */\n      pop\n        /* \"#utility.yul\":1554:2751   */\n      swap3\n      swap6\n      swap9\n      swap2\n      swap5\n      swap8\n      pop\n      swap3\n      swap6\n      pop\n      jump\t// out\n        /* \"#utility.yul\":2757:2875   */\n    tag_143:\n        /* \"#utility.yul\":2844:2868   */\n      tag_207\n        /* \"#utility.yul\":2862:2867   */\n      dup2\n        /* \"#utility.yul\":2844:2868   */\n      tag_137\n      jump\t// in\n    tag_207:\n        /* \"#utility.yul\":2839:2842   */\n      dup3\n        /* \"#utility.yul\":2832:2869   */\n      mstore\n        /* \"#utility.yul\":2757:2875   */\n      pop\n      pop\n      jump\t// out\n        /* \"#utility.yul\":2881:3103   */\n    tag_20:\n        /* \"#utility.yul\":2974:2978   */\n      0x00\n        /* \"#utility.yul\":3012:3014   */\n      0x20\n        /* \"#utility.yul\":3001:3010   */\n      dup3\n        /* \"#utility.yul\":2997:3015   */\n      add\n        /* \"#utility.yul\":2989:3015   */\n      swap1\n      pop\n        /* \"#utility.yul\":3025:3096   */\n      tag_209\n        /* \"#utility.yul\":3093:3094   */\n      0x00\n        /* \"#utility.yul\":3082:3091   */\n      dup4\n        /* \"#utility.yul\":3078:3095   */\n      add\n        /* \"#utility.yul\":3069:3075   */\n      dup5\n        /* \"#utility.yul\":3025:3096   */\n      tag_143\n      jump\t// in\n    tag_209:\n        /* \"#utility.yul\":2881:3103   */\n      swap3\n      swap2\n      pop\n      pop\n      jump\t// out\n        /* \"#utility.yul\":3109:3438   */\n    tag_23:\n        /* \"#utility.yul\":3168:3174   */\n      0x00\n        /* \"#utility.yul\":3217:3219   */\n      0x20\n        /* \"#utility.yul\":3205:3214   */\n      dup3\n        /* \"#utility.yul\":3196:3203   */\n      dup5\n        /* \"#utility.yul\":3192:3215   */\n      sub\n        /* \"#utility.yul\":3188:3220   */\n      slt\n        /* \"#utility.yul\":3185:3304   */\n      iszero\n      tag_211\n      jumpi\n        /* \"#utility.yul\":3223:3302   */\n      tag_212\n      tag_131\n      jump\t// in\n    tag_212:\n        /* \"#utility.yul\":3185:3304   */\n    tag_211:\n        /* \"#utility.yul\":3343:3344   */\n      0x00\n        /* \"#utility.yul\":3368:3421   */\n      tag_213\n        /* \"#utility.yul\":3413:3420   */\n      dup5\n        /* \"#utility.yul\":3404:3410   */\n      dup3\n        /* \"#utility.yul\":3393:3402   */\n      dup6\n        /* \"#utility.yul\":3389:3411   */\n      add\n        /* \"#utility.yul\":3368:3421   */\n      tag_136\n      jump\t// in\n    tag_213:\n        /* \"#utility.yul\":3358:3421   */\n      swap2\n      pop\n        /* \"#utility.yul\":3314:3431   */\n      pop\n        /* \"#utility.yul\":3109:3438   */\n      swap3\n      swap2\n      pop\n      pop\n      jump\t// out\n        /* \"#utility.yul\":3444:3562   */\n    tag_144:\n        /* \"#utility.yul\":3531:3555   */\n      tag_215\n        /* \"#utility.yul\":3549:3554   */\n      dup2\n        /* \"#utility.yul\":3531:3555   */\n      tag_134\n      jump\t// in\n    tag_215:\n        /* \"#utility.yul\":3526:3529   */\n      dup3\n        /* \"#utility.yul\":3519:3556   */\n      mstore\n        /* \"#utility.yul\":3444:3562   */\n      pop\n      pop\n      jump\t// out\n        /* \"#utility.yul\":3568:3790   */\n    tag_29:\n        /* \"#utility.yul\":3661:3665   */\n      0x00\n        /* \"#utility.yul\":3699:3701   */\n      0x20\n        /* \"#utility.yul\":3688:3697   */\n      dup3\n        /* \"#utility.yul\":3684:3702   */\n      add\n        /* \"#utility.yul\":3676:3702   */\n      swap1\n      pop\n        /* \"#utility.yul\":3712:3783   */\n      tag_217\n        /* \"#utility.yul\":3780:3781   */\n      0x00\n        /* \"#utility.yul\":3769:3778   */\n      dup4\n        /* \"#utility.yul\":3765:3782   */\n      add\n        /* \"#utility.yul\":3756:3762   */\n      dup5\n        /* \"#utility.yul\":3712:3783   */\n      tag_144\n      jump\t// in\n    tag_217:\n        /* \"#utility.yul\":3568:3790   */\n      swap3\n      swap2\n      pop\n      pop\n      jump\t// out\n        /* \"#utility.yul\":3796:3856   */\n    tag_145:\n        /* \"#utility.yul\":3824:3827   */\n      0x00\n        /* \"#utility.yul\":3845:3850   */\n      dup2\n        /* \"#utility.yul\":3838:3850   */\n      swap1\n      pop\n        /* \"#utility.yul\":3796:3856   */\n      swap2\n      swap1\n      pop\n      jump\t// out\n        /* \"#utility.yul\":3862:4004   */\n    tag_146:\n        /* \"#utility.yul\":3912:3921   */\n      0x00\n        /* \"#utility.yul\":3945:3998   */\n      tag_220\n        /* \"#utility.yul\":3963:3997   */\n      tag_221\n        /* \"#utility.yul\":3972:3996   */\n      tag_222\n        /* \"#utility.yul\":3990:3995   */\n      dup5\n        /* \"#utility.yul\":3972:3996   */\n      tag_133\n      jump\t// in\n    tag_222:\n        /* \"#utility.yul\":3963:3997   */\n      tag_145\n      jump\t// in\n    tag_221:\n        /* \"#utility.yul\":3945:3998   */\n      tag_133\n      jump\t// in\n    tag_220:\n        /* \"#utility.yul\":3932:3998   */\n      swap1\n      pop\n        /* \"#utility.yul\":3862:4004   */\n      swap2\n      swap1\n      pop\n      jump\t// out\n        /* \"#utility.yul\":4010:4136   */\n    tag_147:\n        /* \"#utility.yul\":4060:4069   */\n      0x00\n        /* \"#utility.yul\":4093:4130   */\n      tag_224\n        /* \"#utility.yul\":4124:4129   */\n      dup3\n        /* \"#utility.yul\":4093:4130   */\n      tag_146\n      jump\t// in\n    tag_224:\n        /* \"#utility.yul\":4080:4130   */\n      swap1\n      pop\n        /* \"#utility.yul\":4010:4136   */\n      swap2\n      swap1\n      pop\n      jump\t// out\n        /* \"#utility.yul\":4142:4281   */\n    tag_148:\n        /* \"#utility.yul\":4205:4214   */\n      0x00\n        /* \"#utility.yul\":4238:4275   */\n      tag_226\n        /* \"#utility.yul\":4269:4274   */\n      dup3\n        /* \"#utility.yul\":4238:4275   */\n      tag_147\n      jump\t// in\n    tag_226:\n        /* \"#utility.yul\":4225:4275   */\n      swap1\n      pop\n        /* \"#utility.yul\":4142:4281   */\n      swap2\n      swap1\n      pop\n      jump\t// out\n        /* \"#utility.yul\":4287:4444   */\n    tag_149:\n        /* \"#utility.yul\":4387:4437   */\n      tag_228\n        /* \"#utility.yul\":4431:4436   */\n      dup2\n        /* \"#utility.yul\":4387:4437   */\n      tag_148\n      jump\t// in\n    tag_228:\n        /* \"#utility.yul\":4382:4385   */\n      dup3\n        /* \"#utility.yul\":4375:4438   */\n      mstore\n        /* \"#utility.yul\":4287:4444   */\n      pop\n      pop\n      jump\t// out\n        /* \"#utility.yul\":4450:4698   */\n    tag_42:\n        /* \"#utility.yul\":4556:4560   */\n      0x00\n        /* \"#utility.yul\":4594:4596   */\n      0x20\n        /* \"#utility.yul\":4583:4592   */\n      dup3\n        /* \"#utility.yul\":4579:4597   */\n      add\n        /* \"#utility.yul\":4571:4597   */\n      swap1\n      pop\n        /* \"#utility.yul\":4607:4691   */\n      tag_230\n        /* \"#utility.yul\":4688:4689   */\n      0x00\n        /* \"#utility.yul\":4677:4686   */\n      dup4\n        /* \"#utility.yul\":4673:4690   */\n      add\n        /* \"#utility.yul\":4664:4670   */\n      dup5\n        /* \"#utility.yul\":4607:4691   */\n      tag_149\n      jump\t// in\n    tag_230:\n        /* \"#utility.yul\":4450:4698   */\n      swap3\n      swap2\n      pop\n      pop\n      jump\t// out\n        /* \"#utility.yul\":4704:4813   */\n    tag_150:\n        /* \"#utility.yul\":4785:4806   */\n      tag_232\n        /* \"#utility.yul\":4800:4805   */\n      dup2\n        /* \"#utility.yul\":4785:4806   */\n      tag_140\n      jump\t// in\n    tag_232:\n        /* \"#utility.yul\":4780:4783   */\n      dup3\n        /* \"#utility.yul\":4773:4807   */\n      mstore\n        /* \"#utility.yul\":4704:4813   */\n      pop\n      pop\n      jump\t// out\n        /* \"#utility.yul\":4819:5792   */\n    tag_47:\n        /* \"#utility.yul\":5096:5100   */\n      0x00\n        /* \"#utility.yul\":5134:5137   */\n      0x0100\n        /* \"#utility.yul\":5123:5132   */\n      dup3\n        /* \"#utility.yul\":5119:5138   */\n      add\n        /* \"#utility.yul\":5111:5138   */\n      swap1\n      pop\n        /* \"#utility.yul\":5148:5219   */\n      tag_234\n        /* \"#utility.yul\":5216:5217   */\n      0x00\n        /* \"#utility.yul\":5205:5214   */\n      dup4\n        /* \"#utility.yul\":5201:5218   */\n      add\n        /* \"#utility.yul\":5192:5198   */\n      dup12\n        /* \"#utility.yul\":5148:5219   */\n      tag_143\n      jump\t// in\n    tag_234:\n        /* \"#utility.yul\":5229:5301   */\n      tag_235\n        /* \"#utility.yul\":5297:5299   */\n      0x20\n        /* \"#utility.yul\":5286:5295   */\n      dup4\n        /* \"#utility.yul\":5282:5300   */\n      add\n        /* \"#utility.yul\":5273:5279   */\n      dup11\n        /* \"#utility.yul\":5229:5301   */\n      tag_143\n      jump\t// in\n    tag_235:\n        /* \"#utility.yul\":5311:5383   */\n      tag_236\n        /* \"#utility.yul\":5379:5381   */\n      0x40\n        /* \"#utility.yul\":5368:5377   */\n      dup4\n        /* \"#utility.yul\":5364:5382   */\n      add\n        /* \"#utility.yul\":5355:5361   */\n      dup10\n        /* \"#utility.yul\":5311:5383   */\n      tag_143\n      jump\t// in\n    tag_236:\n        /* \"#utility.yul\":5393:5465   */\n      tag_237\n        /* \"#utility.yul\":5461:5463   */\n      0x60\n        /* \"#utility.yul\":5450:5459   */\n      dup4\n        /* \"#utility.yul\":5446:5464   */\n      add\n        /* \"#utility.yul\":5437:5443   */\n      dup9\n        /* \"#utility.yul\":5393:5465   */\n      tag_143\n      jump\t// in\n    tag_237:\n        /* \"#utility.yul\":5475:5548   */\n      tag_238\n        /* \"#utility.yul\":5543:5546   */\n      0x80\n        /* \"#utility.yul\":5532:5541   */\n      dup4\n        /* \"#utility.yul\":5528:5547   */\n      add\n        /* \"#utility.yul\":5519:5525   */\n      dup8\n        /* \"#utility.yul\":5475:5548   */\n      tag_143\n      jump\t// in\n    tag_238:\n        /* \"#utility.yul\":5558:5625   */\n      tag_239\n        /* \"#utility.yul\":5620:5623   */\n      0xa0\n        /* \"#utility.yul\":5609:5618   */\n      dup4\n        /* \"#utility.yul\":5605:5624   */\n      add\n        /* \"#utility.yul\":5596:5602   */\n      dup7\n        /* \"#utility.yul\":5558:5625   */\n      tag_150\n      jump\t// in\n    tag_239:\n        /* \"#utility.yul\":5635:5708   */\n      tag_240\n        /* \"#utility.yul\":5703:5706   */\n      0xc0\n        /* \"#utility.yul\":5692:5701   */\n      dup4\n        /* \"#utility.yul\":5688:5707   */\n      add\n        /* \"#utility.yul\":5679:5685   */\n      dup6\n        /* \"#utility.yul\":5635:5708   */\n      tag_143\n      jump\t// in\n    tag_240:\n        /* \"#utility.yul\":5718:5785   */\n      tag_241\n        /* \"#utility.yul\":5780:5783   */\n      0xe0\n        /* \"#utility.yul\":5769:5778   */\n      dup4\n        /* \"#utility.yul\":5765:5784   */\n      add\n        /* \"#utility.yul\":5756:5762   */\n      dup5\n        /* \"#utility.yul\":5718:5785   */\n      tag_150\n      jump\t// in\n    tag_241:\n        /* \"#utility.yul\":4819:5792   */\n      swap10\n      swap9\n      pop\n      pop\n      pop\n      pop\n      pop\n      pop\n      pop\n      pop\n      pop\n      jump\t// out\n        /* \"#utility.yul\":5798:5967   */\n    tag_151:\n        /* \"#utility.yul\":5882:5893   */\n      0x00\n        /* \"#utility.yul\":5916:5922   */\n      dup3\n        /* \"#utility.yul\":5911:5914   */\n      dup3\n        /* \"#utility.yul\":5904:5923   */\n      mstore\n        /* \"#utility.yul\":5956:5960   */\n      0x20\n        /* \"#utility.yul\":5951:5954   */\n      dup3\n        /* \"#utility.yul\":5947:5961   */\n      add\n        /* \"#utility.yul\":5932:5961   */\n      swap1\n      pop\n        /* \"#utility.yul\":5798:5967   */\n      swap3\n      swap2\n      pop\n      pop\n      jump\t// out\n        /* \"#utility.yul\":5973:6136   */\n    tag_152:\n        /* \"#utility.yul\":6113:6128   */\n      0x4e6f7420746865206f776e657200000000000000000000000000000000000000\n        /* \"#utility.yul\":6109:6110   */\n      0x00\n        /* \"#utility.yul\":6101:6107   */\n      dup3\n        /* \"#utility.yul\":6097:6111   */\n      add\n        /* \"#utility.yul\":6090:6129   */\n      mstore\n        /* \"#utility.yul\":5973:6136   */\n      pop\n      jump\t// out\n        /* \"#utility.yul\":6142:6508   */\n    tag_153:\n        /* \"#utility.yul\":6284:6287   */\n      0x00\n        /* \"#utility.yul\":6305:6372   */\n      tag_245\n        /* \"#utility.yul\":6369:6371   */\n      0x0d\n        /* \"#utility.yul\":6364:6367   */\n      dup4\n        /* \"#utility.yul\":6305:6372   */\n      tag_151\n      jump\t// in\n    tag_245:\n        /* \"#utility.yul\":6298:6372   */\n      swap2\n      pop\n        /* \"#utility.yul\":6381:6474   */\n      tag_246\n        /* \"#utility.yul\":6470:6473   */\n      dup3\n        /* \"#utility.yul\":6381:6474   */\n      tag_152\n      jump\t// in\n    tag_246:\n        /* \"#utility.yul\":6499:6501   */\n      0x20\n        /* \"#utility.yul\":6494:6497   */\n      dup3\n        /* \"#utility.yul\":6490:6502   */\n      add\n        /* \"#utility.yul\":6483:6502   */\n      swap1\n      pop\n        /* \"#utility.yul\":6142:6508   */\n      swap2\n      swap1\n      pop\n      jump\t// out\n        /* \"#utility.yul\":6514:6933   */\n    tag_51:\n        /* \"#utility.yul\":6680:6684   */\n      0x00\n        /* \"#utility.yul\":6718:6720   */\n      0x20\n        /* \"#utility.yul\":6707:6716   */\n      dup3\n        /* \"#utility.yul\":6703:6721   */\n      add\n        /* \"#utility.yul\":6695:6721   */\n      swap1\n      pop\n        /* \"#utility.yul\":6767:6776   */\n      dup2\n        /* \"#utility.yul\":6761:6765   */\n      dup2\n        /* \"#utility.yul\":6757:6777   */\n      sub\n        /* \"#utility.yul\":6753:6754   */\n      0x00\n        /* \"#utility.yul\":6742:6751   */\n      dup4\n        /* \"#utility.yul\":6738:6755   */\n      add\n        /* \"#utility.yul\":6731:6778   */\n      mstore\n        /* \"#utility.yul\":6795:6926   */\n      tag_248\n        /* \"#utility.yul\":6921:6925   */\n      dup2\n        /* \"#utility.yul\":6795:6926   */\n      tag_153\n      jump\t// in\n    tag_248:\n        /* \"#utility.yul\":6787:6926   */\n      swap1\n      pop\n        /* \"#utility.yul\":6514:6933   */\n      swap2\n      swap1\n      pop\n      jump\t// out\n        /* \"#utility.yul\":6939:7186   */\n    tag_154:\n        /* \"#utility.yul\":7079:7113   */\n      0x56657374696e67207363686564756c6520616c72656164792065786973747320\n        /* \"#utility.yul\":7075:7076   */\n      0x00\n        /* \"#utility.yul\":7067:7073   */\n      dup3\n        /* \"#utility.yul\":7063:7077   */\n      add\n        /* \"#utility.yul\":7056:7114   */\n      mstore\n        /* \"#utility.yul\":7148:7178   */\n      0x5b696e2063726561746556657374696e675363686564756c6528295d00000000\n        /* \"#utility.yul\":7143:7145   */\n      0x20\n        /* \"#utility.yul\":7135:7141   */\n      dup3\n        /* \"#utility.yul\":7131:7146   */\n      add\n        /* \"#utility.yul\":7124:7179   */\n      mstore\n        /* \"#utility.yul\":6939:7186   */\n      pop\n      jump\t// out\n        /* \"#utility.yul\":7192:7558   */\n    tag_155:\n        /* \"#utility.yul\":7334:7337   */\n      0x00\n        /* \"#utility.yul\":7355:7422   */\n      tag_251\n        /* \"#utility.yul\":7419:7421   */\n      0x3c\n        /* \"#utility.yul\":7414:7417   */\n      dup4\n        /* \"#utility.yul\":7355:7422   */\n      tag_151\n      jump\t// in\n    tag_251:\n        /* \"#utility.yul\":7348:7422   */\n      swap2\n      pop\n        /* \"#utility.yul\":7431:7524   */\n      tag_252\n        /* \"#utility.yul\":7520:7523   */\n      dup3\n        /* \"#utility.yul\":7431:7524   */\n      tag_154\n      jump\t// in\n    tag_252:\n        /* \"#utility.yul\":7549:7551   */\n      0x40\n        /* \"#utility.yul\":7544:7547   */\n      dup3\n        /* \"#utility.yul\":7540:7552   */\n      add\n        /* \"#utility.yul\":7533:7552   */\n      swap1\n      pop\n        /* \"#utility.yul\":7192:7558   */\n      swap2\n      swap1\n      pop\n      jump\t// out\n        /* \"#utility.yul\":7564:7983   */\n    tag_55:\n        /* \"#utility.yul\":7730:7734   */\n      0x00\n        /* \"#utility.yul\":7768:7770   */\n      0x20\n        /* \"#utility.yul\":7757:7766   */\n      dup3\n        /* \"#utility.yul\":7753:7771   */\n      add\n        /* \"#utility.yul\":7745:7771   */\n      swap1\n      pop\n        /* \"#utility.yul\":7817:7826   */\n      dup2\n        /* \"#utility.yul\":7811:7815   */\n      dup2\n        /* \"#utility.yul\":7807:7827   */\n      sub\n        /* \"#utility.yul\":7803:7804   */\n      0x00\n        /* \"#utility.yul\":7792:7801   */\n      dup4\n        /* \"#utility.yul\":7788:7805   */\n      add\n        /* \"#utility.yul\":7781:7828   */\n      mstore\n        /* \"#utility.yul\":7845:7976   */\n      tag_254\n        /* \"#utility.yul\":7971:7975   */\n      dup2\n        /* \"#utility.yul\":7845:7976   */\n      tag_155\n      jump\t// in\n    tag_254:\n        /* \"#utility.yul\":7837:7976   */\n      swap1\n      pop\n        /* \"#utility.yul\":7564:7983   */\n      swap2\n      swap1\n      pop\n      jump\t// out\n        /* \"#utility.yul\":7989:8231   */\n    tag_156:\n        /* \"#utility.yul\":8129:8163   */\n      0x496e76616c69642076657374696e6720706172616d6574657273205b696e2063\n        /* \"#utility.yul\":8125:8126   */\n      0x00\n        /* \"#utility.yul\":8117:8123   */\n      dup3\n        /* \"#utility.yul\":8113:8127   */\n      add\n        /* \"#utility.yul\":8106:8164   */\n      mstore\n        /* \"#utility.yul\":8198:8223   */\n      0x726561746556657374696e675363686564756c6528295d000000000000000000\n        /* \"#utility.yul\":8193:8195   */\n      0x20\n        /* \"#utility.yul\":8185:8191   */\n      dup3\n        /* \"#utility.yul\":8181:8196   */\n      add\n        /* \"#utility.yul\":8174:8224   */\n      mstore\n        /* \"#utility.yul\":7989:8231   */\n      pop\n      jump\t// out\n        /* \"#utility.yul\":8237:8603   */\n    tag_157:\n        /* \"#utility.yul\":8379:8382   */\n      0x00\n        /* \"#utility.yul\":8400:8467   */\n      tag_257\n        /* \"#utility.yul\":8464:8466   */\n      0x37\n        /* \"#utility.yul\":8459:8462   */\n      dup4\n        /* \"#utility.yul\":8400:8467   */\n      tag_151\n      jump\t// in\n    tag_257:\n        /* \"#utility.yul\":8393:8467   */\n      swap2\n      pop\n        /* \"#utility.yul\":8476:8569   */\n      tag_258\n        /* \"#utility.yul\":8565:8568   */\n      dup3\n        /* \"#utility.yul\":8476:8569   */\n      tag_156\n      jump\t// in\n    tag_258:\n        /* \"#utility.yul\":8594:8596   */\n      0x40\n        /* \"#utility.yul\":8589:8592   */\n      dup3\n        /* \"#utility.yul\":8585:8597   */\n      add\n        /* \"#utility.yul\":8578:8597   */\n      swap1\n      pop\n        /* \"#utility.yul\":8237:8603   */\n      swap2\n      swap1\n      pop\n      jump\t// out\n        /* \"#utility.yul\":8609:9028   */\n    tag_59:\n        /* \"#utility.yul\":8775:8779   */\n      0x00\n        /* \"#utility.yul\":8813:8815   */\n      0x20\n        /* \"#utility.yul\":8802:8811   */\n      dup3\n        /* \"#utility.yul\":8798:8816   */\n      add\n        /* \"#utility.yul\":8790:8816   */\n      swap1\n      pop\n        /* \"#utility.yul\":8862:8871   */\n      dup2\n        /* \"#utility.yul\":8856:8860   */\n      dup2\n        /* \"#utility.yul\":8852:8872   */\n      sub\n        /* \"#utility.yul\":8848:8849   */\n      0x00\n        /* \"#utility.yul\":8837:8846   */\n      dup4\n        /* \"#utility.yul\":8833:8850   */\n      add\n        /* \"#utility.yul\":8826:8873   */\n      mstore\n        /* \"#utility.yul\":8890:9021   */\n      tag_260\n        /* \"#utility.yul\":9016:9020   */\n      dup2\n        /* \"#utility.yul\":8890:9021   */\n      tag_157\n      jump\t// in\n    tag_260:\n        /* \"#utility.yul\":8882:9021   */\n      swap1\n      pop\n        /* \"#utility.yul\":8609:9028   */\n      swap2\n      swap1\n      pop\n      jump\t// out\n        /* \"#utility.yul\":9034:9797   */\n    tag_61:\n        /* \"#utility.yul\":9261:9265   */\n      0x00\n        /* \"#utility.yul\":9299:9302   */\n      0xc0\n        /* \"#utility.yul\":9288:9297   */\n      dup3\n        /* \"#utility.yul\":9284:9303   */\n      add\n        /* \"#utility.yul\":9276:9303   */\n      swap1\n      pop\n        /* \"#utility.yul\":9313:9384   */\n      tag_262\n        /* \"#utility.yul\":9381:9382   */\n      0x00\n        /* \"#utility.yul\":9370:9379   */\n      dup4\n        /* \"#utility.yul\":9366:9383   */\n      add\n        /* \"#utility.yul\":9357:9363   */\n      dup10\n        /* \"#utility.yul\":9313:9384   */\n      tag_143\n      jump\t// in\n    tag_262:\n        /* \"#utility.yul\":9394:9466   */\n      tag_263\n        /* \"#utility.yul\":9462:9464   */\n      0x20\n        /* \"#utility.yul\":9451:9460   */\n      dup4\n        /* \"#utility.yul\":9447:9465   */\n      add\n        /* \"#utility.yul\":9438:9444   */\n      dup9\n        /* \"#utility.yul\":9394:9466   */\n      tag_143\n      jump\t// in\n    tag_263:\n        /* \"#utility.yul\":9476:9548   */\n      tag_264\n        /* \"#utility.yul\":9544:9546   */\n      0x40\n        /* \"#utility.yul\":9533:9542   */\n      dup4\n        /* \"#utility.yul\":9529:9547   */\n      add\n        /* \"#utility.yul\":9520:9526   */\n      dup8\n        /* \"#utility.yul\":9476:9548   */\n      tag_143\n      jump\t// in\n    tag_264:\n        /* \"#utility.yul\":9558:9630   */\n      tag_265\n        /* \"#utility.yul\":9626:9628   */\n      0x60\n        /* \"#utility.yul\":9615:9624   */\n      dup4\n        /* \"#utility.yul\":9611:9629   */\n      add\n        /* \"#utility.yul\":9602:9608   */\n      dup7\n        /* \"#utility.yul\":9558:9630   */\n      tag_143\n      jump\t// in\n    tag_265:\n        /* \"#utility.yul\":9640:9713   */\n      tag_266\n        /* \"#utility.yul\":9708:9711   */\n      0x80\n        /* \"#utility.yul\":9697:9706   */\n      dup4\n        /* \"#utility.yul\":9693:9712   */\n      add\n        /* \"#utility.yul\":9684:9690   */\n      dup6\n        /* \"#utility.yul\":9640:9713   */\n      tag_143\n      jump\t// in\n    tag_266:\n        /* \"#utility.yul\":9723:9790   */\n      tag_267\n        /* \"#utility.yul\":9785:9788   */\n      0xa0\n        /* \"#utility.yul\":9774:9783   */\n      dup4\n        /* \"#utility.yul\":9770:9789   */\n      add\n        /* \"#utility.yul\":9761:9767   */\n      dup5\n        /* \"#utility.yul\":9723:9790   */\n      tag_150\n      jump\t// in\n    tag_267:\n        /* \"#utility.yul\":9034:9797   */\n      swap8\n      swap7\n      pop\n      pop\n      pop\n      pop\n      pop\n      pop\n      pop\n      jump\t// out\n        /* \"#utility.yul\":9803:10036   */\n    tag_158:\n        /* \"#utility.yul\":9943:9977   */\n      0x4e6f2076657374696e67207363686564756c6520666f756e64205b696e207265\n        /* \"#utility.yul\":9939:9940   */\n      0x00\n        /* \"#utility.yul\":9931:9937   */\n      dup3\n        /* \"#utility.yul\":9927:9941   */\n      add\n        /* \"#utility.yul\":9920:9978   */\n      mstore\n        /* \"#utility.yul\":10012:10028   */\n      0x6c65617365546f6b656e7328295d000000000000000000000000000000000000\n        /* \"#utility.yul\":10007:10009   */\n      0x20\n        /* \"#utility.yul\":9999:10005   */\n      dup3\n        /* \"#utility.yul\":9995:10010   */\n      add\n        /* \"#utility.yul\":9988:10029   */\n      mstore\n        /* \"#utility.yul\":9803:10036   */\n      pop\n      jump\t// out\n        /* \"#utility.yul\":10042:10408   */\n    tag_159:\n        /* \"#utility.yul\":10184:10187   */\n      0x00\n        /* \"#utility.yul\":10205:10272   */\n      tag_270\n        /* \"#utility.yul\":10269:10271   */\n      0x2e\n        /* \"#utility.yul\":10264:10267   */\n      dup4\n        /* \"#utility.yul\":10205:10272   */\n      tag_151\n      jump\t// in\n    tag_270:\n        /* \"#utility.yul\":10198:10272   */\n      swap2\n      pop\n        /* \"#utility.yul\":10281:10374   */\n      tag_271\n        /* \"#utility.yul\":10370:10373   */\n      dup3\n        /* \"#utility.yul\":10281:10374   */\n      tag_158\n      jump\t// in\n    tag_271:\n        /* \"#utility.yul\":10399:10401   */\n      0x40\n        /* \"#utility.yul\":10394:10397   */\n      dup3\n        /* \"#utility.yul\":10390:10402   */\n      add\n        /* \"#utility.yul\":10383:10402   */\n      swap1\n      pop\n        /* \"#utility.yul\":10042:10408   */\n      swap2\n      swap1\n      pop\n      jump\t// out\n        /* \"#utility.yul\":10414:10833   */\n    tag_80:\n        /* \"#utility.yul\":10580:10584   */\n      0x00\n        /* \"#utility.yul\":10618:10620   */\n      0x20\n        /* \"#utility.yul\":10607:10616   */\n      dup3\n        /* \"#utility.yul\":10603:10621   */\n      add\n        /* \"#utility.yul\":10595:10621   */\n      swap1\n      pop\n        /* \"#utility.yul\":10667:10676   */\n      dup2\n        /* \"#utility.yul\":10661:10665   */\n      dup2\n        /* \"#utility.yul\":10657:10677   */\n      sub\n        /* \"#utility.yul\":10653:10654   */\n      0x00\n        /* \"#utility.yul\":10642:10651   */\n      dup4\n        /* \"#utility.yul\":10638:10655   */\n      add\n        /* \"#utility.yul\":10631:10678   */\n      mstore\n        /* \"#utility.yul\":10695:10826   */\n      tag_273\n        /* \"#utility.yul\":10821:10825   */\n      dup2\n        /* \"#utility.yul\":10695:10826   */\n      tag_159\n      jump\t// in\n    tag_273:\n        /* \"#utility.yul\":10687:10826   */\n      swap1\n      pop\n        /* \"#utility.yul\":10414:10833   */\n      swap2\n      swap1\n      pop\n      jump\t// out\n        /* \"#utility.yul\":10839:11071   */\n    tag_160:\n        /* \"#utility.yul\":10979:11013   */\n      0x56657374696e67207363686564756c65207265766f6b6564205b696e2072656c\n        /* \"#utility.yul\":10975:10976   */\n      0x00\n        /* \"#utility.yul\":10967:10973   */\n      dup3\n        /* \"#utility.yul\":10963:10977   */\n      add\n        /* \"#utility.yul\":10956:11014   */\n      mstore\n        /* \"#utility.yul\":11048:11063   */\n      0x65617365546f6b656e7328295d00000000000000000000000000000000000000\n        /* \"#utility.yul\":11043:11045   */\n      0x20\n        /* \"#utility.yul\":11035:11041   */\n      dup3\n        /* \"#utility.yul\":11031:11046   */\n      add\n        /* \"#utility.yul\":11024:11064   */\n      mstore\n        /* \"#utility.yul\":10839:11071   */\n      pop\n      jump\t// out\n        /* \"#utility.yul\":11077:11443   */\n    tag_161:\n        /* \"#utility.yul\":11219:11222   */\n      0x00\n        /* \"#utility.yul\":11240:11307   */\n      tag_276\n        /* \"#utility.yul\":11304:11306   */\n      0x2d\n        /* \"#utility.yul\":11299:11302   */\n      dup4\n        /* \"#utility.yul\":11240:11307   */\n      tag_151\n      jump\t// in\n    tag_276:\n        /* \"#utility.yul\":11233:11307   */\n      swap2\n      pop\n        /* \"#utility.yul\":11316:11409   */\n      tag_277\n        /* \"#utility.yul\":11405:11408   */\n      dup3\n        /* \"#utility.yul\":11316:11409   */\n      tag_160\n      jump\t// in\n    tag_277:\n        /* \"#utility.yul\":11434:11436   */\n      0x40\n        /* \"#utility.yul\":11429:11432   */\n      dup3\n        /* \"#utility.yul\":11425:11437   */\n      add\n        /* \"#utility.yul\":11418:11437   */\n      swap1\n      pop\n        /* \"#utility.yul\":11077:11443   */\n      swap2\n      swap1\n      pop\n      jump\t// out\n        /* \"#utility.yul\":11449:11868   */\n    tag_83:\n        /* \"#utility.yul\":11615:11619   */\n      0x00\n        /* \"#utility.yul\":11653:11655   */\n      0x20\n        /* \"#utility.yul\":11642:11651   */\n      dup3\n        /* \"#utility.yul\":11638:11656   */\n      add\n        /* \"#utility.yul\":11630:11656   */\n      swap1\n      pop\n        /* \"#utility.yul\":11702:11711   */\n      dup2\n        /* \"#utility.yul\":11696:11700   */\n      dup2\n        /* \"#utility.yul\":11692:11712   */\n      sub\n        /* \"#utility.yul\":11688:11689   */\n      0x00\n        /* \"#utility.yul\":11677:11686   */\n      dup4\n        /* \"#utility.yul\":11673:11690   */\n      add\n        /* \"#utility.yul\":11666:11713   */\n      mstore\n        /* \"#utility.yul\":11730:11861   */\n      tag_279\n        /* \"#utility.yul\":11856:11860   */\n      dup2\n        /* \"#utility.yul\":11730:11861   */\n      tag_161\n      jump\t// in\n    tag_279:\n        /* \"#utility.yul\":11722:11861   */\n      swap1\n      pop\n        /* \"#utility.yul\":11449:11868   */\n      swap2\n      swap1\n      pop\n      jump\t// out\n        /* \"#utility.yul\":11874:12112   */\n    tag_162:\n        /* \"#utility.yul\":12014:12048   */\n      0x4e6f20746f6b656e73206172652063757272656e746c7920766573746564205b\n        /* \"#utility.yul\":12010:12011   */\n      0x00\n        /* \"#utility.yul\":12002:12008   */\n      dup3\n        /* \"#utility.yul\":11998:12012   */\n      add\n        /* \"#utility.yul\":11991:12049   */\n      mstore\n        /* \"#utility.yul\":12083:12104   */\n      0x696e2072656c65617365546f6b656e7328295d00000000000000000000000000\n        /* \"#utility.yul\":12078:12080   */\n      0x20\n        /* \"#utility.yul\":12070:12076   */\n      dup3\n        /* \"#utility.yul\":12066:12081   */\n      add\n        /* \"#utility.yul\":12059:12105   */\n      mstore\n        /* \"#utility.yul\":11874:12112   */\n      pop\n      jump\t// out\n        /* \"#utility.yul\":12118:12484   */\n    tag_163:\n        /* \"#utility.yul\":12260:12263   */\n      0x00\n        /* \"#utility.yul\":12281:12348   */\n      tag_282\n        /* \"#utility.yul\":12345:12347   */\n      0x33\n        /* \"#utility.yul\":12340:12343   */\n      dup4\n        /* \"#utility.yul\":12281:12348   */\n      tag_151\n      jump\t// in\n    tag_282:\n        /* \"#utility.yul\":12274:12348   */\n      swap2\n      pop\n        /* \"#utility.yul\":12357:12450   */\n      tag_283\n        /* \"#utility.yul\":12446:12449   */\n      dup3\n        /* \"#utility.yul\":12357:12450   */\n      tag_162\n      jump\t// in\n    tag_283:\n        /* \"#utility.yul\":12475:12477   */\n      0x40\n        /* \"#utility.yul\":12470:12473   */\n      dup3\n        /* \"#utility.yul\":12466:12478   */\n      add\n        /* \"#utility.yul\":12459:12478   */\n      swap1\n      pop\n        /* \"#utility.yul\":12118:12484   */\n      swap2\n      swap1\n      pop\n      jump\t// out\n        /* \"#utility.yul\":12490:12909   */\n    tag_87:\n        /* \"#utility.yul\":12656:12660   */\n      0x00\n        /* \"#utility.yul\":12694:12696   */\n      0x20\n        /* \"#utility.yul\":12683:12692   */\n      dup3\n        /* \"#utility.yul\":12679:12697   */\n      add\n        /* \"#utility.yul\":12671:12697   */\n      swap1\n      pop\n        /* \"#utility.yul\":12743:12752   */\n      dup2\n        /* \"#utility.yul\":12737:12741   */\n      dup2\n        /* \"#utility.yul\":12733:12753   */\n      sub\n        /* \"#utility.yul\":12729:12730   */\n      0x00\n        /* \"#utility.yul\":12718:12727   */\n      dup4\n        /* \"#utility.yul\":12714:12731   */\n      add\n        /* \"#utility.yul\":12707:12754   */\n      mstore\n        /* \"#utility.yul\":12771:12902   */\n      tag_285\n        /* \"#utility.yul\":12897:12901   */\n      dup2\n        /* \"#utility.yul\":12771:12902   */\n      tag_163\n      jump\t// in\n    tag_285:\n        /* \"#utility.yul\":12763:12902   */\n      swap1\n      pop\n        /* \"#utility.yul\":12490:12909   */\n      swap2\n      swap1\n      pop\n      jump\t// out\n        /* \"#utility.yul\":12915:13247   */\n    tag_90:\n        /* \"#utility.yul\":13036:13040   */\n      0x00\n        /* \"#utility.yul\":13074:13076   */\n      0x40\n        /* \"#utility.yul\":13063:13072   */\n      dup3\n        /* \"#utility.yul\":13059:13077   */\n      add\n        /* \"#utility.yul\":13051:13077   */\n      swap1\n      pop\n        /* \"#utility.yul\":13087:13158   */\n      tag_287\n        /* \"#utility.yul\":13155:13156   */\n      0x00\n        /* \"#utility.yul\":13144:13153   */\n      dup4\n        /* \"#utility.yul\":13140:13157   */\n      add\n        /* \"#utility.yul\":13131:13137   */\n      dup6\n        /* \"#utility.yul\":13087:13158   */\n      tag_144\n      jump\t// in\n    tag_287:\n        /* \"#utility.yul\":13168:13240   */\n      tag_288\n        /* \"#utility.yul\":13236:13238   */\n      0x20\n        /* \"#utility.yul\":13225:13234   */\n      dup4\n        /* \"#utility.yul\":13221:13239   */\n      add\n        /* \"#utility.yul\":13212:13218   */\n      dup5\n        /* \"#utility.yul\":13168:13240   */\n      tag_143\n      jump\t// in\n    tag_288:\n        /* \"#utility.yul\":12915:13247   */\n      swap4\n      swap3\n      pop\n      pop\n      pop\n      jump\t// out\n        /* \"#utility.yul\":13253:13390   */\n    tag_164:\n        /* \"#utility.yul\":13307:13312   */\n      0x00\n        /* \"#utility.yul\":13338:13344   */\n      dup2\n        /* \"#utility.yul\":13332:13345   */\n      mload\n        /* \"#utility.yul\":13323:13345   */\n      swap1\n      pop\n        /* \"#utility.yul\":13354:13384   */\n      tag_290\n        /* \"#utility.yul\":13378:13383   */\n      dup2\n        /* \"#utility.yul\":13354:13384   */\n      tag_141\n      jump\t// in\n    tag_290:\n        /* \"#utility.yul\":13253:13390   */\n      swap3\n      swap2\n      pop\n      pop\n      jump\t// out\n        /* \"#utility.yul\":13396:13741   */\n    tag_94:\n        /* \"#utility.yul\":13463:13469   */\n      0x00\n        /* \"#utility.yul\":13512:13514   */\n      0x20\n        /* \"#utility.yul\":13500:13509   */\n      dup3\n        /* \"#utility.yul\":13491:13498   */\n      dup5\n        /* \"#utility.yul\":13487:13510   */\n      sub\n        /* \"#utility.yul\":13483:13515   */\n      slt\n        /* \"#utility.yul\":13480:13599   */\n      iszero\n      tag_292\n      jumpi\n        /* \"#utility.yul\":13518:13597   */\n      tag_293\n      tag_131\n      jump\t// in\n    tag_293:\n        /* \"#utility.yul\":13480:13599   */\n    tag_292:\n        /* \"#utility.yul\":13638:13639   */\n      0x00\n        /* \"#utility.yul\":13663:13724   */\n      tag_294\n        /* \"#utility.yul\":13716:13723   */\n      dup5\n        /* \"#utility.yul\":13707:13713   */\n      dup3\n        /* \"#utility.yul\":13696:13705   */\n      dup6\n        /* \"#utility.yul\":13692:13714   */\n      add\n        /* \"#utility.yul\":13663:13724   */\n      tag_164\n      jump\t// in\n    tag_294:\n        /* \"#utility.yul\":13653:13724   */\n      swap2\n      pop\n        /* \"#utility.yul\":13609:13734   */\n      pop\n        /* \"#utility.yul\":13396:13741   */\n      swap3\n      swap2\n      pop\n      pop\n      jump\t// out\n        /* \"#utility.yul\":13747:13993   */\n    tag_165:\n        /* \"#utility.yul\":13887:13921   */\n      0x56657374696e67207363686564756c65206e6f74207265766f6361626c65205b\n        /* \"#utility.yul\":13883:13884   */\n      0x00\n        /* \"#utility.yul\":13875:13881   */\n      dup3\n        /* \"#utility.yul\":13871:13885   */\n      add\n        /* \"#utility.yul\":13864:13922   */\n      mstore\n        /* \"#utility.yul\":13956:13985   */\n      0x696e207265766f6b6556657374696e675363686564756c6528295d0000000000\n        /* \"#utility.yul\":13951:13953   */\n      0x20\n        /* \"#utility.yul\":13943:13949   */\n      dup3\n        /* \"#utility.yul\":13939:13954   */\n      add\n        /* \"#utility.yul\":13932:13986   */\n      mstore\n        /* \"#utility.yul\":13747:13993   */\n      pop\n      jump\t// out\n        /* \"#utility.yul\":13999:14365   */\n    tag_166:\n        /* \"#utility.yul\":14141:14144   */\n      0x00\n        /* \"#utility.yul\":14162:14229   */\n      tag_297\n        /* \"#utility.yul\":14226:14228   */\n      0x3b\n        /* \"#utility.yul\":14221:14224   */\n      dup4\n        /* \"#utility.yul\":14162:14229   */\n      tag_151\n      jump\t// in\n    tag_297:\n        /* \"#utility.yul\":14155:14229   */\n      swap2\n      pop\n        /* \"#utility.yul\":14238:14331   */\n      tag_298\n        /* \"#utility.yul\":14327:14330   */\n      dup3\n        /* \"#utility.yul\":14238:14331   */\n      tag_165\n      jump\t// in\n    tag_298:\n        /* \"#utility.yul\":14356:14358   */\n      0x40\n        /* \"#utility.yul\":14351:14354   */\n      dup3\n        /* \"#utility.yul\":14347:14359   */\n      add\n        /* \"#utility.yul\":14340:14359   */\n      swap1\n      pop\n        /* \"#utility.yul\":13999:14365   */\n      swap2\n      swap1\n      pop\n      jump\t// out\n        /* \"#utility.yul\":14371:14790   */\n    tag_102:\n        /* \"#utility.yul\":14537:14541   */\n      0x00\n        /* \"#utility.yul\":14575:14577   */\n      0x20\n        /* \"#utility.yul\":14564:14573   */\n      dup3\n        /* \"#utility.yul\":14560:14578   */\n      add\n        /* \"#utility.yul\":14552:14578   */\n      swap1\n      pop\n        /* \"#utility.yul\":14624:14633   */\n      dup2\n        /* \"#utility.yul\":14618:14622   */\n      dup2\n        /* \"#utility.yul\":14614:14634   */\n      sub\n        /* \"#utility.yul\":14610:14611   */\n      0x00\n        /* \"#utility.yul\":14599:14608   */\n      dup4\n        /* \"#utility.yul\":14595:14612   */\n      add\n        /* \"#utility.yul\":14588:14635   */\n      mstore\n        /* \"#utility.yul\":14652:14783   */\n      tag_300\n        /* \"#utility.yul\":14778:14782   */\n      dup2\n        /* \"#utility.yul\":14652:14783   */\n      tag_166\n      jump\t// in\n    tag_300:\n        /* \"#utility.yul\":14644:14783   */\n      swap1\n      pop\n        /* \"#utility.yul\":14371:14790   */\n      swap2\n      swap1\n      pop\n      jump\t// out\n        /* \"#utility.yul\":14796:15044   */\n    tag_167:\n        /* \"#utility.yul\":14936:14970   */\n      0x56657374696e67207363686564756c6520616c7265616479207265766f6b6564\n        /* \"#utility.yul\":14932:14933   */\n      0x00\n        /* \"#utility.yul\":14924:14930   */\n      dup3\n        /* \"#utility.yul\":14920:14934   */\n      add\n        /* \"#utility.yul\":14913:14971   */\n      mstore\n        /* \"#utility.yul\":15005:15036   */\n      0x205b696e207265766f6b6556657374696e675363686564756c6528295d000000\n        /* \"#utility.yul\":15000:15002   */\n      0x20\n        /* \"#utility.yul\":14992:14998   */\n      dup3\n        /* \"#utility.yul\":14988:15003   */\n      add\n        /* \"#utility.yul\":14981:15037   */\n      mstore\n        /* \"#utility.yul\":14796:15044   */\n      pop\n      jump\t// out\n        /* \"#utility.yul\":15050:15416   */\n    tag_168:\n        /* \"#utility.yul\":15192:15195   */\n      0x00\n        /* \"#utility.yul\":15213:15280   */\n      tag_303\n        /* \"#utility.yul\":15277:15279   */\n      0x3d\n        /* \"#utility.yul\":15272:15275   */\n      dup4\n        /* \"#utility.yul\":15213:15280   */\n      tag_151\n      jump\t// in\n    tag_303:\n        /* \"#utility.yul\":15206:15280   */\n      swap2\n      pop\n        /* \"#utility.yul\":15289:15382   */\n      tag_304\n        /* \"#utility.yul\":15378:15381   */\n      dup3\n        /* \"#utility.yul\":15289:15382   */\n      tag_167\n      jump\t// in\n    tag_304:\n        /* \"#utility.yul\":15407:15409   */\n      0x40\n        /* \"#utility.yul\":15402:15405   */\n      dup3\n        /* \"#utility.yul\":15398:15410   */\n      add\n        /* \"#utility.yul\":15391:15410   */\n      swap1\n      pop\n        /* \"#utility.yul\":15050:15416   */\n      swap2\n      swap1\n      pop\n      jump\t// out\n        /* \"#utility.yul\":15422:15841   */\n    tag_105:\n        /* \"#utility.yul\":15588:15592   */\n      0x00\n        /* \"#utility.yul\":15626:15628   */\n      0x20\n        /* \"#utility.yul\":15615:15624   */\n      dup3\n        /* \"#utility.yul\":15611:15629   */\n      add\n        /* \"#utility.yul\":15603:15629   */\n      swap1\n      pop\n        /* \"#utility.yul\":15675:15684   */\n      dup2\n        /* \"#utility.yul\":15669:15673   */\n      dup2\n        /* \"#utility.yul\":15665:15685   */\n      sub\n        /* \"#utility.yul\":15661:15662   */\n      0x00\n        /* \"#utility.yul\":15650:15659   */\n      dup4\n        /* \"#utility.yul\":15646:15663   */\n      add\n        /* \"#utility.yul\":15639:15686   */\n      mstore\n        /* \"#utility.yul\":15703:15834   */\n      tag_306\n        /* \"#utility.yul\":15829:15833   */\n      dup2\n        /* \"#utility.yul\":15703:15834   */\n      tag_168\n      jump\t// in\n    tag_306:\n        /* \"#utility.yul\":15695:15834   */\n      swap1\n      pop\n        /* \"#utility.yul\":15422:15841   */\n      swap2\n      swap1\n      pop\n      jump\t// out\n        /* \"#utility.yul\":15847:15990   */\n    tag_169:\n        /* \"#utility.yul\":15904:15909   */\n      0x00\n        /* \"#utility.yul\":15935:15941   */\n      dup2\n        /* \"#utility.yul\":15929:15942   */\n      mload\n        /* \"#utility.yul\":15920:15942   */\n      swap1\n      pop\n        /* \"#utility.yul\":15951:15984   */\n      tag_308\n        /* \"#utility.yul\":15978:15983   */\n      dup2\n        /* \"#utility.yul\":15951:15984   */\n      tag_138\n      jump\t// in\n    tag_308:\n        /* \"#utility.yul\":15847:15990   */\n      swap3\n      swap2\n      pop\n      pop\n      jump\t// out\n        /* \"#utility.yul\":15996:16347   */\n    tag_117:\n        /* \"#utility.yul\":16066:16072   */\n      0x00\n        /* \"#utility.yul\":16115:16117   */\n      0x20\n        /* \"#utility.yul\":16103:16112   */\n      dup3\n        /* \"#utility.yul\":16094:16101   */\n      dup5\n        /* \"#utility.yul\":16090:16113   */\n      sub\n        /* \"#utility.yul\":16086:16118   */\n      slt\n        /* \"#utility.yul\":16083:16202   */\n      iszero\n      tag_310\n      jumpi\n        /* \"#utility.yul\":16121:16200   */\n      tag_311\n      tag_131\n      jump\t// in\n    tag_311:\n        /* \"#utility.yul\":16083:16202   */\n    tag_310:\n        /* \"#utility.yul\":16241:16242   */\n      0x00\n        /* \"#utility.yul\":16266:16330   */\n      tag_312\n        /* \"#utility.yul\":16322:16329   */\n      dup5\n        /* \"#utility.yul\":16313:16319   */\n      dup3\n        /* \"#utility.yul\":16302:16311   */\n      dup6\n        /* \"#utility.yul\":16298:16320   */\n      add\n        /* \"#utility.yul\":16266:16330   */\n      tag_169\n      jump\t// in\n    tag_312:\n        /* \"#utility.yul\":16256:16330   */\n      swap2\n      pop\n        /* \"#utility.yul\":16212:16340   */\n      pop\n        /* \"#utility.yul\":15996:16347   */\n      swap3\n      swap2\n      pop\n      pop\n      jump\t// out\n        /* \"#utility.yul\":16353:16533   */\n    tag_170:\n        /* \"#utility.yul\":16401:16478   */\n      0x4e487b7100000000000000000000000000000000000000000000000000000000\n        /* \"#utility.yul\":16398:16399   */\n      0x00\n        /* \"#utility.yul\":16391:16479   */\n      mstore\n        /* \"#utility.yul\":16498:16502   */\n      0x11\n        /* \"#utility.yul\":16495:16496   */\n      0x04\n        /* \"#utility.yul\":16488:16503   */\n      mstore\n        /* \"#utility.yul\":16522:16526   */\n      0x24\n        /* \"#utility.yul\":16519:16520   */\n      0x00\n        /* \"#utility.yul\":16512:16527   */\n      revert\n        /* \"#utility.yul\":16539:16730   */\n    tag_120:\n        /* \"#utility.yul\":16579:16582   */\n      0x00\n        /* \"#utility.yul\":16598:16618   */\n      tag_315\n        /* \"#utility.yul\":16616:16617   */\n      dup3\n        /* \"#utility.yul\":16598:16618   */\n      tag_137\n      jump\t// in\n    tag_315:\n        /* \"#utility.yul\":16593:16618   */\n      swap2\n      pop\n        /* \"#utility.yul\":16632:16652   */\n      tag_316\n        /* \"#utility.yul\":16650:16651   */\n      dup4\n        /* \"#utility.yul\":16632:16652   */\n      tag_137\n      jump\t// in\n    tag_316:\n        /* \"#utility.yul\":16627:16652   */\n      swap3\n      pop\n        /* \"#utility.yul\":16675:16676   */\n      dup3\n        /* \"#utility.yul\":16672:16673   */\n      dup3\n        /* \"#utility.yul\":16668:16677   */\n      add\n        /* \"#utility.yul\":16661:16677   */\n      swap1\n      pop\n        /* \"#utility.yul\":16696:16699   */\n      dup1\n        /* \"#utility.yul\":16693:16694   */\n      dup3\n        /* \"#utility.yul\":16690:16700   */\n      gt\n        /* \"#utility.yul\":16687:16723   */\n      iszero\n      tag_317\n      jumpi\n        /* \"#utility.yul\":16703:16721   */\n      tag_318\n      tag_170\n      jump\t// in\n    tag_318:\n        /* \"#utility.yul\":16687:16723   */\n    tag_317:\n        /* \"#utility.yul\":16539:16730   */\n      swap3\n      swap2\n      pop\n      pop\n      jump\t// out\n        /* \"#utility.yul\":16736:16930   */\n    tag_123:\n        /* \"#utility.yul\":16776:16780   */\n      0x00\n        /* \"#utility.yul\":16796:16816   */\n      tag_320\n        /* \"#utility.yul\":16814:16815   */\n      dup3\n        /* \"#utility.yul\":16796:16816   */\n      tag_137\n      jump\t// in\n    tag_320:\n        /* \"#utility.yul\":16791:16816   */\n      swap2\n      pop\n        /* \"#utility.yul\":16830:16850   */\n      tag_321\n        /* \"#utility.yul\":16848:16849   */\n      dup4\n        /* \"#utility.yul\":16830:16850   */\n      tag_137\n      jump\t// in\n    tag_321:\n        /* \"#utility.yul\":16825:16850   */\n      swap3\n      pop\n        /* \"#utility.yul\":16874:16875   */\n      dup3\n        /* \"#utility.yul\":16871:16872   */\n      dup3\n        /* \"#utility.yul\":16867:16876   */\n      sub\n        /* \"#utility.yul\":16859:16876   */\n      swap1\n      pop\n        /* \"#utility.yul\":16898:16899   */\n      dup2\n        /* \"#utility.yul\":16892:16896   */\n      dup2\n        /* \"#utility.yul\":16889:16900   */\n      gt\n        /* \"#utility.yul\":16886:16923   */\n      iszero\n      tag_322\n      jumpi\n        /* \"#utility.yul\":16903:16921   */\n      tag_323\n      tag_170\n      jump\t// in\n    tag_323:\n        /* \"#utility.yul\":16886:16923   */\n    tag_322:\n        /* \"#utility.yul\":16736:16930   */\n      swap3\n      swap2\n      pop\n      pop\n      jump\t// out\n        /* \"#utility.yul\":16936:17116   */\n    tag_171:\n        /* \"#utility.yul\":16984:17061   */\n      0x4e487b7100000000000000000000000000000000000000000000000000000000\n        /* \"#utility.yul\":16981:16982   */\n      0x00\n        /* \"#utility.yul\":16974:17062   */\n      mstore\n        /* \"#utility.yul\":17081:17085   */\n      0x12\n        /* \"#utility.yul\":17078:17079   */\n      0x04\n        /* \"#utility.yul\":17071:17086   */\n      mstore\n        /* \"#utility.yul\":17105:17109   */\n      0x24\n        /* \"#utility.yul\":17102:17103   */\n      0x00\n        /* \"#utility.yul\":17095:17110   */\n      revert\n        /* \"#utility.yul\":17122:17307   */\n    tag_126:\n        /* \"#utility.yul\":17162:17163   */\n      0x00\n        /* \"#utility.yul\":17179:17199   */\n      tag_326\n        /* \"#utility.yul\":17197:17198   */\n      dup3\n        /* \"#utility.yul\":17179:17199   */\n      tag_137\n      jump\t// in\n    tag_326:\n        /* \"#utility.yul\":17174:17199   */\n      swap2\n      pop\n        /* \"#utility.yul\":17213:17233   */\n      tag_327\n        /* \"#utility.yul\":17231:17232   */\n      dup4\n        /* \"#utility.yul\":17213:17233   */\n      tag_137\n      jump\t// in\n    tag_327:\n        /* \"#utility.yul\":17208:17233   */\n      swap3\n      pop\n        /* \"#utility.yul\":17252:17253   */\n      dup3\n        /* \"#utility.yul\":17242:17277   */\n      tag_328\n      jumpi\n        /* \"#utility.yul\":17257:17275   */\n      tag_329\n      tag_171\n      jump\t// in\n    tag_329:\n        /* \"#utility.yul\":17242:17277   */\n    tag_328:\n        /* \"#utility.yul\":17299:17300   */\n      dup3\n        /* \"#utility.yul\":17296:17297   */\n      dup3\n        /* \"#utility.yul\":17292:17301   */\n      div\n        /* \"#utility.yul\":17287:17301   */\n      swap1\n      pop\n        /* \"#utility.yul\":17122:17307   */\n      swap3\n      swap2\n      pop\n      pop\n      jump\t// out\n        /* \"#utility.yul\":17313:17723   */\n    tag_129:\n        /* \"#utility.yul\":17353:17360   */\n      0x00\n        /* \"#utility.yul\":17376:17396   */\n      tag_331\n        /* \"#utility.yul\":17394:17395   */\n      dup3\n        /* \"#utility.yul\":17376:17396   */\n      tag_137\n      jump\t// in\n    tag_331:\n        /* \"#utility.yul\":17371:17396   */\n      swap2\n      pop\n        /* \"#utility.yul\":17410:17430   */\n      tag_332\n        /* \"#utility.yul\":17428:17429   */\n      dup4\n        /* \"#utility.yul\":17410:17430   */\n      tag_137\n      jump\t// in\n    tag_332:\n        /* \"#utility.yul\":17405:17430   */\n      swap3\n      pop\n        /* \"#utility.yul\":17465:17466   */\n      dup3\n        /* \"#utility.yul\":17462:17463   */\n      dup3\n        /* \"#utility.yul\":17458:17467   */\n      mul\n        /* \"#utility.yul\":17487:17517   */\n      tag_333\n        /* \"#utility.yul\":17505:17516   */\n      dup2\n        /* \"#utility.yul\":17487:17517   */\n      tag_137\n      jump\t// in\n    tag_333:\n        /* \"#utility.yul\":17476:17517   */\n      swap2\n      pop\n        /* \"#utility.yul\":17666:17667   */\n      dup3\n        /* \"#utility.yul\":17657:17664   */\n      dup3\n        /* \"#utility.yul\":17653:17668   */\n      div\n        /* \"#utility.yul\":17650:17651   */\n      dup5\n        /* \"#utility.yul\":17647:17669   */\n      eq\n        /* \"#utility.yul\":17627:17628   */\n      dup4\n        /* \"#utility.yul\":17620:17629   */\n      iszero\n        /* \"#utility.yul\":17600:17683   */\n      or\n        /* \"#utility.yul\":17577:17716   */\n      tag_334\n      jumpi\n        /* \"#utility.yul\":17696:17714   */\n      tag_335\n      tag_170\n      jump\t// in\n    tag_335:\n        /* \"#utility.yul\":17577:17716   */\n    tag_334:\n        /* \"#utility.yul\":17361:17723   */\n      pop\n        /* \"#utility.yul\":17313:17723   */\n      swap3\n      swap2\n      pop\n      pop\n      jump\t// out\n\n    auxdata: 0xa26469706673582212206771de05b12ee3447f881fb8aaa030640111d9f3d3e02880389a366dfbc2e3c064736f6c63430008160033\n}\n",
				"bytecode": {
					"linkReferences": {},
					"object": "608060405234801562000010575f80fd5b506040516200174538038062001745833981810160405281019062000036919062000134565b335f806101000a81548173ffffffffffffffffffffffffffffffffffffffff021916908373ffffffffffffffffffffffffffffffffffffffff1602179055508060015f6101000a81548173ffffffffffffffffffffffffffffffffffffffff021916908373ffffffffffffffffffffffffffffffffffffffff1602179055505062000164565b5f80fd5b5f73ffffffffffffffffffffffffffffffffffffffff82169050919050565b5f620000eb82620000c0565b9050919050565b5f620000fe82620000df565b9050919050565b6200011081620000f2565b81146200011b575f80fd5b50565b5f815190506200012e8162000105565b92915050565b5f602082840312156200014c576200014b620000bc565b5b5f6200015b848285016200011e565b91505092915050565b6115d380620001725f395ff3fe608060405234801561000f575f80fd5b5060043610610091575f3560e01c8063a96f866811610064578063a96f86681461011d578063f035a27214610127578063f8b2cb4f14610143578063fc0c546a14610173578063fdb20ccb1461019157610091565b80634495e82714610095578063557ed1ba146100b15780637dc8a8aa146100cf5780638da5cb5b146100ff575b5f80fd5b6100af60048036038101906100aa9190610cf7565b6101c8565b005b6100b961040c565b6040516100c69190610da3565b60405180910390f35b6100e960048036038101906100e49190610dbc565b610413565b6040516100f69190610da3565b60405180910390f35b6101076105b1565b6040516101149190610df6565b60405180910390f35b6101256105d4565b005b610141600480360381019061013c9190610dbc565b610806565b005b61015d60048036038101906101589190610dbc565b610abb565b60405161016a9190610da3565b60405180910390f35b61017b610b5c565b6040516101889190610e6a565b60405180910390f35b6101ab60048036038101906101a69190610dbc565b610b81565b6040516101bf989796959493929190610e92565b60405180910390f35b5f8054906101000a900473ffffffffffffffffffffffffffffffffffffffff1673ffffffffffffffffffffffffffffffffffffffff163373ffffffffffffffffffffffffffffffffffffffff1614610255576040517f08c379a000000000000000000000000000000000000000000000000000000000815260040161024c90610f68565b60405180910390fd5b5f60025f8973ffffffffffffffffffffffffffffffffffffffff1673ffffffffffffffffffffffffffffffffffffffff1681526020019081526020015f205f0154146102d6576040517f08c379a00000000000000000000000000000000000000000000000000000000081526004016102cd90610ff6565b60405180910390fd5b5f821180156102e457505f84115b610323576040517f08c379a000000000000000000000000000000000000000000000000000000000815260040161031a90611084565b60405180910390fd5b5f60025f8973ffffffffffffffffffffffffffffffffffffffff1673ffffffffffffffffffffffffffffffffffffffff1681526020019081526020015f20905086815f018190555085816001018190555084816002018190555083816003018190555082816004018190555081816005015f6101000a81548160ff0219169083151502179055508773ffffffffffffffffffffffffffffffffffffffff167fbea02a5045606a667ff06eb235c005b4f95b55a10c174b5aae63ba6be2ae98088888888888886040516103fa969594939291906110a2565b60405180910390a25050505050505050565b5f42905090565b5f8060025f8473ffffffffffffffffffffffffffffffffffffffff1673ffffffffffffffffffffffffffffffffffffffff1681526020019081526020015f20604051806101000160405290815f820154815260200160018201548152602001600282015481526020016003820154815260200160048201548152602001600582015f9054906101000a900460ff1615151515815260200160068201548152602001600782015f9054906101000a900460ff16151515158152505090506104e98160200151825f0151610bdd90919063ffffffff16565b4210156104f9575f9150506105ac565b5f6105268260200151610518845f015142610bf290919063ffffffff16565b610bf290919063ffffffff16565b90505f61054483606001518460400151610c0790919063ffffffff16565b90505f61055e846060015184610c0790919063ffffffff16565b90508181106105775783608001519450505050506105ac565b5f61058f838660800151610c0790919063ffffffff16565b90506105a48282610c1c90919063ffffffff16565b955050505050505b919050565b5f8054906101000a900473ffffffffffffffffffffffffffffffffffffffff1681565b5f60025f3373ffffffffffffffffffffffffffffffffffffffff1673ffffffffffffffffffffffffffffffffffffffff1681526020019081526020015f2090505f815f015411610659576040517f08c379a000000000000000000000000000000000000000000000000000000000815260040161065090611171565b60405180910390fd5b806007015f9054906101000a900460ff16156106aa576040517f08c379a00000000000000000000000000000000000000000000000000000000081526004016106a1906111ff565b60405180910390fd5b5f6106b433610413565b90505f81116106f8576040517f08c379a00000000000000000000000000000000000000000000000000000000081526004016106ef9061128d565b60405180910390fd5b61070f818360060154610bdd90919063ffffffff16565b826006018190555060015f9054906101000a900473ffffffffffffffffffffffffffffffffffffffff1673ffffffffffffffffffffffffffffffffffffffff1663a9059cbb33836040518363ffffffff1660e01b81526004016107739291906112ab565b6020604051808303815f875af115801561078f573d5f803e3d5ffd5b505050506040513d601f19601f820116820180604052508101906107b391906112e6565b503373ffffffffffffffffffffffffffffffffffffffff167fc7798891864187665ac6dd119286e44ec13f014527aeeb2b8eb3fd413df93179826040516107fa9190610da3565b60405180910390a25050565b5f8054906101000a900473ffffffffffffffffffffffffffffffffffffffff1673ffffffffffffffffffffffffffffffffffffffff163373ffffffffffffffffffffffffffffffffffffffff1614610893576040517f08c379a000000000000000000000000000000000000000000000000000000000815260040161088a90610f68565b60405180910390fd5b5f60025f8373ffffffffffffffffffffffffffffffffffffffff1673ffffffffffffffffffffffffffffffffffffffff1681526020019081526020015f209050806005015f9054906101000a900460ff16610923576040517f08c379a000000000000000000000000000000000000000000000000000000000815260040161091a90611381565b60405180910390fd5b806007015f9054906101000a900460ff1615610974576040517f08c379a000000000000000000000000000000000000000000000000000000000815260040161096b9061140f565b60405180910390fd5b6001816007015f6101000a81548160ff0219169083151502179055505f6109ac82600601548360040154610bf290919063ffffffff16565b90505f811115610a735760015f9054906101000a900473ffffffffffffffffffffffffffffffffffffffff1673ffffffffffffffffffffffffffffffffffffffff1663a9059cbb5f8054906101000a900473ffffffffffffffffffffffffffffffffffffffff16836040518363ffffffff1660e01b8152600401610a319291906112ab565b6020604051808303815f875af1158015610a4d573d5f803e3d5ffd5b505050506040513d601f19601f82011682018060405250810190610a7191906112e6565b505b8273ffffffffffffffffffffffffffffffffffffffff167f68d870ac0aff3819234e8a1fc8f357b40d75212f2dc8594b97690fa205b3bab260405160405180910390a2505050565b5f60015f9054906101000a900473ffffffffffffffffffffffffffffffffffffffff1673ffffffffffffffffffffffffffffffffffffffff166370a08231836040518263ffffffff1660e01b8152600401610b169190610df6565b602060405180830381865afa158015610b31573d5f803e3d5ffd5b505050506040513d601f19601f82011682018060405250810190610b559190611441565b9050919050565b60015f9054906101000a900473ffffffffffffffffffffffffffffffffffffffff1681565b6002602052805f5260405f205f91509050805f015490806001015490806002015490806003015490806004015490806005015f9054906101000a900460ff1690806006015490806007015f9054906101000a900460ff16905088565b5f8183610bea9190611499565b905092915050565b5f8183610bff91906114cc565b905092915050565b5f8183610c14919061152c565b905092915050565b5f8183610c29919061155c565b905092915050565b5f80fd5b5f73ffffffffffffffffffffffffffffffffffffffff82169050919050565b5f610c5e82610c35565b9050919050565b610c6e81610c54565b8114610c78575f80fd5b50565b5f81359050610c8981610c65565b92915050565b5f819050919050565b610ca181610c8f565b8114610cab575f80fd5b50565b5f81359050610cbc81610c98565b92915050565b5f8115159050919050565b610cd681610cc2565b8114610ce0575f80fd5b50565b5f81359050610cf181610ccd565b92915050565b5f805f805f805f60e0888a031215610d1257610d11610c31565b5b5f610d1f8a828b01610c7b565b9750506020610d308a828b01610cae565b9650506040610d418a828b01610cae565b9550506060610d528a828b01610cae565b9450506080610d638a828b01610cae565b93505060a0610d748a828b01610cae565b92505060c0610d858a828b01610ce3565b91505092959891949750929550565b610d9d81610c8f565b82525050565b5f602082019050610db65f830184610d94565b92915050565b5f60208284031215610dd157610dd0610c31565b5b5f610dde84828501610c7b565b91505092915050565b610df081610c54565b82525050565b5f602082019050610e095f830184610de7565b92915050565b5f819050919050565b5f610e32610e2d610e2884610c35565b610e0f565b610c35565b9050919050565b5f610e4382610e18565b9050919050565b5f610e5482610e39565b9050919050565b610e6481610e4a565b82525050565b5f602082019050610e7d5f830184610e5b565b92915050565b610e8c81610cc2565b82525050565b5f61010082019050610ea65f83018b610d94565b610eb3602083018a610d94565b610ec06040830189610d94565b610ecd6060830188610d94565b610eda6080830187610d94565b610ee760a0830186610e83565b610ef460c0830185610d94565b610f0160e0830184610e83565b9998505050505050505050565b5f82825260208201905092915050565b7f4e6f7420746865206f776e6572000000000000000000000000000000000000005f82015250565b5f610f52600d83610f0e565b9150610f5d82610f1e565b602082019050919050565b5f6020820190508181035f830152610f7f81610f46565b9050919050565b7f56657374696e67207363686564756c6520616c726561647920657869737473205f8201527f5b696e2063726561746556657374696e675363686564756c6528295d00000000602082015250565b5f610fe0603c83610f0e565b9150610feb82610f86565b604082019050919050565b5f6020820190508181035f83015261100d81610fd4565b9050919050565b7f496e76616c69642076657374696e6720706172616d6574657273205b696e20635f8201527f726561746556657374696e675363686564756c6528295d000000000000000000602082015250565b5f61106e603783610f0e565b915061107982611014565b604082019050919050565b5f6020820190508181035f83015261109b81611062565b9050919050565b5f60c0820190506110b55f830189610d94565b6110c26020830188610d94565b6110cf6040830187610d94565b6110dc6060830186610d94565b6110e96080830185610d94565b6110f660a0830184610e83565b979650505050505050565b7f4e6f2076657374696e67207363686564756c6520666f756e64205b696e2072655f8201527f6c65617365546f6b656e7328295d000000000000000000000000000000000000602082015250565b5f61115b602e83610f0e565b915061116682611101565b604082019050919050565b5f6020820190508181035f8301526111888161114f565b9050919050565b7f56657374696e67207363686564756c65207265766f6b6564205b696e2072656c5f8201527f65617365546f6b656e7328295d00000000000000000000000000000000000000602082015250565b5f6111e9602d83610f0e565b91506111f48261118f565b604082019050919050565b5f6020820190508181035f830152611216816111dd565b9050919050565b7f4e6f20746f6b656e73206172652063757272656e746c7920766573746564205b5f8201527f696e2072656c65617365546f6b656e7328295d00000000000000000000000000602082015250565b5f611277603383610f0e565b91506112828261121d565b604082019050919050565b5f6020820190508181035f8301526112a48161126b565b9050919050565b5f6040820190506112be5f830185610de7565b6112cb6020830184610d94565b9392505050565b5f815190506112e081610ccd565b92915050565b5f602082840312156112fb576112fa610c31565b5b5f611308848285016112d2565b91505092915050565b7f56657374696e67207363686564756c65206e6f74207265766f6361626c65205b5f8201527f696e207265766f6b6556657374696e675363686564756c6528295d0000000000602082015250565b5f61136b603b83610f0e565b915061137682611311565b604082019050919050565b5f6020820190508181035f8301526113988161135f565b9050919050565b7f56657374696e67207363686564756c6520616c7265616479207265766f6b65645f8201527f205b696e207265766f6b6556657374696e675363686564756c6528295d000000602082015250565b5f6113f9603d83610f0e565b91506114048261139f565b604082019050919050565b5f6020820190508181035f830152611426816113ed565b9050919050565b5f8151905061143b81610c98565b92915050565b5f6020828403121561145657611455610c31565b5b5f6114638482850161142d565b91505092915050565b7f4e487b71000000000000000000000000000000000000000000000000000000005f52601160045260245ffd5b5f6114a382610c8f565b91506114ae83610c8f565b92508282019050808211156114c6576114c561146c565b5b92915050565b5f6114d682610c8f565b91506114e183610c8f565b92508282039050818111156114f9576114f861146c565b5b92915050565b7f4e487b71000000000000000000000000000000000000000000000000000000005f52601260045260245ffd5b5f61153682610c8f565b915061154183610c8f565b925082611551576115506114ff565b5b828204905092915050565b5f61156682610c8f565b915061157183610c8f565b925082820261157f81610c8f565b915082820484148315176115965761159561146c565b5b509291505056fea26469706673582212206771de05b12ee3447f881fb8aaa030640111d9f3d3e02880389a366dfbc2e3c064736f6c63430008160033",
					"opcodes": "PUSH1 0x80 PUSH1 0x40 MSTORE CALLVALUE DUP1 ISZERO PUSH3 0x10 JUMPI PUSH0 DUP1 REVERT JUMPDEST POP PUSH1 0x40 MLOAD PUSH3 0x1745 CODESIZE SUB DUP1 PUSH3 0x1745 DUP4 CODECOPY DUP2 DUP2 ADD PUSH1 0x40 MSTORE DUP2 ADD SWAP1 PUSH3 0x36 SWAP2 SWAP1 PUSH3 0x134 JUMP JUMPDEST CALLER PUSH0 DUP1 PUSH2 0x100 EXP DUP2 SLOAD DUP2 PUSH20 0xFFFFFFFFFFFFFFFFFFFFFFFFFFFFFFFFFFFFFFFF MUL NOT AND SWAP1 DUP4 PUSH20 0xFFFFFFFFFFFFFFFFFFFFFFFFFFFFFFFFFFFFFFFF AND MUL OR SWAP1 SSTORE POP DUP1 PUSH1 0x1 PUSH0 PUSH2 0x100 EXP DUP2 SLOAD DUP2 PUSH20 0xFFFFFFFFFFFFFFFFFFFFFFFFFFFFFFFFFFFFFFFF MUL NOT AND SWAP1 DUP4 PUSH20 0xFFFFFFFFFFFFFFFFFFFFFFFFFFFFFFFFFFFFFFFF AND MUL OR SWAP1 SSTORE POP POP PUSH3 0x164 JUMP JUMPDEST PUSH0 DUP1 REVERT JUMPDEST PUSH0 PUSH20 0xFFFFFFFFFFFFFFFFFFFFFFFFFFFFFFFFFFFFFFFF DUP3 AND SWAP1 POP SWAP2 SWAP1 POP JUMP JUMPDEST PUSH0 PUSH3 0xEB DUP3 PUSH3 0xC0 JUMP JUMPDEST SWAP1 POP SWAP2 SWAP1 POP JUMP JUMPDEST PUSH0 PUSH3 0xFE DUP3 PUSH3 0xDF JUMP JUMPDEST SWAP1 POP SWAP2 SWAP1 POP JUMP JUMPDEST PUSH3 0x110 DUP2 PUSH3 0xF2 JUMP JUMPDEST DUP2 EQ PUSH3 0x11B JUMPI PUSH0 DUP1 REVERT JUMPDEST POP JUMP JUMPDEST PUSH0 DUP2 MLOAD SWAP1 POP PUSH3 0x12E DUP2 PUSH3 0x105 JUMP JUMPDEST SWAP3 SWAP2 POP POP JUMP JUMPDEST PUSH0 PUSH1 0x20 DUP3 DUP5 SUB SLT ISZERO PUSH3 0x14C JUMPI PUSH3 0x14B PUSH3 0xBC JUMP JUMPDEST JUMPDEST PUSH0 PUSH3 0x15B DUP5 DUP3 DUP6 ADD PUSH3 0x11E JUMP JUMPDEST SWAP2 POP POP SWAP3 SWAP2 POP POP JUMP JUMPDEST PUSH2 0x15D3 DUP1 PUSH3 0x172 PUSH0 CODECOPY PUSH0 RETURN INVALID PUSH1 0x80 PUSH1 0x40 MSTORE CALLVALUE DUP1 ISZERO PUSH2 0xF JUMPI PUSH0 DUP1 REVERT JUMPDEST POP PUSH1 0x4 CALLDATASIZE LT PUSH2 0x91 JUMPI PUSH0 CALLDATALOAD PUSH1 0xE0 SHR DUP1 PUSH4 0xA96F8668 GT PUSH2 0x64 JUMPI DUP1 PUSH4 0xA96F8668 EQ PUSH2 0x11D JUMPI DUP1 PUSH4 0xF035A272 EQ PUSH2 0x127 JUMPI DUP1 PUSH4 0xF8B2CB4F EQ PUSH2 0x143 JUMPI DUP1 PUSH4 0xFC0C546A EQ PUSH2 0x173 JUMPI DUP1 PUSH4 0xFDB20CCB EQ PUSH2 0x191 JUMPI PUSH2 0x91 JUMP JUMPDEST DUP1 PUSH4 0x4495E827 EQ PUSH2 0x95 JUMPI DUP1 PUSH4 0x557ED1BA EQ PUSH2 0xB1 JUMPI DUP1 PUSH4 0x7DC8A8AA EQ PUSH2 0xCF JUMPI DUP1 PUSH4 0x8DA5CB5B EQ PUSH2 0xFF JUMPI JUMPDEST PUSH0 DUP1 REVERT JUMPDEST PUSH2 0xAF PUSH1 0x4 DUP1 CALLDATASIZE SUB DUP2 ADD SWAP1 PUSH2 0xAA SWAP2 SWAP1 PUSH2 0xCF7 JUMP JUMPDEST PUSH2 0x1C8 JUMP JUMPDEST STOP JUMPDEST PUSH2 0xB9 PUSH2 0x40C JUMP JUMPDEST PUSH1 0x40 MLOAD PUSH2 0xC6 SWAP2 SWAP1 PUSH2 0xDA3 JUMP JUMPDEST PUSH1 0x40 MLOAD DUP1 SWAP2 SUB SWAP1 RETURN JUMPDEST PUSH2 0xE9 PUSH1 0x4 DUP1 CALLDATASIZE SUB DUP2 ADD SWAP1 PUSH2 0xE4 SWAP2 SWAP1 PUSH2 0xDBC JUMP JUMPDEST PUSH2 0x413 JUMP JUMPDEST PUSH1 0x40 MLOAD PUSH2 0xF6 SWAP2 SWAP1 PUSH2 0xDA3 JUMP JUMPDEST PUSH1 0x40 MLOAD DUP1 SWAP2 SUB SWAP1 RETURN JUMPDEST PUSH2 0x107 PUSH2 0x5B1 JUMP JUMPDEST PUSH1 0x40 MLOAD PUSH2 0x114 SWAP2 SWAP1 PUSH2 0xDF6 JUMP JUMPDEST PUSH1 0x40 MLOAD DUP1 SWAP2 SUB SWAP1 RETURN JUMPDEST PUSH2 0x125 PUSH2 0x5D4 JUMP JUMPDEST STOP JUMPDEST PUSH2 0x141 PUSH1 0x4 DUP1 CALLDATASIZE SUB DUP2 ADD SWAP1 PUSH2 0x13C SWAP2 SWAP1 PUSH2 0xDBC JUMP JUMPDEST PUSH2 0x806 JUMP JUMPDEST STOP JUMPDEST PUSH2 0x15D PUSH1 0x4 DUP1 CALLDATASIZE SUB DUP2 ADD SWAP1 PUSH2 0x158 SWAP2 SWAP1 PUSH2 0xDBC JUMP JUMPDEST PUSH2 0xABB JUMP JUMPDEST PUSH1 0x40 MLOAD PUSH2 0x16A SWAP2 SWAP1 PUSH2 0xDA3 JUMP JUMPDEST PUSH1 0x40 MLOAD DUP1 SWAP2 SUB SWAP1 RETURN JUMPDEST PUSH2 0x17B PUSH2 0xB5C JUMP JUMPDEST PUSH1 0x40 MLOAD PUSH2 0x188 SWAP2 SWAP1 PUSH2 0xE6A JUMP JUMPDEST PUSH1 0x40 MLOAD DUP1 SWAP2 SUB SWAP1 RETURN JUMPDEST PUSH2 0x1AB PUSH1 0x4 DUP1 CALLDATASIZE SUB DUP2 ADD SWAP1 PUSH2 0x1A6 SWAP2 SWAP1 PUSH2 0xDBC JUMP JUMPDEST PUSH2 0xB81 JUMP JUMPDEST PUSH1 0x40 MLOAD PUSH2 0x1BF SWAP9 SWAP8 SWAP7 SWAP6 SWAP5 SWAP4 SWAP3 SWAP2 SWAP1 PUSH2 0xE92 JUMP JUMPDEST PUSH1 0x40 MLOAD DUP1 SWAP2 SUB SWAP1 RETURN JUMPDEST PUSH0 DUP1 SLOAD SWAP1 PUSH2 0x100 EXP SWAP1 DIV PUSH20 0xFFFFFFFFFFFFFFFFFFFFFFFFFFFFFFFFFFFFFFFF AND PUSH20 0xFFFFFFFFFFFFFFFFFFFFFFFFFFFFFFFFFFFFFFFF AND CALLER PUSH20 0xFFFFFFFFFFFFFFFFFFFFFFFFFFFFFFFFFFFFFFFF AND EQ PUSH2 0x255 JUMPI PUSH1 0x40 MLOAD PUSH32 0x8C379A000000000000000000000000000000000000000000000000000000000 DUP2 MSTORE PUSH1 0x4 ADD PUSH2 0x24C SWAP1 PUSH2 0xF68 JUMP JUMPDEST PUSH1 0x40 MLOAD DUP1 SWAP2 SUB SWAP1 REVERT JUMPDEST PUSH0 PUSH1 0x2 PUSH0 DUP10 PUSH20 0xFFFFFFFFFFFFFFFFFFFFFFFFFFFFFFFFFFFFFFFF AND PUSH20 0xFFFFFFFFFFFFFFFFFFFFFFFFFFFFFFFFFFFFFFFF AND DUP2 MSTORE PUSH1 0x20 ADD SWAP1 DUP2 MSTORE PUSH1 0x20 ADD PUSH0 KECCAK256 PUSH0 ADD SLOAD EQ PUSH2 0x2D6 JUMPI PUSH1 0x40 MLOAD PUSH32 0x8C379A000000000000000000000000000000000000000000000000000000000 DUP2 MSTORE PUSH1 0x4 ADD PUSH2 0x2CD SWAP1 PUSH2 0xFF6 JUMP JUMPDEST PUSH1 0x40 MLOAD DUP1 SWAP2 SUB SWAP1 REVERT JUMPDEST PUSH0 DUP3 GT DUP1 ISZERO PUSH2 0x2E4 JUMPI POP PUSH0 DUP5 GT JUMPDEST PUSH2 0x323 JUMPI PUSH1 0x40 MLOAD PUSH32 0x8C379A000000000000000000000000000000000000000000000000000000000 DUP2 MSTORE PUSH1 0x4 ADD PUSH2 0x31A SWAP1 PUSH2 0x1084 JUMP JUMPDEST PUSH1 0x40 MLOAD DUP1 SWAP2 SUB SWAP1 REVERT JUMPDEST PUSH0 PUSH1 0x2 PUSH0 DUP10 PUSH20 0xFFFFFFFFFFFFFFFFFFFFFFFFFFFFFFFFFFFFFFFF AND PUSH20 0xFFFFFFFFFFFFFFFFFFFFFFFFFFFFFFFFFFFFFFFF AND DUP2 MSTORE PUSH1 0x20 ADD SWAP1 DUP2 MSTORE PUSH1 0x20 ADD PUSH0 KECCAK256 SWAP1 POP DUP7 DUP2 PUSH0 ADD DUP2 SWAP1 SSTORE POP DUP6 DUP2 PUSH1 0x1 ADD DUP2 SWAP1 SSTORE POP DUP5 DUP2 PUSH1 0x2 ADD DUP2 SWAP1 SSTORE POP DUP4 DUP2 PUSH1 0x3 ADD DUP2 SWAP1 SSTORE POP DUP3 DUP2 PUSH1 0x4 ADD DUP2 SWAP1 SSTORE POP DUP2 DUP2 PUSH1 0x5 ADD PUSH0 PUSH2 0x100 EXP DUP2 SLOAD DUP2 PUSH1 0xFF MUL NOT AND SWAP1 DUP4 ISZERO ISZERO MUL OR SWAP1 SSTORE POP DUP8 PUSH20 0xFFFFFFFFFFFFFFFFFFFFFFFFFFFFFFFFFFFFFFFF AND PUSH32 0xBEA02A5045606A667FF06EB235C005B4F95B55A10C174B5AAE63BA6BE2AE9808 DUP9 DUP9 DUP9 DUP9 DUP9 DUP9 PUSH1 0x40 MLOAD PUSH2 0x3FA SWAP7 SWAP6 SWAP5 SWAP4 SWAP3 SWAP2 SWAP1 PUSH2 0x10A2 JUMP JUMPDEST PUSH1 0x40 MLOAD DUP1 SWAP2 SUB SWAP1 LOG2 POP POP POP POP POP POP POP POP JUMP JUMPDEST PUSH0 TIMESTAMP SWAP1 POP SWAP1 JUMP JUMPDEST PUSH0 DUP1 PUSH1 0x2 PUSH0 DUP5 PUSH20 0xFFFFFFFFFFFFFFFFFFFFFFFFFFFFFFFFFFFFFFFF AND PUSH20 0xFFFFFFFFFFFFFFFFFFFFFFFFFFFFFFFFFFFFFFFF AND DUP2 MSTORE PUSH1 0x20 ADD SWAP1 DUP2 MSTORE PUSH1 0x20 ADD PUSH0 KECCAK256 PUSH1 0x40 MLOAD DUP1 PUSH2 0x100 ADD PUSH1 0x40 MSTORE SWAP1 DUP2 PUSH0 DUP3 ADD SLOAD DUP2 MSTORE PUSH1 0x20 ADD PUSH1 0x1 DUP3 ADD SLOAD DUP2 MSTORE PUSH1 0x20 ADD PUSH1 0x2 DUP3 ADD SLOAD DUP2 MSTORE PUSH1 0x20 ADD PUSH1 0x3 DUP3 ADD SLOAD DUP2 MSTORE PUSH1 0x20 ADD PUSH1 0x4 DUP3 ADD SLOAD DUP2 MSTORE PUSH1 0x20 ADD PUSH1 0x5 DUP3 ADD PUSH0 SWAP1 SLOAD SWAP1 PUSH2 0x100 EXP SWAP1 DIV PUSH1 0xFF AND ISZERO ISZERO ISZERO ISZERO DUP2 MSTORE PUSH1 0x20 ADD PUSH1 0x6 DUP3 ADD SLOAD DUP2 MSTORE PUSH1 0x20 ADD PUSH1 0x7 DUP3 ADD PUSH0 SWAP1 SLOAD SWAP1 PUSH2 0x100 EXP SWAP1 DIV PUSH1 0xFF AND ISZERO ISZERO ISZERO ISZERO DUP2 MSTORE POP POP SWAP1 POP PUSH2 0x4E9 DUP2 PUSH1 0x20 ADD MLOAD DUP3 PUSH0 ADD MLOAD PUSH2 0xBDD SWAP1 SWAP2 SWAP1 PUSH4 0xFFFFFFFF AND JUMP JUMPDEST TIMESTAMP LT ISZERO PUSH2 0x4F9 JUMPI PUSH0 SWAP2 POP POP PUSH2 0x5AC JUMP JUMPDEST PUSH0 PUSH2 0x526 DUP3 PUSH1 0x20 ADD MLOAD PUSH2 0x518 DUP5 PUSH0 ADD MLOAD TIMESTAMP PUSH2 0xBF2 SWAP1 SWAP2 SWAP1 PUSH4 0xFFFFFFFF AND JUMP JUMPDEST PUSH2 0xBF2 SWAP1 SWAP2 SWAP1 PUSH4 0xFFFFFFFF AND JUMP JUMPDEST SWAP1 POP PUSH0 PUSH2 0x544 DUP4 PUSH1 0x60 ADD MLOAD DUP5 PUSH1 0x40 ADD MLOAD PUSH2 0xC07 SWAP1 SWAP2 SWAP1 PUSH4 0xFFFFFFFF AND JUMP JUMPDEST SWAP1 POP PUSH0 PUSH2 0x55E DUP5 PUSH1 0x60 ADD MLOAD DUP5 PUSH2 0xC07 SWAP1 SWAP2 SWAP1 PUSH4 0xFFFFFFFF AND JUMP JUMPDEST SWAP1 POP DUP2 DUP2 LT PUSH2 0x577 JUMPI DUP4 PUSH1 0x80 ADD MLOAD SWAP5 POP POP POP POP POP PUSH2 0x5AC JUMP JUMPDEST PUSH0 PUSH2 0x58F DUP4 DUP7 PUSH1 0x80 ADD MLOAD PUSH2 0xC07 SWAP1 SWAP2 SWAP1 PUSH4 0xFFFFFFFF AND JUMP JUMPDEST SWAP1 POP PUSH2 0x5A4 DUP3 DUP3 PUSH2 0xC1C SWAP1 SWAP2 SWAP1 PUSH4 0xFFFFFFFF AND JUMP JUMPDEST SWAP6 POP POP POP POP POP POP JUMPDEST SWAP2 SWAP1 POP JUMP JUMPDEST PUSH0 DUP1 SLOAD SWAP1 PUSH2 0x100 EXP SWAP1 DIV PUSH20 0xFFFFFFFFFFFFFFFFFFFFFFFFFFFFFFFFFFFFFFFF AND DUP2 JUMP JUMPDEST PUSH0 PUSH1 0x2 PUSH0 CALLER PUSH20 0xFFFFFFFFFFFFFFFFFFFFFFFFFFFFFFFFFFFFFFFF AND PUSH20 0xFFFFFFFFFFFFFFFFFFFFFFFFFFFFFFFFFFFFFFFF AND DUP2 MSTORE PUSH1 0x20 ADD SWAP1 DUP2 MSTORE PUSH1 0x20 ADD PUSH0 KECCAK256 SWAP1 POP PUSH0 DUP2 PUSH0 ADD SLOAD GT PUSH2 0x659 JUMPI PUSH1 0x40 MLOAD PUSH32 0x8C379A000000000000000000000000000000000000000000000000000000000 DUP2 MSTORE PUSH1 0x4 ADD PUSH2 0x650 SWAP1 PUSH2 0x1171 JUMP JUMPDEST PUSH1 0x40 MLOAD DUP1 SWAP2 SUB SWAP1 REVERT JUMPDEST DUP1 PUSH1 0x7 ADD PUSH0 SWAP1 SLOAD SWAP1 PUSH2 0x100 EXP SWAP1 DIV PUSH1 0xFF AND ISZERO PUSH2 0x6AA JUMPI PUSH1 0x40 MLOAD PUSH32 0x8C379A000000000000000000000000000000000000000000000000000000000 DUP2 MSTORE PUSH1 0x4 ADD PUSH2 0x6A1 SWAP1 PUSH2 0x11FF JUMP JUMPDEST PUSH1 0x40 MLOAD DUP1 SWAP2 SUB SWAP1 REVERT JUMPDEST PUSH0 PUSH2 0x6B4 CALLER PUSH2 0x413 JUMP JUMPDEST SWAP1 POP PUSH0 DUP2 GT PUSH2 0x6F8 JUMPI PUSH1 0x40 MLOAD PUSH32 0x8C379A000000000000000000000000000000000000000000000000000000000 DUP2 MSTORE PUSH1 0x4 ADD PUSH2 0x6EF SWAP1 PUSH2 0x128D JUMP JUMPDEST PUSH1 0x40 MLOAD DUP1 SWAP2 SUB SWAP1 REVERT JUMPDEST PUSH2 0x70F DUP2 DUP4 PUSH1 0x6 ADD SLOAD PUSH2 0xBDD SWAP1 SWAP2 SWAP1 PUSH4 0xFFFFFFFF AND JUMP JUMPDEST DUP3 PUSH1 0x6 ADD DUP2 SWAP1 SSTORE POP PUSH1 0x1 PUSH0 SWAP1 SLOAD SWAP1 PUSH2 0x100 EXP SWAP1 DIV PUSH20 0xFFFFFFFFFFFFFFFFFFFFFFFFFFFFFFFFFFFFFFFF AND PUSH20 0xFFFFFFFFFFFFFFFFFFFFFFFFFFFFFFFFFFFFFFFF AND PUSH4 0xA9059CBB CALLER DUP4 PUSH1 0x40 MLOAD DUP4 PUSH4 0xFFFFFFFF AND PUSH1 0xE0 SHL DUP2 MSTORE PUSH1 0x4 ADD PUSH2 0x773 SWAP3 SWAP2 SWAP1 PUSH2 0x12AB JUMP JUMPDEST PUSH1 0x20 PUSH1 0x40 MLOAD DUP1 DUP4 SUB DUP2 PUSH0 DUP8 GAS CALL ISZERO DUP1 ISZERO PUSH2 0x78F JUMPI RETURNDATASIZE PUSH0 DUP1 RETURNDATACOPY RETURNDATASIZE PUSH0 REVERT JUMPDEST POP POP POP POP PUSH1 0x40 MLOAD RETURNDATASIZE PUSH1 0x1F NOT PUSH1 0x1F DUP3 ADD AND DUP3 ADD DUP1 PUSH1 0x40 MSTORE POP DUP2 ADD SWAP1 PUSH2 0x7B3 SWAP2 SWAP1 PUSH2 0x12E6 JUMP JUMPDEST POP CALLER PUSH20 0xFFFFFFFFFFFFFFFFFFFFFFFFFFFFFFFFFFFFFFFF AND PUSH32 0xC7798891864187665AC6DD119286E44EC13F014527AEEB2B8EB3FD413DF93179 DUP3 PUSH1 0x40 MLOAD PUSH2 0x7FA SWAP2 SWAP1 PUSH2 0xDA3 JUMP JUMPDEST PUSH1 0x40 MLOAD DUP1 SWAP2 SUB SWAP1 LOG2 POP POP JUMP JUMPDEST PUSH0 DUP1 SLOAD SWAP1 PUSH2 0x100 EXP SWAP1 DIV PUSH20 0xFFFFFFFFFFFFFFFFFFFFFFFFFFFFFFFFFFFFFFFF AND PUSH20 0xFFFFFFFFFFFFFFFFFFFFFFFFFFFFFFFFFFFFFFFF AND CALLER PUSH20 0xFFFFFFFFFFFFFFFFFFFFFFFFFFFFFFFFFFFFFFFF AND EQ PUSH2 0x893 JUMPI PUSH1 0x40 MLOAD PUSH32 0x8C379A000000000000000000000000000000000000000000000000000000000 DUP2 MSTORE PUSH1 0x4 ADD PUSH2 0x88A SWAP1 PUSH2 0xF68 JUMP JUMPDEST PUSH1 0x40 MLOAD DUP1 SWAP2 SUB SWAP1 REVERT JUMPDEST PUSH0 PUSH1 0x2 PUSH0 DUP4 PUSH20 0xFFFFFFFFFFFFFFFFFFFFFFFFFFFFFFFFFFFFFFFF AND PUSH20 0xFFFFFFFFFFFFFFFFFFFFFFFFFFFFFFFFFFFFFFFF AND DUP2 MSTORE PUSH1 0x20 ADD SWAP1 DUP2 MSTORE PUSH1 0x20 ADD PUSH0 KECCAK256 SWAP1 POP DUP1 PUSH1 0x5 ADD PUSH0 SWAP1 SLOAD SWAP1 PUSH2 0x100 EXP SWAP1 DIV PUSH1 0xFF AND PUSH2 0x923 JUMPI PUSH1 0x40 MLOAD PUSH32 0x8C379A000000000000000000000000000000000000000000000000000000000 DUP2 MSTORE PUSH1 0x4 ADD PUSH2 0x91A SWAP1 PUSH2 0x1381 JUMP JUMPDEST PUSH1 0x40 MLOAD DUP1 SWAP2 SUB SWAP1 REVERT JUMPDEST DUP1 PUSH1 0x7 ADD PUSH0 SWAP1 SLOAD SWAP1 PUSH2 0x100 EXP SWAP1 DIV PUSH1 0xFF AND ISZERO PUSH2 0x974 JUMPI PUSH1 0x40 MLOAD PUSH32 0x8C379A000000000000000000000000000000000000000000000000000000000 DUP2 MSTORE PUSH1 0x4 ADD PUSH2 0x96B SWAP1 PUSH2 0x140F JUMP JUMPDEST PUSH1 0x40 MLOAD DUP1 SWAP2 SUB SWAP1 REVERT JUMPDEST PUSH1 0x1 DUP2 PUSH1 0x7 ADD PUSH0 PUSH2 0x100 EXP DUP2 SLOAD DUP2 PUSH1 0xFF MUL NOT AND SWAP1 DUP4 ISZERO ISZERO MUL OR SWAP1 SSTORE POP PUSH0 PUSH2 0x9AC DUP3 PUSH1 0x6 ADD SLOAD DUP4 PUSH1 0x4 ADD SLOAD PUSH2 0xBF2 SWAP1 SWAP2 SWAP1 PUSH4 0xFFFFFFFF AND JUMP JUMPDEST SWAP1 POP PUSH0 DUP2 GT ISZERO PUSH2 0xA73 JUMPI PUSH1 0x1 PUSH0 SWAP1 SLOAD SWAP1 PUSH2 0x100 EXP SWAP1 DIV PUSH20 0xFFFFFFFFFFFFFFFFFFFFFFFFFFFFFFFFFFFFFFFF AND PUSH20 0xFFFFFFFFFFFFFFFFFFFFFFFFFFFFFFFFFFFFFFFF AND PUSH4 0xA9059CBB PUSH0 DUP1 SLOAD SWAP1 PUSH2 0x100 EXP SWAP1 DIV PUSH20 0xFFFFFFFFFFFFFFFFFFFFFFFFFFFFFFFFFFFFFFFF AND DUP4 PUSH1 0x40 MLOAD DUP4 PUSH4 0xFFFFFFFF AND PUSH1 0xE0 SHL DUP2 MSTORE PUSH1 0x4 ADD PUSH2 0xA31 SWAP3 SWAP2 SWAP1 PUSH2 0x12AB JUMP JUMPDEST PUSH1 0x20 PUSH1 0x40 MLOAD DUP1 DUP4 SUB DUP2 PUSH0 DUP8 GAS CALL ISZERO DUP1 ISZERO PUSH2 0xA4D JUMPI RETURNDATASIZE PUSH0 DUP1 RETURNDATACOPY RETURNDATASIZE PUSH0 REVERT JUMPDEST POP POP POP POP PUSH1 0x40 MLOAD RETURNDATASIZE PUSH1 0x1F NOT PUSH1 0x1F DUP3 ADD AND DUP3 ADD DUP1 PUSH1 0x40 MSTORE POP DUP2 ADD SWAP1 PUSH2 0xA71 SWAP2 SWAP1 PUSH2 0x12E6 JUMP JUMPDEST POP JUMPDEST DUP3 PUSH20 0xFFFFFFFFFFFFFFFFFFFFFFFFFFFFFFFFFFFFFFFF AND PUSH32 0x68D870AC0AFF3819234E8A1FC8F357B40D75212F2DC8594B97690FA205B3BAB2 PUSH1 0x40 MLOAD PUSH1 0x40 MLOAD DUP1 SWAP2 SUB SWAP1 LOG2 POP POP POP JUMP JUMPDEST PUSH0 PUSH1 0x1 PUSH0 SWAP1 SLOAD SWAP1 PUSH2 0x100 EXP SWAP1 DIV PUSH20 0xFFFFFFFFFFFFFFFFFFFFFFFFFFFFFFFFFFFFFFFF AND PUSH20 0xFFFFFFFFFFFFFFFFFFFFFFFFFFFFFFFFFFFFFFFF AND PUSH4 0x70A08231 DUP4 PUSH1 0x40 MLOAD DUP3 PUSH4 0xFFFFFFFF AND PUSH1 0xE0 SHL DUP2 MSTORE PUSH1 0x4 ADD PUSH2 0xB16 SWAP2 SWAP1 PUSH2 0xDF6 JUMP JUMPDEST PUSH1 0x20 PUSH1 0x40 MLOAD DUP1 DUP4 SUB DUP2 DUP7 GAS STATICCALL ISZERO DUP1 ISZERO PUSH2 0xB31 JUMPI RETURNDATASIZE PUSH0 DUP1 RETURNDATACOPY RETURNDATASIZE PUSH0 REVERT JUMPDEST POP POP POP POP PUSH1 0x40 MLOAD RETURNDATASIZE PUSH1 0x1F NOT PUSH1 0x1F DUP3 ADD AND DUP3 ADD DUP1 PUSH1 0x40 MSTORE POP DUP2 ADD SWAP1 PUSH2 0xB55 SWAP2 SWAP1 PUSH2 0x1441 JUMP JUMPDEST SWAP1 POP SWAP2 SWAP1 POP JUMP JUMPDEST PUSH1 0x1 PUSH0 SWAP1 SLOAD SWAP1 PUSH2 0x100 EXP SWAP1 DIV PUSH20 0xFFFFFFFFFFFFFFFFFFFFFFFFFFFFFFFFFFFFFFFF AND DUP2 JUMP JUMPDEST PUSH1 0x2 PUSH1 0x20 MSTORE DUP1 PUSH0 MSTORE PUSH1 0x40 PUSH0 KECCAK256 PUSH0 SWAP2 POP SWAP1 POP DUP1 PUSH0 ADD SLOAD SWAP1 DUP1 PUSH1 0x1 ADD SLOAD SWAP1 DUP1 PUSH1 0x2 ADD SLOAD SWAP1 DUP1 PUSH1 0x3 ADD SLOAD SWAP1 DUP1 PUSH1 0x4 ADD SLOAD SWAP1 DUP1 PUSH1 0x5 ADD PUSH0 SWAP1 SLOAD SWAP1 PUSH2 0x100 EXP SWAP1 DIV PUSH1 0xFF AND SWAP1 DUP1 PUSH1 0x6 ADD SLOAD SWAP1 DUP1 PUSH1 0x7 ADD PUSH0 SWAP1 SLOAD SWAP1 PUSH2 0x100 EXP SWAP1 DIV PUSH1 0xFF AND SWAP1 POP DUP9 JUMP JUMPDEST PUSH0 DUP2 DUP4 PUSH2 0xBEA SWAP2 SWAP1 PUSH2 0x1499 JUMP JUMPDEST SWAP1 POP SWAP3 SWAP2 POP POP JUMP JUMPDEST PUSH0 DUP2 DUP4 PUSH2 0xBFF SWAP2 SWAP1 PUSH2 0x14CC JUMP JUMPDEST SWAP1 POP SWAP3 SWAP2 POP POP JUMP JUMPDEST PUSH0 DUP2 DUP4 PUSH2 0xC14 SWAP2 SWAP1 PUSH2 0x152C JUMP JUMPDEST SWAP1 POP SWAP3 SWAP2 POP POP JUMP JUMPDEST PUSH0 DUP2 DUP4 PUSH2 0xC29 SWAP2 SWAP1 PUSH2 0x155C JUMP JUMPDEST SWAP1 POP SWAP3 SWAP2 POP POP JUMP JUMPDEST PUSH0 DUP1 REVERT JUMPDEST PUSH0 PUSH20 0xFFFFFFFFFFFFFFFFFFFFFFFFFFFFFFFFFFFFFFFF DUP3 AND SWAP1 POP SWAP2 SWAP1 POP JUMP JUMPDEST PUSH0 PUSH2 0xC5E DUP3 PUSH2 0xC35 JUMP JUMPDEST SWAP1 POP SWAP2 SWAP1 POP JUMP JUMPDEST PUSH2 0xC6E DUP2 PUSH2 0xC54 JUMP JUMPDEST DUP2 EQ PUSH2 0xC78 JUMPI PUSH0 DUP1 REVERT JUMPDEST POP JUMP JUMPDEST PUSH0 DUP2 CALLDATALOAD SWAP1 POP PUSH2 0xC89 DUP2 PUSH2 0xC65 JUMP JUMPDEST SWAP3 SWAP2 POP POP JUMP JUMPDEST PUSH0 DUP2 SWAP1 POP SWAP2 SWAP1 POP JUMP JUMPDEST PUSH2 0xCA1 DUP2 PUSH2 0xC8F JUMP JUMPDEST DUP2 EQ PUSH2 0xCAB JUMPI PUSH0 DUP1 REVERT JUMPDEST POP JUMP JUMPDEST PUSH0 DUP2 CALLDATALOAD SWAP1 POP PUSH2 0xCBC DUP2 PUSH2 0xC98 JUMP JUMPDEST SWAP3 SWAP2 POP POP JUMP JUMPDEST PUSH0 DUP2 ISZERO ISZERO SWAP1 POP SWAP2 SWAP1 POP JUMP JUMPDEST PUSH2 0xCD6 DUP2 PUSH2 0xCC2 JUMP JUMPDEST DUP2 EQ PUSH2 0xCE0 JUMPI PUSH0 DUP1 REVERT JUMPDEST POP JUMP JUMPDEST PUSH0 DUP2 CALLDATALOAD SWAP1 POP PUSH2 0xCF1 DUP2 PUSH2 0xCCD JUMP JUMPDEST SWAP3 SWAP2 POP POP JUMP JUMPDEST PUSH0 DUP1 PUSH0 DUP1 PUSH0 DUP1 PUSH0 PUSH1 0xE0 DUP9 DUP11 SUB SLT ISZERO PUSH2 0xD12 JUMPI PUSH2 0xD11 PUSH2 0xC31 JUMP JUMPDEST JUMPDEST PUSH0 PUSH2 0xD1F DUP11 DUP3 DUP12 ADD PUSH2 0xC7B JUMP JUMPDEST SWAP8 POP POP PUSH1 0x20 PUSH2 0xD30 DUP11 DUP3 DUP12 ADD PUSH2 0xCAE JUMP JUMPDEST SWAP7 POP POP PUSH1 0x40 PUSH2 0xD41 DUP11 DUP3 DUP12 ADD PUSH2 0xCAE JUMP JUMPDEST SWAP6 POP POP PUSH1 0x60 PUSH2 0xD52 DUP11 DUP3 DUP12 ADD PUSH2 0xCAE JUMP JUMPDEST SWAP5 POP POP PUSH1 0x80 PUSH2 0xD63 DUP11 DUP3 DUP12 ADD PUSH2 0xCAE JUMP JUMPDEST SWAP4 POP POP PUSH1 0xA0 PUSH2 0xD74 DUP11 DUP3 DUP12 ADD PUSH2 0xCAE JUMP JUMPDEST SWAP3 POP POP PUSH1 0xC0 PUSH2 0xD85 DUP11 DUP3 DUP12 ADD PUSH2 0xCE3 JUMP JUMPDEST SWAP2 POP POP SWAP3 SWAP6 SWAP9 SWAP2 SWAP5 SWAP8 POP SWAP3 SWAP6 POP JUMP JUMPDEST PUSH2 0xD9D DUP2 PUSH2 0xC8F JUMP JUMPDEST DUP3 MSTORE POP POP JUMP JUMPDEST PUSH0 PUSH1 0x20 DUP3 ADD SWAP1 POP PUSH2 0xDB6 PUSH0 DUP4 ADD DUP5 PUSH2 0xD94 JUMP JUMPDEST SWAP3 SWAP2 POP POP JUMP JUMPDEST PUSH0 PUSH1 0x20 DUP3 DUP5 SUB SLT ISZERO PUSH2 0xDD1 JUMPI PUSH2 0xDD0 PUSH2 0xC31 JUMP JUMPDEST JUMPDEST PUSH0 PUSH2 0xDDE DUP5 DUP3 DUP6 ADD PUSH2 0xC7B JUMP JUMPDEST SWAP2 POP POP SWAP3 SWAP2 POP POP JUMP JUMPDEST PUSH2 0xDF0 DUP2 PUSH2 0xC54 JUMP JUMPDEST DUP3 MSTORE POP POP JUMP JUMPDEST PUSH0 PUSH1 0x20 DUP3 ADD SWAP1 POP PUSH2 0xE09 PUSH0 DUP4 ADD DUP5 PUSH2 0xDE7 JUMP JUMPDEST SWAP3 SWAP2 POP POP JUMP JUMPDEST PUSH0 DUP2 SWAP1 POP SWAP2 SWAP1 POP JUMP JUMPDEST PUSH0 PUSH2 0xE32 PUSH2 0xE2D PUSH2 0xE28 DUP5 PUSH2 0xC35 JUMP JUMPDEST PUSH2 0xE0F JUMP JUMPDEST PUSH2 0xC35 JUMP JUMPDEST SWAP1 POP SWAP2 SWAP1 POP JUMP JUMPDEST PUSH0 PUSH2 0xE43 DUP3 PUSH2 0xE18 JUMP JUMPDEST SWAP1 POP SWAP2 SWAP1 POP JUMP JUMPDEST PUSH0 PUSH2 0xE54 DUP3 PUSH2 0xE39 JUMP JUMPDEST SWAP1 POP SWAP2 SWAP1 POP JUMP JUMPDEST PUSH2 0xE64 DUP2 PUSH2 0xE4A JUMP JUMPDEST DUP3 MSTORE POP POP JUMP JUMPDEST PUSH0 PUSH1 0x20 DUP3 ADD SWAP1 POP PUSH2 0xE7D PUSH0 DUP4 ADD DUP5 PUSH2 0xE5B JUMP JUMPDEST SWAP3 SWAP2 POP POP JUMP JUMPDEST PUSH2 0xE8C DUP2 PUSH2 0xCC2 JUMP JUMPDEST DUP3 MSTORE POP POP JUMP JUMPDEST PUSH0 PUSH2 0x100 DUP3 ADD SWAP1 POP PUSH2 0xEA6 PUSH0 DUP4 ADD DUP12 PUSH2 0xD94 JUMP JUMPDEST PUSH2 0xEB3 PUSH1 0x20 DUP4 ADD DUP11 PUSH2 0xD94 JUMP JUMPDEST PUSH2 0xEC0 PUSH1 0x40 DUP4 ADD DUP10 PUSH2 0xD94 JUMP JUMPDEST PUSH2 0xECD PUSH1 0x60 DUP4 ADD DUP9 PUSH2 0xD94 JUMP JUMPDEST PUSH2 0xEDA PUSH1 0x80 DUP4 ADD DUP8 PUSH2 0xD94 JUMP JUMPDEST PUSH2 0xEE7 PUSH1 0xA0 DUP4 ADD DUP7 PUSH2 0xE83 JUMP JUMPDEST PUSH2 0xEF4 PUSH1 0xC0 DUP4 ADD DUP6 PUSH2 0xD94 JUMP JUMPDEST PUSH2 0xF01 PUSH1 0xE0 DUP4 ADD DUP5 PUSH2 0xE83 JUMP JUMPDEST SWAP10 SWAP9 POP POP POP POP POP POP POP POP POP JUMP JUMPDEST PUSH0 DUP3 DUP3 MSTORE PUSH1 0x20 DUP3 ADD SWAP1 POP SWAP3 SWAP2 POP POP JUMP JUMPDEST PUSH32 0x4E6F7420746865206F776E657200000000000000000000000000000000000000 PUSH0 DUP3 ADD MSTORE POP JUMP JUMPDEST PUSH0 PUSH2 0xF52 PUSH1 0xD DUP4 PUSH2 0xF0E JUMP JUMPDEST SWAP2 POP PUSH2 0xF5D DUP3 PUSH2 0xF1E JUMP JUMPDEST PUSH1 0x20 DUP3 ADD SWAP1 POP SWAP2 SWAP1 POP JUMP JUMPDEST PUSH0 PUSH1 0x20 DUP3 ADD SWAP1 POP DUP2 DUP2 SUB PUSH0 DUP4 ADD MSTORE PUSH2 0xF7F DUP2 PUSH2 0xF46 JUMP JUMPDEST SWAP1 POP SWAP2 SWAP1 POP JUMP JUMPDEST PUSH32 0x56657374696E67207363686564756C6520616C72656164792065786973747320 PUSH0 DUP3 ADD MSTORE PUSH32 0x5B696E2063726561746556657374696E675363686564756C6528295D00000000 PUSH1 0x20 DUP3 ADD MSTORE POP JUMP JUMPDEST PUSH0 PUSH2 0xFE0 PUSH1 0x3C DUP4 PUSH2 0xF0E JUMP JUMPDEST SWAP2 POP PUSH2 0xFEB DUP3 PUSH2 0xF86 JUMP JUMPDEST PUSH1 0x40 DUP3 ADD SWAP1 POP SWAP2 SWAP1 POP JUMP JUMPDEST PUSH0 PUSH1 0x20 DUP3 ADD SWAP1 POP DUP2 DUP2 SUB PUSH0 DUP4 ADD MSTORE PUSH2 0x100D DUP2 PUSH2 0xFD4 JUMP JUMPDEST SWAP1 POP SWAP2 SWAP1 POP JUMP JUMPDEST PUSH32 0x496E76616C69642076657374696E6720706172616D6574657273205B696E2063 PUSH0 DUP3 ADD MSTORE PUSH32 0x726561746556657374696E675363686564756C6528295D000000000000000000 PUSH1 0x20 DUP3 ADD MSTORE POP JUMP JUMPDEST PUSH0 PUSH2 0x106E PUSH1 0x37 DUP4 PUSH2 0xF0E JUMP JUMPDEST SWAP2 POP PUSH2 0x1079 DUP3 PUSH2 0x1014 JUMP JUMPDEST PUSH1 0x40 DUP3 ADD SWAP1 POP SWAP2 SWAP1 POP JUMP JUMPDEST PUSH0 PUSH1 0x20 DUP3 ADD SWAP1 POP DUP2 DUP2 SUB PUSH0 DUP4 ADD MSTORE PUSH2 0x109B DUP2 PUSH2 0x1062 JUMP JUMPDEST SWAP1 POP SWAP2 SWAP1 POP JUMP JUMPDEST PUSH0 PUSH1 0xC0 DUP3 ADD SWAP1 POP PUSH2 0x10B5 PUSH0 DUP4 ADD DUP10 PUSH2 0xD94 JUMP JUMPDEST PUSH2 0x10C2 PUSH1 0x20 DUP4 ADD DUP9 PUSH2 0xD94 JUMP JUMPDEST PUSH2 0x10CF PUSH1 0x40 DUP4 ADD DUP8 PUSH2 0xD94 JUMP JUMPDEST PUSH2 0x10DC PUSH1 0x60 DUP4 ADD DUP7 PUSH2 0xD94 JUMP JUMPDEST PUSH2 0x10E9 PUSH1 0x80 DUP4 ADD DUP6 PUSH2 0xD94 JUMP JUMPDEST PUSH2 0x10F6 PUSH1 0xA0 DUP4 ADD DUP5 PUSH2 0xE83 JUMP JUMPDEST SWAP8 SWAP7 POP POP POP POP POP POP POP JUMP JUMPDEST PUSH32 0x4E6F2076657374696E67207363686564756C6520666F756E64205B696E207265 PUSH0 DUP3 ADD MSTORE PUSH32 0x6C65617365546F6B656E7328295D000000000000000000000000000000000000 PUSH1 0x20 DUP3 ADD MSTORE POP JUMP JUMPDEST PUSH0 PUSH2 0x115B PUSH1 0x2E DUP4 PUSH2 0xF0E JUMP JUMPDEST SWAP2 POP PUSH2 0x1166 DUP3 PUSH2 0x1101 JUMP JUMPDEST PUSH1 0x40 DUP3 ADD SWAP1 POP SWAP2 SWAP1 POP JUMP JUMPDEST PUSH0 PUSH1 0x20 DUP3 ADD SWAP1 POP DUP2 DUP2 SUB PUSH0 DUP4 ADD MSTORE PUSH2 0x1188 DUP2 PUSH2 0x114F JUMP JUMPDEST SWAP1 POP SWAP2 SWAP1 POP JUMP JUMPDEST PUSH32 0x56657374696E67207363686564756C65207265766F6B6564205B696E2072656C PUSH0 DUP3 ADD MSTORE PUSH32 0x65617365546F6B656E7328295D00000000000000000000000000000000000000 PUSH1 0x20 DUP3 ADD MSTORE POP JUMP JUMPDEST PUSH0 PUSH2 0x11E9 PUSH1 0x2D DUP4 PUSH2 0xF0E JUMP JUMPDEST SWAP2 POP PUSH2 0x11F4 DUP3 PUSH2 0x118F JUMP JUMPDEST PUSH1 0x40 DUP3 ADD SWAP1 POP SWAP2 SWAP1 POP JUMP JUMPDEST PUSH0 PUSH1 0x20 DUP3 ADD SWAP1 POP DUP2 DUP2 SUB PUSH0 DUP4 ADD MSTORE PUSH2 0x1216 DUP2 PUSH2 0x11DD JUMP JUMPDEST SWAP1 POP SWAP2 SWAP1 POP JUMP JUMPDEST PUSH32 0x4E6F20746F6B656E73206172652063757272656E746C7920766573746564205B PUSH0 DUP3 ADD MSTORE PUSH32 0x696E2072656C65617365546F6B656E7328295D00000000000000000000000000 PUSH1 0x20 DUP3 ADD MSTORE POP JUMP JUMPDEST PUSH0 PUSH2 0x1277 PUSH1 0x33 DUP4 PUSH2 0xF0E JUMP JUMPDEST SWAP2 POP PUSH2 0x1282 DUP3 PUSH2 0x121D JUMP JUMPDEST PUSH1 0x40 DUP3 ADD SWAP1 POP SWAP2 SWAP1 POP JUMP JUMPDEST PUSH0 PUSH1 0x20 DUP3 ADD SWAP1 POP DUP2 DUP2 SUB PUSH0 DUP4 ADD MSTORE PUSH2 0x12A4 DUP2 PUSH2 0x126B JUMP JUMPDEST SWAP1 POP SWAP2 SWAP1 POP JUMP JUMPDEST PUSH0 PUSH1 0x40 DUP3 ADD SWAP1 POP PUSH2 0x12BE PUSH0 DUP4 ADD DUP6 PUSH2 0xDE7 JUMP JUMPDEST PUSH2 0x12CB PUSH1 0x20 DUP4 ADD DUP5 PUSH2 0xD94 JUMP JUMPDEST SWAP4 SWAP3 POP POP POP JUMP JUMPDEST PUSH0 DUP2 MLOAD SWAP1 POP PUSH2 0x12E0 DUP2 PUSH2 0xCCD JUMP JUMPDEST SWAP3 SWAP2 POP POP JUMP JUMPDEST PUSH0 PUSH1 0x20 DUP3 DUP5 SUB SLT ISZERO PUSH2 0x12FB JUMPI PUSH2 0x12FA PUSH2 0xC31 JUMP JUMPDEST JUMPDEST PUSH0 PUSH2 0x1308 DUP5 DUP3 DUP6 ADD PUSH2 0x12D2 JUMP JUMPDEST SWAP2 POP POP SWAP3 SWAP2 POP POP JUMP JUMPDEST PUSH32 0x56657374696E67207363686564756C65206E6F74207265766F6361626C65205B PUSH0 DUP3 ADD MSTORE PUSH32 0x696E207265766F6B6556657374696E675363686564756C6528295D0000000000 PUSH1 0x20 DUP3 ADD MSTORE POP JUMP JUMPDEST PUSH0 PUSH2 0x136B PUSH1 0x3B DUP4 PUSH2 0xF0E JUMP JUMPDEST SWAP2 POP PUSH2 0x1376 DUP3 PUSH2 0x1311 JUMP JUMPDEST PUSH1 0x40 DUP3 ADD SWAP1 POP SWAP2 SWAP1 POP JUMP JUMPDEST PUSH0 PUSH1 0x20 DUP3 ADD SWAP1 POP DUP2 DUP2 SUB PUSH0 DUP4 ADD MSTORE PUSH2 0x1398 DUP2 PUSH2 0x135F JUMP JUMPDEST SWAP1 POP SWAP2 SWAP1 POP JUMP JUMPDEST PUSH32 0x56657374696E67207363686564756C6520616C7265616479207265766F6B6564 PUSH0 DUP3 ADD MSTORE PUSH32 0x205B696E207265766F6B6556657374696E675363686564756C6528295D000000 PUSH1 0x20 DUP3 ADD MSTORE POP JUMP JUMPDEST PUSH0 PUSH2 0x13F9 PUSH1 0x3D DUP4 PUSH2 0xF0E JUMP JUMPDEST SWAP2 POP PUSH2 0x1404 DUP3 PUSH2 0x139F JUMP JUMPDEST PUSH1 0x40 DUP3 ADD SWAP1 POP SWAP2 SWAP1 POP JUMP JUMPDEST PUSH0 PUSH1 0x20 DUP3 ADD SWAP1 POP DUP2 DUP2 SUB PUSH0 DUP4 ADD MSTORE PUSH2 0x1426 DUP2 PUSH2 0x13ED JUMP JUMPDEST SWAP1 POP SWAP2 SWAP1 POP JUMP JUMPDEST PUSH0 DUP2 MLOAD SWAP1 POP PUSH2 0x143B DUP2 PUSH2 0xC98 JUMP JUMPDEST SWAP3 SWAP2 POP POP JUMP JUMPDEST PUSH0 PUSH1 0x20 DUP3 DUP5 SUB SLT ISZERO PUSH2 0x1456 JUMPI PUSH2 0x1455 PUSH2 0xC31 JUMP JUMPDEST JUMPDEST PUSH0 PUSH2 0x1463 DUP5 DUP3 DUP6 ADD PUSH2 0x142D JUMP JUMPDEST SWAP2 POP POP SWAP3 SWAP2 POP POP JUMP JUMPDEST PUSH32 0x4E487B7100000000000000000000000000000000000000000000000000000000 PUSH0 MSTORE PUSH1 0x11 PUSH1 0x4 MSTORE PUSH1 0x24 PUSH0 REVERT JUMPDEST PUSH0 PUSH2 0x14A3 DUP3 PUSH2 0xC8F JUMP JUMPDEST SWAP2 POP PUSH2 0x14AE DUP4 PUSH2 0xC8F JUMP JUMPDEST SWAP3 POP DUP3 DUP3 ADD SWAP1 POP DUP1 DUP3 GT ISZERO PUSH2 0x14C6 JUMPI PUSH2 0x14C5 PUSH2 0x146C JUMP JUMPDEST JUMPDEST SWAP3 SWAP2 POP POP JUMP JUMPDEST PUSH0 PUSH2 0x14D6 DUP3 PUSH2 0xC8F JUMP JUMPDEST SWAP2 POP PUSH2 0x14E1 DUP4 PUSH2 0xC8F JUMP JUMPDEST SWAP3 POP DUP3 DUP3 SUB SWAP1 POP DUP2 DUP2 GT ISZERO PUSH2 0x14F9 JUMPI PUSH2 0x14F8 PUSH2 0x146C JUMP JUMPDEST JUMPDEST SWAP3 SWAP2 POP POP JUMP JUMPDEST PUSH32 0x4E487B7100000000000000000000000000000000000000000000000000000000 PUSH0 MSTORE PUSH1 0x12 PUSH1 0x4 MSTORE PUSH1 0x24 PUSH0 REVERT JUMPDEST PUSH0 PUSH2 0x1536 DUP3 PUSH2 0xC8F JUMP JUMPDEST SWAP2 POP PUSH2 0x1541 DUP4 PUSH2 0xC8F JUMP JUMPDEST SWAP3 POP DUP3 PUSH2 0x1551 JUMPI PUSH2 0x1550 PUSH2 0x14FF JUMP JUMPDEST JUMPDEST DUP3 DUP3 DIV SWAP1 POP SWAP3 SWAP2 POP POP JUMP JUMPDEST PUSH0 PUSH2 0x1566 DUP3 PUSH2 0xC8F JUMP JUMPDEST SWAP2 POP PUSH2 0x1571 DUP4 PUSH2 0xC8F JUMP JUMPDEST SWAP3 POP DUP3 DUP3 MUL PUSH2 0x157F DUP2 PUSH2 0xC8F JUMP JUMPDEST SWAP2 POP DUP3 DUP3 DIV DUP5 EQ DUP4 ISZERO OR PUSH2 0x1596 JUMPI PUSH2 0x1595 PUSH2 0x146C JUMP JUMPDEST JUMPDEST POP SWAP3 SWAP2 POP POP JUMP INVALID LOG2 PUSH5 0x6970667358 0x22 SLT KECCAK256 PUSH8 0x71DE05B12EE3447F DUP9 0x1F 0xB8 0xAA LOG0 ADDRESS PUSH5 0x111D9F3D3 0xE0 0x28 DUP1 CODESIZE SWAP11 CALLDATASIZE PUSH14 0xFBC2E3C064736F6C634300081600 CALLER "
				},
				"gasEstimates": {
					"creation": {
						"codeDepositCost": "1117400",
						"executionCost": "infinite",
						"totalCost": "infinite"
					},
					"external": {
						"calculateReleasableTokens(address)": "infinite",
						"createVestingSchedule(address,uint256,uint256,uint256,uint256,uint256,bool)": "infinite",
						"getBalance(address)": "infinite",
						"getTime()": "354",
						"owner()": "2572",
						"releaseTokens()": "infinite",
						"revokeVestingSchedule(address)": "infinite",
						"token()": "infinite",
						"vestingSchedules(address)": "infinite"
					}
				},
				"methodIdentifiers": {
					"calculateReleasableTokens(address)": "7dc8a8aa",
					"createVestingSchedule(address,uint256,uint256,uint256,uint256,uint256,bool)": "4495e827",
					"getBalance(address)": "f8b2cb4f",
					"getTime()": "557ed1ba",
					"owner()": "8da5cb5b",
					"releaseTokens()": "a96f8668",
					"revokeVestingSchedule(address)": "f035a272",
					"token()": "fc0c546a",
					"vestingSchedules(address)": "fdb20ccb"
				}
			},
			"storageLayout": {
				"storage": [
					{
						"astId": 1106,
						"contract": "vesting_tokens_sushmita.sol:VestingContract",
						"label": "owner",
						"offset": 0,
						"slot": "0",
						"type": "t_address"
					},
					{
						"astId": 1109,
						"contract": "vesting_tokens_sushmita.sol:VestingContract",
						"label": "token",
						"offset": 0,
						"slot": "1",
						"type": "t_contract(ERC20)651"
					},
					{
						"astId": 1131,
						"contract": "vesting_tokens_sushmita.sol:VestingContract",
						"label": "vestingSchedules",
						"offset": 0,
						"slot": "2",
						"type": "t_mapping(t_address,t_struct(VestingSchedule)1126_storage)"
					}
				],
				"types": {
					"t_address": {
						"encoding": "inplace",
						"label": "address",
						"numberOfBytes": "20"
					},
					"t_bool": {
						"encoding": "inplace",
						"label": "bool",
						"numberOfBytes": "1"
					},
					"t_contract(ERC20)651": {
						"encoding": "inplace",
						"label": "contract ERC20",
						"numberOfBytes": "20"
					},
					"t_mapping(t_address,t_struct(VestingSchedule)1126_storage)": {
						"encoding": "mapping",
						"key": "t_address",
						"label": "mapping(address => struct VestingContract.VestingSchedule)",
						"numberOfBytes": "32",
						"value": "t_struct(VestingSchedule)1126_storage"
					},
					"t_struct(VestingSchedule)1126_storage": {
						"encoding": "inplace",
						"label": "struct VestingContract.VestingSchedule",
						"members": [
							{
								"astId": 1111,
								"contract": "vesting_tokens_sushmita.sol:VestingContract",
								"label": "startTime",
								"offset": 0,
								"slot": "0",
								"type": "t_uint256"
							},
							{
								"astId": 1113,
								"contract": "vesting_tokens_sushmita.sol:VestingContract",
								"label": "cliffDuration",
								"offset": 0,
								"slot": "1",
								"type": "t_uint256"
							},
							{
								"astId": 1115,
								"contract": "vesting_tokens_sushmita.sol:VestingContract",
								"label": "vestingDuration",
								"offset": 0,
								"slot": "2",
								"type": "t_uint256"
							},
							{
								"astId": 1117,
								"contract": "vesting_tokens_sushmita.sol:VestingContract",
								"label": "slicePeriod",
								"offset": 0,
								"slot": "3",
								"type": "t_uint256"
							},
							{
								"astId": 1119,
								"contract": "vesting_tokens_sushmita.sol:VestingContract",
								"label": "totalAmount",
								"offset": 0,
								"slot": "4",
								"type": "t_uint256"
							},
							{
								"astId": 1121,
								"contract": "vesting_tokens_sushmita.sol:VestingContract",
								"label": "revocable",
								"offset": 0,
								"slot": "5",
								"type": "t_bool"
							},
							{
								"astId": 1123,
								"contract": "vesting_tokens_sushmita.sol:VestingContract",
								"label": "vestedTokens",
								"offset": 0,
								"slot": "6",
								"type": "t_uint256"
							},
							{
								"astId": 1125,
								"contract": "vesting_tokens_sushmita.sol:VestingContract",
								"label": "revoked",
								"offset": 0,
								"slot": "7",
								"type": "t_bool"
							}
						],
						"numberOfBytes": "256"
					},
					"t_uint256": {
						"encoding": "inplace",
						"label": "uint256",
						"numberOfBytes": "32"
					}
				}
			},
			"userdoc": {
				"kind": "user",
				"methods": {},
				"version": 1
			}
		}
	}
}